{
	"src/InsertionSort.sol": {
		"InsertionSort": {
			"abi": [
				{
					"inputs": [
						{
							"internalType": "uint256[]",
							"name": "array",
							"type": "uint256[]"
						}
					],
					"name": "insertionSort",
					"outputs": [
						{
							"internalType": "uint256[]",
							"name": "",
							"type": "uint256[]"
						}
					],
					"stateMutability": "pure",
					"type": "function"
				},
				{
					"inputs": [
						{
							"internalType": "uint256[]",
							"name": "a",
							"type": "uint256[]"
						}
					],
					"name": "insertionSort2",
					"outputs": [
						{
							"internalType": "uint256[]",
							"name": "",
							"type": "uint256[]"
						}
					],
					"stateMutability": "pure",
					"type": "function"
				}
			],
			"devdoc": {
				"kind": "dev",
				"methods": {},
				"version": 1
			},
			"evm": {
				"assembly": "    /* \"src/InsertionSort.sol\":58:1261  contract InsertionSort {... */\n  mstore(0x40, 0x80)\n  callvalue\n  dup1\n  iszero\n  tag_1\n  jumpi\n  0x00\n  dup1\n  revert\ntag_1:\n  pop\n  dataSize(sub_0)\n  dup1\n  dataOffset(sub_0)\n  0x00\n  codecopy\n  0x00\n  return\nstop\n\nsub_0: assembly {\n        /* \"src/InsertionSort.sol\":58:1261  contract InsertionSort {... */\n      mstore(0x40, 0x80)\n      callvalue\n      dup1\n      iszero\n      tag_1\n      jumpi\n      0x00\n      dup1\n      revert\n    tag_1:\n      pop\n      jumpi(tag_2, lt(calldatasize, 0x04))\n      shr(0xe0, calldataload(0x00))\n      dup1\n      0x31167a2c\n      eq\n      tag_3\n      jumpi\n      dup1\n      0x6297206f\n      eq\n      tag_4\n      jumpi\n    tag_2:\n      0x00\n      dup1\n      revert\n        /* \"src/InsertionSort.sol\":831:1259  function insertionSort2(uint256[] memory a) public pure returns (uint256[] memory) {... */\n    tag_3:\n      tag_5\n      0x04\n      dup1\n      calldatasize\n      sub\n      dup2\n      add\n      swap1\n      tag_6\n      swap2\n      swap1\n      tag_7\n      jump\t// in\n    tag_6:\n      tag_8\n      jump\t// in\n    tag_5:\n      mload(0x40)\n      tag_9\n      swap2\n      swap1\n      tag_10\n      jump\t// in\n    tag_9:\n      mload(0x40)\n      dup1\n      swap2\n      sub\n      swap1\n      return\n        /* \"src/InsertionSort.sol\":164:795  function insertionSort(uint256[] memory array) public pure returns (uint256[] memory) {... */\n    tag_4:\n      tag_11\n      0x04\n      dup1\n      calldatasize\n      sub\n      dup2\n      add\n      swap1\n      tag_12\n      swap2\n      swap1\n      tag_7\n      jump\t// in\n    tag_12:\n      tag_13\n      jump\t// in\n    tag_11:\n      mload(0x40)\n      tag_14\n      swap2\n      swap1\n      tag_10\n      jump\t// in\n    tag_14:\n      mload(0x40)\n      dup1\n      swap2\n      sub\n      swap1\n      return\n        /* \"src/InsertionSort.sol\":831:1259  function insertionSort2(uint256[] memory a) public pure returns (uint256[] memory) {... */\n    tag_8:\n        /* \"src/InsertionSort.sol\":896:912  uint256[] memory */\n      0x60\n        /* \"src/InsertionSort.sol\":983:992  uint256 i */\n      0x00\n        /* \"src/InsertionSort.sol\":995:996  1 */\n      0x01\n        /* \"src/InsertionSort.sol\":983:996  uint256 i = 1 */\n      swap1\n      pop\n        /* \"src/InsertionSort.sol\":978:1233  for (uint256 i = 1; i < a.length; i++) {... */\n    tag_16:\n        /* \"src/InsertionSort.sol\":1002:1003  a */\n      dup3\n        /* \"src/InsertionSort.sol\":1002:1010  a.length */\n      mload\n        /* \"src/InsertionSort.sol\":998:999  i */\n      dup2\n        /* \"src/InsertionSort.sol\":998:1010  i < a.length */\n      lt\n        /* \"src/InsertionSort.sol\":978:1233  for (uint256 i = 1; i < a.length; i++) {... */\n      iszero\n      tag_17\n      jumpi\n        /* \"src/InsertionSort.sol\":1031:1043  uint256 temp */\n      0x00\n        /* \"src/InsertionSort.sol\":1046:1047  a */\n      dup4\n        /* \"src/InsertionSort.sol\":1048:1049  i */\n      dup3\n        /* \"src/InsertionSort.sol\":1046:1050  a[i] */\n      dup2\n      mload\n      dup2\n      lt\n      tag_19\n      jumpi\n      tag_20\n      tag_21\n      jump\t// in\n    tag_20:\n    tag_19:\n      0x20\n      mul\n      0x20\n      add\n      add\n      mload\n        /* \"src/InsertionSort.sol\":1031:1050  uint256 temp = a[i] */\n      swap1\n      pop\n        /* \"src/InsertionSort.sol\":1064:1073  uint256 j */\n      0x00\n        /* \"src/InsertionSort.sol\":1076:1077  i */\n      dup3\n        /* \"src/InsertionSort.sol\":1064:1077  uint256 j = i */\n      swap1\n      pop\n        /* \"src/InsertionSort.sol\":1091:1198  while ((j >= 1) && (temp < a[j - 1])) {... */\n    tag_22:\n        /* \"src/InsertionSort.sol\":1104:1105  1 */\n      0x01\n        /* \"src/InsertionSort.sol\":1099:1100  j */\n      dup2\n        /* \"src/InsertionSort.sol\":1099:1105  j >= 1 */\n      lt\n      iszero\n        /* \"src/InsertionSort.sol\":1098:1127  (j >= 1) && (temp < a[j - 1]) */\n      dup1\n      iszero\n      tag_24\n      jumpi\n      pop\n        /* \"src/InsertionSort.sol\":1118:1119  a */\n      dup5\n        /* \"src/InsertionSort.sol\":1124:1125  1 */\n      0x01\n        /* \"src/InsertionSort.sol\":1120:1121  j */\n      dup3\n        /* \"src/InsertionSort.sol\":1120:1125  j - 1 */\n      tag_25\n      swap2\n      swap1\n      tag_26\n      jump\t// in\n    tag_25:\n        /* \"src/InsertionSort.sol\":1118:1126  a[j - 1] */\n      dup2\n      mload\n      dup2\n      lt\n      tag_27\n      jumpi\n      tag_28\n      tag_21\n      jump\t// in\n    tag_28:\n    tag_27:\n      0x20\n      mul\n      0x20\n      add\n      add\n      mload\n        /* \"src/InsertionSort.sol\":1111:1115  temp */\n      dup3\n        /* \"src/InsertionSort.sol\":1111:1126  temp < a[j - 1] */\n      lt\n        /* \"src/InsertionSort.sol\":1098:1127  (j >= 1) && (temp < a[j - 1]) */\n    tag_24:\n        /* \"src/InsertionSort.sol\":1091:1198  while ((j >= 1) && (temp < a[j - 1])) {... */\n      iszero\n      tag_23\n      jumpi\n        /* \"src/InsertionSort.sol\":1154:1155  a */\n      dup5\n        /* \"src/InsertionSort.sol\":1160:1161  1 */\n      0x01\n        /* \"src/InsertionSort.sol\":1156:1157  j */\n      dup3\n        /* \"src/InsertionSort.sol\":1156:1161  j - 1 */\n      tag_29\n      swap2\n      swap1\n      tag_26\n      jump\t// in\n    tag_29:\n        /* \"src/InsertionSort.sol\":1154:1162  a[j - 1] */\n      dup2\n      mload\n      dup2\n      lt\n      tag_30\n      jumpi\n      tag_31\n      tag_21\n      jump\t// in\n    tag_31:\n    tag_30:\n      0x20\n      mul\n      0x20\n      add\n      add\n      mload\n        /* \"src/InsertionSort.sol\":1147:1148  a */\n      dup6\n        /* \"src/InsertionSort.sol\":1149:1150  j */\n      dup3\n        /* \"src/InsertionSort.sol\":1147:1151  a[j] */\n      dup2\n      mload\n      dup2\n      lt\n      tag_32\n      jumpi\n      tag_33\n      tag_21\n      jump\t// in\n    tag_33:\n    tag_32:\n      0x20\n      mul\n      0x20\n      add\n      add\n        /* \"src/InsertionSort.sol\":1147:1162  a[j] = a[j - 1] */\n      dup2\n      dup2\n      mstore\n      pop\n      pop\n        /* \"src/InsertionSort.sol\":1180:1183  j-- */\n      dup1\n      dup1\n      tag_34\n      swap1\n      tag_35\n      jump\t// in\n    tag_34:\n      swap2\n      pop\n      pop\n        /* \"src/InsertionSort.sol\":1091:1198  while ((j >= 1) && (temp < a[j - 1])) {... */\n      jump(tag_22)\n    tag_23:\n        /* \"src/InsertionSort.sol\":1218:1222  temp */\n      dup2\n        /* \"src/InsertionSort.sol\":1211:1212  a */\n      dup6\n        /* \"src/InsertionSort.sol\":1213:1214  j */\n      dup3\n        /* \"src/InsertionSort.sol\":1211:1215  a[j] */\n      dup2\n      mload\n      dup2\n      lt\n      tag_36\n      jumpi\n      tag_37\n      tag_21\n      jump\t// in\n    tag_37:\n    tag_36:\n      0x20\n      mul\n      0x20\n      add\n      add\n        /* \"src/InsertionSort.sol\":1211:1222  a[j] = temp */\n      dup2\n      dup2\n      mstore\n      pop\n      pop\n        /* \"src/InsertionSort.sol\":1017:1233  {... */\n      pop\n      pop\n        /* \"src/InsertionSort.sol\":1012:1015  i++ */\n      dup1\n      dup1\n      0x01\n      add\n      swap2\n      pop\n      pop\n        /* \"src/InsertionSort.sol\":978:1233  for (uint256 i = 1; i < a.length; i++) {... */\n      jump(tag_16)\n    tag_17:\n      pop\n        /* \"src/InsertionSort.sol\":1250:1251  a */\n      dup2\n        /* \"src/InsertionSort.sol\":1242:1252  return (a) */\n      swap1\n      pop\n        /* \"src/InsertionSort.sol\":831:1259  function insertionSort2(uint256[] memory a) public pure returns (uint256[] memory) {... */\n      swap2\n      swap1\n      pop\n      jump\t// out\n        /* \"src/InsertionSort.sol\":164:795  function insertionSort(uint256[] memory array) public pure returns (uint256[] memory) {... */\n    tag_13:\n        /* \"src/InsertionSort.sol\":232:248  uint256[] memory */\n      0x60\n        /* \"src/InsertionSort.sol\":265:274  uint256 i */\n      0x00\n        /* \"src/InsertionSort.sol\":277:278  1 */\n      0x01\n        /* \"src/InsertionSort.sol\":265:278  uint256 i = 1 */\n      swap1\n      pop\n        /* \"src/InsertionSort.sol\":260:767  for (uint256 i = 1; i < array.length; i++) {... */\n    tag_39:\n        /* \"src/InsertionSort.sol\":284:289  array */\n      dup3\n        /* \"src/InsertionSort.sol\":284:296  array.length */\n      mload\n        /* \"src/InsertionSort.sol\":280:281  i */\n      dup2\n        /* \"src/InsertionSort.sol\":280:296  i < array.length */\n      lt\n        /* \"src/InsertionSort.sol\":260:767  for (uint256 i = 1; i < array.length; i++) {... */\n      iszero\n      tag_40\n      jumpi\n        /* \"src/InsertionSort.sol\":317:328  uint256 key */\n      0x00\n        /* \"src/InsertionSort.sol\":331:336  array */\n      dup4\n        /* \"src/InsertionSort.sol\":337:338  i */\n      dup3\n        /* \"src/InsertionSort.sol\":331:339  array[i] */\n      dup2\n      mload\n      dup2\n      lt\n      tag_42\n      jumpi\n      tag_43\n      tag_21\n      jump\t// in\n    tag_43:\n    tag_42:\n      0x20\n      mul\n      0x20\n      add\n      add\n      mload\n        /* \"src/InsertionSort.sol\":317:339  uint256 key = array[i] */\n      swap1\n      pop\n        /* \"src/InsertionSort.sol\":353:361  int256 j */\n      0x00\n        /* \"src/InsertionSort.sol\":376:377  1 */\n      0x01\n        /* \"src/InsertionSort.sol\":371:372  i */\n      dup4\n        /* \"src/InsertionSort.sol\":364:377  int256(i) - 1 */\n      tag_44\n      swap2\n      swap1\n      tag_45\n      jump\t// in\n    tag_44:\n        /* \"src/InsertionSort.sol\":353:377  int256 j = int256(i) - 1 */\n      swap1\n      pop\n        /* \"src/InsertionSort.sol\":530:667  while (j >= 0 && array[uint256(j)] > key) {... */\n    tag_46:\n        /* \"src/InsertionSort.sol\":542:543  0 */\n      0x00\n        /* \"src/InsertionSort.sol\":537:538  j */\n      dup2\n        /* \"src/InsertionSort.sol\":537:543  j >= 0 */\n      slt\n      iszero\n        /* \"src/InsertionSort.sol\":537:570  j >= 0 && array[uint256(j)] > key */\n      dup1\n      iszero\n      tag_48\n      jumpi\n      pop\n        /* \"src/InsertionSort.sol\":567:570  key */\n      dup2\n        /* \"src/InsertionSort.sol\":547:552  array */\n      dup6\n        /* \"src/InsertionSort.sol\":561:562  j */\n      dup3\n        /* \"src/InsertionSort.sol\":547:564  array[uint256(j)] */\n      dup2\n      mload\n      dup2\n      lt\n      tag_49\n      jumpi\n      tag_50\n      tag_21\n      jump\t// in\n    tag_50:\n    tag_49:\n      0x20\n      mul\n      0x20\n      add\n      add\n      mload\n        /* \"src/InsertionSort.sol\":547:570  array[uint256(j)] > key */\n      gt\n        /* \"src/InsertionSort.sol\":537:570  j >= 0 && array[uint256(j)] > key */\n    tag_48:\n        /* \"src/InsertionSort.sol\":530:667  while (j >= 0 && array[uint256(j)] > key) {... */\n      iszero\n      tag_47\n      jumpi\n        /* \"src/InsertionSort.sol\":614:619  array */\n      dup5\n        /* \"src/InsertionSort.sol\":628:629  j */\n      dup2\n        /* \"src/InsertionSort.sol\":614:631  array[uint256(j)] */\n      dup2\n      mload\n      dup2\n      lt\n      tag_51\n      jumpi\n      tag_52\n      tag_21\n      jump\t// in\n    tag_52:\n    tag_51:\n      0x20\n      mul\n      0x20\n      add\n      add\n      mload\n        /* \"src/InsertionSort.sol\":590:595  array */\n      dup6\n        /* \"src/InsertionSort.sol\":608:609  1 */\n      0x01\n        /* \"src/InsertionSort.sol\":604:605  j */\n      dup4\n        /* \"src/InsertionSort.sol\":604:609  j + 1 */\n      tag_53\n      swap2\n      swap1\n      tag_54\n      jump\t// in\n    tag_53:\n        /* \"src/InsertionSort.sol\":590:611  array[uint256(j + 1)] */\n      dup2\n      mload\n      dup2\n      lt\n      tag_55\n      jumpi\n      tag_56\n      tag_21\n      jump\t// in\n    tag_56:\n    tag_55:\n      0x20\n      mul\n      0x20\n      add\n      add\n        /* \"src/InsertionSort.sol\":590:631  array[uint256(j + 1)] = array[uint256(j)] */\n      dup2\n      dup2\n      mstore\n      pop\n      pop\n        /* \"src/InsertionSort.sol\":649:652  j-- */\n      dup1\n      dup1\n      tag_57\n      swap1\n      tag_58\n      jump\t// in\n    tag_57:\n      swap2\n      pop\n      pop\n        /* \"src/InsertionSort.sol\":530:667  while (j >= 0 && array[uint256(j)] > key) {... */\n      jump(tag_46)\n    tag_47:\n        /* \"src/InsertionSort.sol\":753:756  key */\n      dup2\n        /* \"src/InsertionSort.sol\":729:734  array */\n      dup6\n        /* \"src/InsertionSort.sol\":747:748  1 */\n      0x01\n        /* \"src/InsertionSort.sol\":743:744  j */\n      dup4\n        /* \"src/InsertionSort.sol\":743:748  j + 1 */\n      tag_59\n      swap2\n      swap1\n      tag_54\n      jump\t// in\n    tag_59:\n        /* \"src/InsertionSort.sol\":729:750  array[uint256(j + 1)] */\n      dup2\n      mload\n      dup2\n      lt\n      tag_60\n      jumpi\n      tag_61\n      tag_21\n      jump\t// in\n    tag_61:\n    tag_60:\n      0x20\n      mul\n      0x20\n      add\n      add\n        /* \"src/InsertionSort.sol\":729:756  array[uint256(j + 1)] = key */\n      dup2\n      dup2\n      mstore\n      pop\n      pop\n        /* \"src/InsertionSort.sol\":303:767  {... */\n      pop\n      pop\n        /* \"src/InsertionSort.sol\":298:301  i++ */\n      dup1\n      dup1\n      0x01\n      add\n      swap2\n      pop\n      pop\n        /* \"src/InsertionSort.sol\":260:767  for (uint256 i = 1; i < array.length; i++) {... */\n      jump(tag_39)\n    tag_40:\n      pop\n        /* \"src/InsertionSort.sol\":783:788  array */\n      dup2\n        /* \"src/InsertionSort.sol\":776:788  return array */\n      swap1\n      pop\n        /* \"src/InsertionSort.sol\":164:795  function insertionSort(uint256[] memory array) public pure returns (uint256[] memory) {... */\n      swap2\n      swap1\n      pop\n      jump\t// out\n        /* \"#utility.yul\":7:82   */\n    tag_62:\n        /* \"#utility.yul\":40:46   */\n      0x00\n        /* \"#utility.yul\":73:75   */\n      0x40\n        /* \"#utility.yul\":67:76   */\n      mload\n        /* \"#utility.yul\":57:76   */\n      swap1\n      pop\n        /* \"#utility.yul\":7:82   */\n      swap1\n      jump\t// out\n        /* \"#utility.yul\":88:205   */\n    tag_63:\n        /* \"#utility.yul\":197:198   */\n      0x00\n        /* \"#utility.yul\":194:195   */\n      dup1\n        /* \"#utility.yul\":187:199   */\n      revert\n        /* \"#utility.yul\":211:328   */\n    tag_64:\n        /* \"#utility.yul\":320:321   */\n      0x00\n        /* \"#utility.yul\":317:318   */\n      dup1\n        /* \"#utility.yul\":310:322   */\n      revert\n        /* \"#utility.yul\":334:451   */\n    tag_65:\n        /* \"#utility.yul\":443:444   */\n      0x00\n        /* \"#utility.yul\":440:441   */\n      dup1\n        /* \"#utility.yul\":433:445   */\n      revert\n        /* \"#utility.yul\":457:559   */\n    tag_66:\n        /* \"#utility.yul\":498:504   */\n      0x00\n        /* \"#utility.yul\":549:551   */\n      0x1f\n        /* \"#utility.yul\":545:552   */\n      not\n        /* \"#utility.yul\":540:542   */\n      0x1f\n        /* \"#utility.yul\":533:538   */\n      dup4\n        /* \"#utility.yul\":529:543   */\n      add\n        /* \"#utility.yul\":525:553   */\n      and\n        /* \"#utility.yul\":515:553   */\n      swap1\n      pop\n        /* \"#utility.yul\":457:559   */\n      swap2\n      swap1\n      pop\n      jump\t// out\n        /* \"#utility.yul\":565:745   */\n    tag_67:\n        /* \"#utility.yul\":613:690   */\n      0x4e487b7100000000000000000000000000000000000000000000000000000000\n        /* \"#utility.yul\":610:611   */\n      0x00\n        /* \"#utility.yul\":603:691   */\n      mstore\n        /* \"#utility.yul\":710:714   */\n      0x41\n        /* \"#utility.yul\":707:708   */\n      0x04\n        /* \"#utility.yul\":700:715   */\n      mstore\n        /* \"#utility.yul\":734:738   */\n      0x24\n        /* \"#utility.yul\":731:732   */\n      0x00\n        /* \"#utility.yul\":724:739   */\n      revert\n        /* \"#utility.yul\":751:1032   */\n    tag_68:\n        /* \"#utility.yul\":834:861   */\n      tag_94\n        /* \"#utility.yul\":856:860   */\n      dup3\n        /* \"#utility.yul\":834:861   */\n      tag_66\n      jump\t// in\n    tag_94:\n        /* \"#utility.yul\":826:832   */\n      dup2\n        /* \"#utility.yul\":822:862   */\n      add\n        /* \"#utility.yul\":964:970   */\n      dup2\n        /* \"#utility.yul\":952:962   */\n      dup2\n        /* \"#utility.yul\":949:971   */\n      lt\n        /* \"#utility.yul\":928:946   */\n      0xffffffffffffffff\n        /* \"#utility.yul\":916:926   */\n      dup3\n        /* \"#utility.yul\":913:947   */\n      gt\n        /* \"#utility.yul\":910:972   */\n      or\n        /* \"#utility.yul\":907:995   */\n      iszero\n      tag_95\n      jumpi\n        /* \"#utility.yul\":975:993   */\n      tag_96\n      tag_67\n      jump\t// in\n    tag_96:\n        /* \"#utility.yul\":907:995   */\n    tag_95:\n        /* \"#utility.yul\":1015:1025   */\n      dup1\n        /* \"#utility.yul\":1011:1013   */\n      0x40\n        /* \"#utility.yul\":1004:1026   */\n      mstore\n        /* \"#utility.yul\":794:1032   */\n      pop\n        /* \"#utility.yul\":751:1032   */\n      pop\n      pop\n      jump\t// out\n        /* \"#utility.yul\":1038:1167   */\n    tag_69:\n        /* \"#utility.yul\":1072:1078   */\n      0x00\n        /* \"#utility.yul\":1099:1119   */\n      tag_98\n      tag_62\n      jump\t// in\n    tag_98:\n        /* \"#utility.yul\":1089:1119   */\n      swap1\n      pop\n        /* \"#utility.yul\":1128:1161   */\n      tag_99\n        /* \"#utility.yul\":1156:1160   */\n      dup3\n        /* \"#utility.yul\":1148:1154   */\n      dup3\n        /* \"#utility.yul\":1128:1161   */\n      tag_68\n      jump\t// in\n    tag_99:\n        /* \"#utility.yul\":1038:1167   */\n      swap2\n      swap1\n      pop\n      jump\t// out\n        /* \"#utility.yul\":1173:1484   */\n    tag_70:\n        /* \"#utility.yul\":1250:1254   */\n      0x00\n        /* \"#utility.yul\":1340:1358   */\n      0xffffffffffffffff\n        /* \"#utility.yul\":1332:1338   */\n      dup3\n        /* \"#utility.yul\":1329:1359   */\n      gt\n        /* \"#utility.yul\":1326:1382   */\n      iszero\n      tag_101\n      jumpi\n        /* \"#utility.yul\":1362:1380   */\n      tag_102\n      tag_67\n      jump\t// in\n    tag_102:\n        /* \"#utility.yul\":1326:1382   */\n    tag_101:\n        /* \"#utility.yul\":1412:1416   */\n      0x20\n        /* \"#utility.yul\":1404:1410   */\n      dup3\n        /* \"#utility.yul\":1400:1417   */\n      mul\n        /* \"#utility.yul\":1392:1417   */\n      swap1\n      pop\n        /* \"#utility.yul\":1472:1476   */\n      0x20\n        /* \"#utility.yul\":1466:1470   */\n      dup2\n        /* \"#utility.yul\":1462:1477   */\n      add\n        /* \"#utility.yul\":1454:1477   */\n      swap1\n      pop\n        /* \"#utility.yul\":1173:1484   */\n      swap2\n      swap1\n      pop\n      jump\t// out\n        /* \"#utility.yul\":1490:1607   */\n    tag_71:\n        /* \"#utility.yul\":1599:1600   */\n      0x00\n        /* \"#utility.yul\":1596:1597   */\n      dup1\n        /* \"#utility.yul\":1589:1601   */\n      revert\n        /* \"#utility.yul\":1613:1690   */\n    tag_72:\n        /* \"#utility.yul\":1650:1657   */\n      0x00\n        /* \"#utility.yul\":1679:1684   */\n      dup2\n        /* \"#utility.yul\":1668:1684   */\n      swap1\n      pop\n        /* \"#utility.yul\":1613:1690   */\n      swap2\n      swap1\n      pop\n      jump\t// out\n        /* \"#utility.yul\":1696:1818   */\n    tag_73:\n        /* \"#utility.yul\":1769:1793   */\n      tag_106\n        /* \"#utility.yul\":1787:1792   */\n      dup2\n        /* \"#utility.yul\":1769:1793   */\n      tag_72\n      jump\t// in\n    tag_106:\n        /* \"#utility.yul\":1762:1767   */\n      dup2\n        /* \"#utility.yul\":1759:1794   */\n      eq\n        /* \"#utility.yul\":1749:1812   */\n      tag_107\n      jumpi\n        /* \"#utility.yul\":1808:1809   */\n      0x00\n        /* \"#utility.yul\":1805:1806   */\n      dup1\n        /* \"#utility.yul\":1798:1810   */\n      revert\n        /* \"#utility.yul\":1749:1812   */\n    tag_107:\n        /* \"#utility.yul\":1696:1818   */\n      pop\n      jump\t// out\n        /* \"#utility.yul\":1824:1963   */\n    tag_74:\n        /* \"#utility.yul\":1870:1875   */\n      0x00\n        /* \"#utility.yul\":1908:1914   */\n      dup2\n        /* \"#utility.yul\":1895:1915   */\n      calldataload\n        /* \"#utility.yul\":1886:1915   */\n      swap1\n      pop\n        /* \"#utility.yul\":1924:1957   */\n      tag_109\n        /* \"#utility.yul\":1951:1956   */\n      dup2\n        /* \"#utility.yul\":1924:1957   */\n      tag_73\n      jump\t// in\n    tag_109:\n        /* \"#utility.yul\":1824:1963   */\n      swap3\n      swap2\n      pop\n      pop\n      jump\t// out\n        /* \"#utility.yul\":1986:2696   */\n    tag_75:\n        /* \"#utility.yul\":2082:2087   */\n      0x00\n        /* \"#utility.yul\":2107:2188   */\n      tag_111\n        /* \"#utility.yul\":2123:2187   */\n      tag_112\n        /* \"#utility.yul\":2180:2186   */\n      dup5\n        /* \"#utility.yul\":2123:2187   */\n      tag_70\n      jump\t// in\n    tag_112:\n        /* \"#utility.yul\":2107:2188   */\n      tag_69\n      jump\t// in\n    tag_111:\n        /* \"#utility.yul\":2098:2188   */\n      swap1\n      pop\n        /* \"#utility.yul\":2208:2213   */\n      dup1\n        /* \"#utility.yul\":2237:2243   */\n      dup4\n        /* \"#utility.yul\":2230:2235   */\n      dup3\n        /* \"#utility.yul\":2223:2244   */\n      mstore\n        /* \"#utility.yul\":2271:2275   */\n      0x20\n        /* \"#utility.yul\":2264:2269   */\n      dup3\n        /* \"#utility.yul\":2260:2276   */\n      add\n        /* \"#utility.yul\":2253:2276   */\n      swap1\n      pop\n        /* \"#utility.yul\":2324:2328   */\n      0x20\n        /* \"#utility.yul\":2316:2322   */\n      dup5\n        /* \"#utility.yul\":2312:2329   */\n      mul\n        /* \"#utility.yul\":2304:2310   */\n      dup4\n        /* \"#utility.yul\":2300:2330   */\n      add\n        /* \"#utility.yul\":2353:2356   */\n      dup6\n        /* \"#utility.yul\":2345:2351   */\n      dup2\n        /* \"#utility.yul\":2342:2357   */\n      gt\n        /* \"#utility.yul\":2339:2461   */\n      iszero\n      tag_113\n      jumpi\n        /* \"#utility.yul\":2372:2451   */\n      tag_114\n      tag_71\n      jump\t// in\n    tag_114:\n        /* \"#utility.yul\":2339:2461   */\n    tag_113:\n        /* \"#utility.yul\":2487:2493   */\n      dup4\n        /* \"#utility.yul\":2470:2690   */\n    tag_115:\n        /* \"#utility.yul\":2504:2510   */\n      dup2\n        /* \"#utility.yul\":2499:2502   */\n      dup2\n        /* \"#utility.yul\":2496:2511   */\n      lt\n        /* \"#utility.yul\":2470:2690   */\n      iszero\n      tag_117\n      jumpi\n        /* \"#utility.yul\":2579:2582   */\n      dup1\n        /* \"#utility.yul\":2608:2645   */\n      tag_118\n        /* \"#utility.yul\":2641:2644   */\n      dup9\n        /* \"#utility.yul\":2629:2639   */\n      dup3\n        /* \"#utility.yul\":2608:2645   */\n      tag_74\n      jump\t// in\n    tag_118:\n        /* \"#utility.yul\":2603:2606   */\n      dup5\n        /* \"#utility.yul\":2596:2646   */\n      mstore\n        /* \"#utility.yul\":2675:2679   */\n      0x20\n        /* \"#utility.yul\":2670:2673   */\n      dup5\n        /* \"#utility.yul\":2666:2680   */\n      add\n        /* \"#utility.yul\":2659:2680   */\n      swap4\n      pop\n        /* \"#utility.yul\":2546:2690   */\n      pop\n        /* \"#utility.yul\":2530:2534   */\n      0x20\n        /* \"#utility.yul\":2525:2528   */\n      dup2\n        /* \"#utility.yul\":2521:2535   */\n      add\n        /* \"#utility.yul\":2514:2535   */\n      swap1\n      pop\n        /* \"#utility.yul\":2470:2690   */\n      jump(tag_115)\n    tag_117:\n        /* \"#utility.yul\":2474:2495   */\n      pop\n        /* \"#utility.yul\":2088:2696   */\n      pop\n      pop\n        /* \"#utility.yul\":1986:2696   */\n      swap4\n      swap3\n      pop\n      pop\n      pop\n      jump\t// out\n        /* \"#utility.yul\":2719:3089   */\n    tag_76:\n        /* \"#utility.yul\":2790:2795   */\n      0x00\n        /* \"#utility.yul\":2839:2842   */\n      dup3\n        /* \"#utility.yul\":2832:2836   */\n      0x1f\n        /* \"#utility.yul\":2824:2830   */\n      dup4\n        /* \"#utility.yul\":2820:2837   */\n      add\n        /* \"#utility.yul\":2816:2843   */\n      slt\n        /* \"#utility.yul\":2806:2928   */\n      tag_120\n      jumpi\n        /* \"#utility.yul\":2847:2926   */\n      tag_121\n      tag_65\n      jump\t// in\n    tag_121:\n        /* \"#utility.yul\":2806:2928   */\n    tag_120:\n        /* \"#utility.yul\":2964:2970   */\n      dup2\n        /* \"#utility.yul\":2951:2971   */\n      calldataload\n        /* \"#utility.yul\":2989:3083   */\n      tag_122\n        /* \"#utility.yul\":3079:3082   */\n      dup5\n        /* \"#utility.yul\":3071:3077   */\n      dup3\n        /* \"#utility.yul\":3064:3068   */\n      0x20\n        /* \"#utility.yul\":3056:3062   */\n      dup7\n        /* \"#utility.yul\":3052:3069   */\n      add\n        /* \"#utility.yul\":2989:3083   */\n      tag_75\n      jump\t// in\n    tag_122:\n        /* \"#utility.yul\":2980:3083   */\n      swap2\n      pop\n        /* \"#utility.yul\":2796:3089   */\n      pop\n        /* \"#utility.yul\":2719:3089   */\n      swap3\n      swap2\n      pop\n      pop\n      jump\t// out\n        /* \"#utility.yul\":3095:3634   */\n    tag_7:\n        /* \"#utility.yul\":3179:3185   */\n      0x00\n        /* \"#utility.yul\":3228:3230   */\n      0x20\n        /* \"#utility.yul\":3216:3225   */\n      dup3\n        /* \"#utility.yul\":3207:3214   */\n      dup5\n        /* \"#utility.yul\":3203:3226   */\n      sub\n        /* \"#utility.yul\":3199:3231   */\n      slt\n        /* \"#utility.yul\":3196:3315   */\n      iszero\n      tag_124\n      jumpi\n        /* \"#utility.yul\":3234:3313   */\n      tag_125\n      tag_63\n      jump\t// in\n    tag_125:\n        /* \"#utility.yul\":3196:3315   */\n    tag_124:\n        /* \"#utility.yul\":3382:3383   */\n      0x00\n        /* \"#utility.yul\":3371:3380   */\n      dup3\n        /* \"#utility.yul\":3367:3384   */\n      add\n        /* \"#utility.yul\":3354:3385   */\n      calldataload\n        /* \"#utility.yul\":3412:3430   */\n      0xffffffffffffffff\n        /* \"#utility.yul\":3404:3410   */\n      dup2\n        /* \"#utility.yul\":3401:3431   */\n      gt\n        /* \"#utility.yul\":3398:3515   */\n      iszero\n      tag_126\n      jumpi\n        /* \"#utility.yul\":3434:3513   */\n      tag_127\n      tag_64\n      jump\t// in\n    tag_127:\n        /* \"#utility.yul\":3398:3515   */\n    tag_126:\n        /* \"#utility.yul\":3539:3617   */\n      tag_128\n        /* \"#utility.yul\":3609:3616   */\n      dup5\n        /* \"#utility.yul\":3600:3606   */\n      dup3\n        /* \"#utility.yul\":3589:3598   */\n      dup6\n        /* \"#utility.yul\":3585:3607   */\n      add\n        /* \"#utility.yul\":3539:3617   */\n      tag_76\n      jump\t// in\n    tag_128:\n        /* \"#utility.yul\":3529:3617   */\n      swap2\n      pop\n        /* \"#utility.yul\":3325:3627   */\n      pop\n        /* \"#utility.yul\":3095:3634   */\n      swap3\n      swap2\n      pop\n      pop\n      jump\t// out\n        /* \"#utility.yul\":3640:3754   */\n    tag_77:\n        /* \"#utility.yul\":3707:3713   */\n      0x00\n        /* \"#utility.yul\":3741:3746   */\n      dup2\n        /* \"#utility.yul\":3735:3747   */\n      mload\n        /* \"#utility.yul\":3725:3747   */\n      swap1\n      pop\n        /* \"#utility.yul\":3640:3754   */\n      swap2\n      swap1\n      pop\n      jump\t// out\n        /* \"#utility.yul\":3760:3944   */\n    tag_78:\n        /* \"#utility.yul\":3859:3870   */\n      0x00\n        /* \"#utility.yul\":3893:3899   */\n      dup3\n        /* \"#utility.yul\":3888:3891   */\n      dup3\n        /* \"#utility.yul\":3881:3900   */\n      mstore\n        /* \"#utility.yul\":3933:3937   */\n      0x20\n        /* \"#utility.yul\":3928:3931   */\n      dup3\n        /* \"#utility.yul\":3924:3938   */\n      add\n        /* \"#utility.yul\":3909:3938   */\n      swap1\n      pop\n        /* \"#utility.yul\":3760:3944   */\n      swap3\n      swap2\n      pop\n      pop\n      jump\t// out\n        /* \"#utility.yul\":3950:4082   */\n    tag_79:\n        /* \"#utility.yul\":4017:4021   */\n      0x00\n        /* \"#utility.yul\":4040:4043   */\n      dup2\n        /* \"#utility.yul\":4032:4043   */\n      swap1\n      pop\n        /* \"#utility.yul\":4070:4074   */\n      0x20\n        /* \"#utility.yul\":4065:4068   */\n      dup3\n        /* \"#utility.yul\":4061:4075   */\n      add\n        /* \"#utility.yul\":4053:4075   */\n      swap1\n      pop\n        /* \"#utility.yul\":3950:4082   */\n      swap2\n      swap1\n      pop\n      jump\t// out\n        /* \"#utility.yul\":4088:4196   */\n    tag_80:\n        /* \"#utility.yul\":4165:4189   */\n      tag_133\n        /* \"#utility.yul\":4183:4188   */\n      dup2\n        /* \"#utility.yul\":4165:4189   */\n      tag_72\n      jump\t// in\n    tag_133:\n        /* \"#utility.yul\":4160:4163   */\n      dup3\n        /* \"#utility.yul\":4153:4190   */\n      mstore\n        /* \"#utility.yul\":4088:4196   */\n      pop\n      pop\n      jump\t// out\n        /* \"#utility.yul\":4202:4381   */\n    tag_81:\n        /* \"#utility.yul\":4271:4281   */\n      0x00\n        /* \"#utility.yul\":4292:4338   */\n      tag_135\n        /* \"#utility.yul\":4334:4337   */\n      dup4\n        /* \"#utility.yul\":4326:4332   */\n      dup4\n        /* \"#utility.yul\":4292:4338   */\n      tag_80\n      jump\t// in\n    tag_135:\n        /* \"#utility.yul\":4370:4374   */\n      0x20\n        /* \"#utility.yul\":4365:4368   */\n      dup4\n        /* \"#utility.yul\":4361:4375   */\n      add\n        /* \"#utility.yul\":4347:4375   */\n      swap1\n      pop\n        /* \"#utility.yul\":4202:4381   */\n      swap3\n      swap2\n      pop\n      pop\n      jump\t// out\n        /* \"#utility.yul\":4387:4500   */\n    tag_82:\n        /* \"#utility.yul\":4457:4461   */\n      0x00\n        /* \"#utility.yul\":4489:4493   */\n      0x20\n        /* \"#utility.yul\":4484:4487   */\n      dup3\n        /* \"#utility.yul\":4480:4494   */\n      add\n        /* \"#utility.yul\":4472:4494   */\n      swap1\n      pop\n        /* \"#utility.yul\":4387:4500   */\n      swap2\n      swap1\n      pop\n      jump\t// out\n        /* \"#utility.yul\":4536:5268   */\n    tag_83:\n        /* \"#utility.yul\":4655:4658   */\n      0x00\n        /* \"#utility.yul\":4684:4738   */\n      tag_138\n        /* \"#utility.yul\":4732:4737   */\n      dup3\n        /* \"#utility.yul\":4684:4738   */\n      tag_77\n      jump\t// in\n    tag_138:\n        /* \"#utility.yul\":4754:4840   */\n      tag_139\n        /* \"#utility.yul\":4833:4839   */\n      dup2\n        /* \"#utility.yul\":4828:4831   */\n      dup6\n        /* \"#utility.yul\":4754:4840   */\n      tag_78\n      jump\t// in\n    tag_139:\n        /* \"#utility.yul\":4747:4840   */\n      swap4\n      pop\n        /* \"#utility.yul\":4864:4920   */\n      tag_140\n        /* \"#utility.yul\":4914:4919   */\n      dup4\n        /* \"#utility.yul\":4864:4920   */\n      tag_79\n      jump\t// in\n    tag_140:\n        /* \"#utility.yul\":4943:4950   */\n      dup1\n        /* \"#utility.yul\":4974:4975   */\n      0x00\n        /* \"#utility.yul\":4959:5243   */\n    tag_141:\n        /* \"#utility.yul\":4984:4990   */\n      dup4\n        /* \"#utility.yul\":4981:4982   */\n      dup2\n        /* \"#utility.yul\":4978:4991   */\n      lt\n        /* \"#utility.yul\":4959:5243   */\n      iszero\n      tag_143\n      jumpi\n        /* \"#utility.yul\":5060:5066   */\n      dup2\n        /* \"#utility.yul\":5054:5067   */\n      mload\n        /* \"#utility.yul\":5087:5150   */\n      tag_144\n        /* \"#utility.yul\":5146:5149   */\n      dup9\n        /* \"#utility.yul\":5131:5144   */\n      dup3\n        /* \"#utility.yul\":5087:5150   */\n      tag_81\n      jump\t// in\n    tag_144:\n        /* \"#utility.yul\":5080:5150   */\n      swap8\n      pop\n        /* \"#utility.yul\":5173:5233   */\n      tag_145\n        /* \"#utility.yul\":5226:5232   */\n      dup4\n        /* \"#utility.yul\":5173:5233   */\n      tag_82\n      jump\t// in\n    tag_145:\n        /* \"#utility.yul\":5163:5233   */\n      swap3\n      pop\n        /* \"#utility.yul\":5019:5243   */\n      pop\n        /* \"#utility.yul\":5006:5007   */\n      0x01\n        /* \"#utility.yul\":5003:5004   */\n      dup2\n        /* \"#utility.yul\":4999:5008   */\n      add\n        /* \"#utility.yul\":4994:5008   */\n      swap1\n      pop\n        /* \"#utility.yul\":4959:5243   */\n      jump(tag_141)\n    tag_143:\n        /* \"#utility.yul\":4963:4977   */\n      pop\n        /* \"#utility.yul\":5259:5262   */\n      dup6\n        /* \"#utility.yul\":5252:5262   */\n      swap4\n      pop\n        /* \"#utility.yul\":4660:5268   */\n      pop\n      pop\n      pop\n        /* \"#utility.yul\":4536:5268   */\n      swap3\n      swap2\n      pop\n      pop\n      jump\t// out\n        /* \"#utility.yul\":5274:5647   */\n    tag_10:\n        /* \"#utility.yul\":5417:5421   */\n      0x00\n        /* \"#utility.yul\":5455:5457   */\n      0x20\n        /* \"#utility.yul\":5444:5453   */\n      dup3\n        /* \"#utility.yul\":5440:5458   */\n      add\n        /* \"#utility.yul\":5432:5458   */\n      swap1\n      pop\n        /* \"#utility.yul\":5504:5513   */\n      dup2\n        /* \"#utility.yul\":5498:5502   */\n      dup2\n        /* \"#utility.yul\":5494:5514   */\n      sub\n        /* \"#utility.yul\":5490:5491   */\n      0x00\n        /* \"#utility.yul\":5479:5488   */\n      dup4\n        /* \"#utility.yul\":5475:5492   */\n      add\n        /* \"#utility.yul\":5468:5515   */\n      mstore\n        /* \"#utility.yul\":5532:5640   */\n      tag_147\n        /* \"#utility.yul\":5635:5639   */\n      dup2\n        /* \"#utility.yul\":5626:5632   */\n      dup5\n        /* \"#utility.yul\":5532:5640   */\n      tag_83\n      jump\t// in\n    tag_147:\n        /* \"#utility.yul\":5524:5640   */\n      swap1\n      pop\n        /* \"#utility.yul\":5274:5647   */\n      swap3\n      swap2\n      pop\n      pop\n      jump\t// out\n        /* \"#utility.yul\":5653:5833   */\n    tag_21:\n        /* \"#utility.yul\":5701:5778   */\n      0x4e487b7100000000000000000000000000000000000000000000000000000000\n        /* \"#utility.yul\":5698:5699   */\n      0x00\n        /* \"#utility.yul\":5691:5779   */\n      mstore\n        /* \"#utility.yul\":5798:5802   */\n      0x32\n        /* \"#utility.yul\":5795:5796   */\n      0x04\n        /* \"#utility.yul\":5788:5803   */\n      mstore\n        /* \"#utility.yul\":5822:5826   */\n      0x24\n        /* \"#utility.yul\":5819:5820   */\n      0x00\n        /* \"#utility.yul\":5812:5827   */\n      revert\n        /* \"#utility.yul\":5839:6019   */\n    tag_84:\n        /* \"#utility.yul\":5887:5964   */\n      0x4e487b7100000000000000000000000000000000000000000000000000000000\n        /* \"#utility.yul\":5884:5885   */\n      0x00\n        /* \"#utility.yul\":5877:5965   */\n      mstore\n        /* \"#utility.yul\":5984:5988   */\n      0x11\n        /* \"#utility.yul\":5981:5982   */\n      0x04\n        /* \"#utility.yul\":5974:5989   */\n      mstore\n        /* \"#utility.yul\":6008:6012   */\n      0x24\n        /* \"#utility.yul\":6005:6006   */\n      0x00\n        /* \"#utility.yul\":5998:6013   */\n      revert\n        /* \"#utility.yul\":6025:6219   */\n    tag_26:\n        /* \"#utility.yul\":6065:6069   */\n      0x00\n        /* \"#utility.yul\":6085:6105   */\n      tag_151\n        /* \"#utility.yul\":6103:6104   */\n      dup3\n        /* \"#utility.yul\":6085:6105   */\n      tag_72\n      jump\t// in\n    tag_151:\n        /* \"#utility.yul\":6080:6105   */\n      swap2\n      pop\n        /* \"#utility.yul\":6119:6139   */\n      tag_152\n        /* \"#utility.yul\":6137:6138   */\n      dup4\n        /* \"#utility.yul\":6119:6139   */\n      tag_72\n      jump\t// in\n    tag_152:\n        /* \"#utility.yul\":6114:6139   */\n      swap3\n      pop\n        /* \"#utility.yul\":6163:6164   */\n      dup3\n        /* \"#utility.yul\":6160:6161   */\n      dup3\n        /* \"#utility.yul\":6156:6165   */\n      sub\n        /* \"#utility.yul\":6148:6165   */\n      swap1\n      pop\n        /* \"#utility.yul\":6187:6188   */\n      dup2\n        /* \"#utility.yul\":6181:6185   */\n      dup2\n        /* \"#utility.yul\":6178:6189   */\n      gt\n        /* \"#utility.yul\":6175:6212   */\n      iszero\n      tag_153\n      jumpi\n        /* \"#utility.yul\":6192:6210   */\n      tag_154\n      tag_84\n      jump\t// in\n    tag_154:\n        /* \"#utility.yul\":6175:6212   */\n    tag_153:\n        /* \"#utility.yul\":6025:6219   */\n      swap3\n      swap2\n      pop\n      pop\n      jump\t// out\n        /* \"#utility.yul\":6225:6396   */\n    tag_35:\n        /* \"#utility.yul\":6264:6267   */\n      0x00\n        /* \"#utility.yul\":6287:6311   */\n      tag_156\n        /* \"#utility.yul\":6305:6310   */\n      dup3\n        /* \"#utility.yul\":6287:6311   */\n      tag_72\n      jump\t// in\n    tag_156:\n        /* \"#utility.yul\":6278:6311   */\n      swap2\n      pop\n        /* \"#utility.yul\":6333:6337   */\n      0x00\n        /* \"#utility.yul\":6326:6331   */\n      dup3\n        /* \"#utility.yul\":6323:6338   */\n      sub\n        /* \"#utility.yul\":6320:6361   */\n      tag_157\n      jumpi\n        /* \"#utility.yul\":6341:6359   */\n      tag_158\n      tag_84\n      jump\t// in\n    tag_158:\n        /* \"#utility.yul\":6320:6361   */\n    tag_157:\n        /* \"#utility.yul\":6388:6389   */\n      0x01\n        /* \"#utility.yul\":6381:6386   */\n      dup3\n        /* \"#utility.yul\":6377:6390   */\n      sub\n        /* \"#utility.yul\":6370:6390   */\n      swap1\n      pop\n        /* \"#utility.yul\":6225:6396   */\n      swap2\n      swap1\n      pop\n      jump\t// out\n        /* \"#utility.yul\":6402:6478   */\n    tag_85:\n        /* \"#utility.yul\":6438:6445   */\n      0x00\n        /* \"#utility.yul\":6467:6472   */\n      dup2\n        /* \"#utility.yul\":6456:6472   */\n      swap1\n      pop\n        /* \"#utility.yul\":6402:6478   */\n      swap2\n      swap1\n      pop\n      jump\t// out\n        /* \"#utility.yul\":6484:6856   */\n    tag_45:\n        /* \"#utility.yul\":6523:6527   */\n      0x00\n        /* \"#utility.yul\":6543:6562   */\n      tag_161\n        /* \"#utility.yul\":6560:6561   */\n      dup3\n        /* \"#utility.yul\":6543:6562   */\n      tag_85\n      jump\t// in\n    tag_161:\n        /* \"#utility.yul\":6538:6562   */\n      swap2\n      pop\n        /* \"#utility.yul\":6576:6595   */\n      tag_162\n        /* \"#utility.yul\":6593:6594   */\n      dup4\n        /* \"#utility.yul\":6576:6595   */\n      tag_85\n      jump\t// in\n    tag_162:\n        /* \"#utility.yul\":6571:6595   */\n      swap3\n      pop\n        /* \"#utility.yul\":6619:6620   */\n      dup3\n        /* \"#utility.yul\":6616:6617   */\n      dup3\n        /* \"#utility.yul\":6612:6621   */\n      sub\n        /* \"#utility.yul\":6604:6621   */\n      swap1\n      pop\n        /* \"#utility.yul\":6813:6814   */\n      dup2\n        /* \"#utility.yul\":6807:6811   */\n      dup2\n        /* \"#utility.yul\":6803:6815   */\n      slt\n        /* \"#utility.yul\":6799:6800   */\n      0x00\n        /* \"#utility.yul\":6796:6797   */\n      dup5\n        /* \"#utility.yul\":6792:6801   */\n      slt\n        /* \"#utility.yul\":6788:6816   */\n      and\n        /* \"#utility.yul\":6771:6772   */\n      dup3\n        /* \"#utility.yul\":6765:6769   */\n      dup3\n        /* \"#utility.yul\":6761:6773   */\n      sgt\n        /* \"#utility.yul\":6756:6757   */\n      0x00\n        /* \"#utility.yul\":6753:6754   */\n      dup6\n        /* \"#utility.yul\":6749:6758   */\n      slt\n        /* \"#utility.yul\":6742:6759   */\n      iszero\n        /* \"#utility.yul\":6738:6774   */\n      and\n        /* \"#utility.yul\":6722:6826   */\n      or\n        /* \"#utility.yul\":6719:6849   */\n      iszero\n      tag_163\n      jumpi\n        /* \"#utility.yul\":6829:6847   */\n      tag_164\n      tag_84\n      jump\t// in\n    tag_164:\n        /* \"#utility.yul\":6719:6849   */\n    tag_163:\n        /* \"#utility.yul\":6484:6856   */\n      swap3\n      swap2\n      pop\n      pop\n      jump\t// out\n        /* \"#utility.yul\":6862:7237   */\n    tag_54:\n        /* \"#utility.yul\":6901:6904   */\n      0x00\n        /* \"#utility.yul\":6920:6939   */\n      tag_166\n        /* \"#utility.yul\":6937:6938   */\n      dup3\n        /* \"#utility.yul\":6920:6939   */\n      tag_85\n      jump\t// in\n    tag_166:\n        /* \"#utility.yul\":6915:6939   */\n      swap2\n      pop\n        /* \"#utility.yul\":6953:6972   */\n      tag_167\n        /* \"#utility.yul\":6970:6971   */\n      dup4\n        /* \"#utility.yul\":6953:6972   */\n      tag_85\n      jump\t// in\n    tag_167:\n        /* \"#utility.yul\":6948:6972   */\n      swap3\n      pop\n        /* \"#utility.yul\":6995:6996   */\n      dup3\n        /* \"#utility.yul\":6992:6993   */\n      dup3\n        /* \"#utility.yul\":6988:6997   */\n      add\n        /* \"#utility.yul\":6981:6997   */\n      swap1\n      pop\n        /* \"#utility.yul\":7193:7194   */\n      dup3\n        /* \"#utility.yul\":7188:7191   */\n      dup2\n        /* \"#utility.yul\":7184:7195   */\n      slt\n        /* \"#utility.yul\":7177:7196   */\n      iszero\n        /* \"#utility.yul\":7173:7174   */\n      0x00\n        /* \"#utility.yul\":7170:7171   */\n      dup4\n        /* \"#utility.yul\":7166:7175   */\n      slt\n        /* \"#utility.yul\":7162:7197   */\n      and\n        /* \"#utility.yul\":7145:7146   */\n      dup4\n        /* \"#utility.yul\":7140:7143   */\n      dup3\n        /* \"#utility.yul\":7136:7147   */\n      slt\n        /* \"#utility.yul\":7131:7132   */\n      0x00\n        /* \"#utility.yul\":7128:7129   */\n      dup5\n        /* \"#utility.yul\":7124:7133   */\n      slt\n        /* \"#utility.yul\":7117:7134   */\n      iszero\n        /* \"#utility.yul\":7113:7148   */\n      and\n        /* \"#utility.yul\":7097:7207   */\n      or\n        /* \"#utility.yul\":7094:7230   */\n      iszero\n      tag_168\n      jumpi\n        /* \"#utility.yul\":7210:7228   */\n      tag_169\n      tag_84\n      jump\t// in\n    tag_169:\n        /* \"#utility.yul\":7094:7230   */\n    tag_168:\n        /* \"#utility.yul\":6862:7237   */\n      swap3\n      swap2\n      pop\n      pop\n      jump\t// out\n        /* \"#utility.yul\":7243:7474   */\n    tag_58:\n        /* \"#utility.yul\":7281:7284   */\n      0x00\n        /* \"#utility.yul\":7304:7327   */\n      tag_171\n        /* \"#utility.yul\":7321:7326   */\n      dup3\n        /* \"#utility.yul\":7304:7327   */\n      tag_85\n      jump\t// in\n    tag_171:\n        /* \"#utility.yul\":7295:7327   */\n      swap2\n      pop\n        /* \"#utility.yul\":7349:7415   */\n      0x8000000000000000000000000000000000000000000000000000000000000000\n        /* \"#utility.yul\":7342:7347   */\n      dup3\n        /* \"#utility.yul\":7339:7416   */\n      sub\n        /* \"#utility.yul\":7336:7439   */\n      tag_172\n      jumpi\n        /* \"#utility.yul\":7419:7437   */\n      tag_173\n      tag_84\n      jump\t// in\n    tag_173:\n        /* \"#utility.yul\":7336:7439   */\n    tag_172:\n        /* \"#utility.yul\":7466:7467   */\n      0x01\n        /* \"#utility.yul\":7459:7464   */\n      dup3\n        /* \"#utility.yul\":7455:7468   */\n      sub\n        /* \"#utility.yul\":7448:7468   */\n      swap1\n      pop\n        /* \"#utility.yul\":7243:7474   */\n      swap2\n      swap1\n      pop\n      jump\t// out\n\n    auxdata: 0xa2646970667358221220350ad3781b0855b7080a1a186e431b5763f89662f4719a585a62997440c16e0264736f6c634300081a0033\n}\n",
				"bytecode": {
					"linkReferences": {},
					"object": "6080604052348015600e575f80fd5b506107108061001c5f395ff3fe608060405234801561000f575f80fd5b5060043610610034575f3560e01c806331167a2c146100385780636297206f14610068575b5f80fd5b610052600480360381019061004d9190610437565b610098565b60405161005f9190610535565b60405180910390f35b610082600480360381019061007d9190610437565b610198565b60405161008f9190610535565b60405180910390f35b60605f600190505b825181101561018f575f8382815181106100bd576100bc610555565b5b602002602001015190505f8290505b600181101580156101025750846001826100e691906105af565b815181106100f7576100f6610555565b5b602002602001015182105b15610160578460018261011591906105af565b8151811061012657610125610555565b5b602002602001015185828151811061014157610140610555565b5b6020026020010181815250508080610158906105e2565b9150506100cc565b8185828151811061017457610173610555565b5b602002602001018181525050505080806001019150506100a0565b50819050919050565b60605f600190505b825181101561029a575f8382815181106101bd576101bc610555565b5b602002602001015190505f6001836101d59190610612565b90505b5f81121580156102015750818582815181106101f7576101f6610555565b5b6020026020010151115b1561025f5784818151811061021957610218610555565b5b60200260200101518560018361022f9190610652565b815181106102405761023f610555565b5b602002602001018181525050808061025790610693565b9150506101d8565b818560018361026e9190610652565b8151811061027f5761027e610555565b5b602002602001018181525050505080806001019150506101a0565b50819050919050565b5f604051905090565b5f80fd5b5f80fd5b5f80fd5b5f601f19601f8301169050919050565b7f4e487b71000000000000000000000000000000000000000000000000000000005f52604160045260245ffd5b6102fe826102b8565b810181811067ffffffffffffffff8211171561031d5761031c6102c8565b5b80604052505050565b5f61032f6102a3565b905061033b82826102f5565b919050565b5f67ffffffffffffffff82111561035a576103596102c8565b5b602082029050602081019050919050565b5f80fd5b5f819050919050565b6103818161036f565b811461038b575f80fd5b50565b5f8135905061039c81610378565b92915050565b5f6103b46103af84610340565b610326565b905080838252602082019050602084028301858111156103d7576103d661036b565b5b835b8181101561040057806103ec888261038e565b8452602084019350506020810190506103d9565b5050509392505050565b5f82601f83011261041e5761041d6102b4565b5b813561042e8482602086016103a2565b91505092915050565b5f6020828403121561044c5761044b6102ac565b5b5f82013567ffffffffffffffff811115610469576104686102b0565b5b6104758482850161040a565b91505092915050565b5f81519050919050565b5f82825260208201905092915050565b5f819050602082019050919050565b6104b08161036f565b82525050565b5f6104c183836104a7565b60208301905092915050565b5f602082019050919050565b5f6104e38261047e565b6104ed8185610488565b93506104f883610498565b805f5b8381101561052857815161050f88826104b6565b975061051a836104cd565b9250506001810190506104fb565b5085935050505092915050565b5f6020820190508181035f83015261054d81846104d9565b905092915050565b7f4e487b71000000000000000000000000000000000000000000000000000000005f52603260045260245ffd5b7f4e487b71000000000000000000000000000000000000000000000000000000005f52601160045260245ffd5b5f6105b98261036f565b91506105c48361036f565b92508282039050818111156105dc576105db610582565b5b92915050565b5f6105ec8261036f565b91505f82036105fe576105fd610582565b5b600182039050919050565b5f819050919050565b5f61061c82610609565b915061062783610609565b925082820390508181125f8412168282135f85121516171561064c5761064b610582565b5b92915050565b5f61065c82610609565b915061066783610609565b92508282019050828112155f8312168382125f84121516171561068d5761068c610582565b5b92915050565b5f61069d82610609565b91507f800000000000000000000000000000000000000000000000000000000000000082036106cf576106ce610582565b5b60018203905091905056fea2646970667358221220350ad3781b0855b7080a1a186e431b5763f89662f4719a585a62997440c16e0264736f6c634300081a0033",
					"opcodes": "PUSH1 0x80 PUSH1 0x40 MSTORE CALLVALUE DUP1 ISZERO PUSH1 0xE JUMPI PUSH0 DUP1 REVERT JUMPDEST POP PUSH2 0x710 DUP1 PUSH2 0x1C PUSH0 CODECOPY PUSH0 RETURN INVALID PUSH1 0x80 PUSH1 0x40 MSTORE CALLVALUE DUP1 ISZERO PUSH2 0xF JUMPI PUSH0 DUP1 REVERT JUMPDEST POP PUSH1 0x4 CALLDATASIZE LT PUSH2 0x34 JUMPI PUSH0 CALLDATALOAD PUSH1 0xE0 SHR DUP1 PUSH4 0x31167A2C EQ PUSH2 0x38 JUMPI DUP1 PUSH4 0x6297206F EQ PUSH2 0x68 JUMPI JUMPDEST PUSH0 DUP1 REVERT JUMPDEST PUSH2 0x52 PUSH1 0x4 DUP1 CALLDATASIZE SUB DUP2 ADD SWAP1 PUSH2 0x4D SWAP2 SWAP1 PUSH2 0x437 JUMP JUMPDEST PUSH2 0x98 JUMP JUMPDEST PUSH1 0x40 MLOAD PUSH2 0x5F SWAP2 SWAP1 PUSH2 0x535 JUMP JUMPDEST PUSH1 0x40 MLOAD DUP1 SWAP2 SUB SWAP1 RETURN JUMPDEST PUSH2 0x82 PUSH1 0x4 DUP1 CALLDATASIZE SUB DUP2 ADD SWAP1 PUSH2 0x7D SWAP2 SWAP1 PUSH2 0x437 JUMP JUMPDEST PUSH2 0x198 JUMP JUMPDEST PUSH1 0x40 MLOAD PUSH2 0x8F SWAP2 SWAP1 PUSH2 0x535 JUMP JUMPDEST PUSH1 0x40 MLOAD DUP1 SWAP2 SUB SWAP1 RETURN JUMPDEST PUSH1 0x60 PUSH0 PUSH1 0x1 SWAP1 POP JUMPDEST DUP3 MLOAD DUP2 LT ISZERO PUSH2 0x18F JUMPI PUSH0 DUP4 DUP3 DUP2 MLOAD DUP2 LT PUSH2 0xBD JUMPI PUSH2 0xBC PUSH2 0x555 JUMP JUMPDEST JUMPDEST PUSH1 0x20 MUL PUSH1 0x20 ADD ADD MLOAD SWAP1 POP PUSH0 DUP3 SWAP1 POP JUMPDEST PUSH1 0x1 DUP2 LT ISZERO DUP1 ISZERO PUSH2 0x102 JUMPI POP DUP5 PUSH1 0x1 DUP3 PUSH2 0xE6 SWAP2 SWAP1 PUSH2 0x5AF JUMP JUMPDEST DUP2 MLOAD DUP2 LT PUSH2 0xF7 JUMPI PUSH2 0xF6 PUSH2 0x555 JUMP JUMPDEST JUMPDEST PUSH1 0x20 MUL PUSH1 0x20 ADD ADD MLOAD DUP3 LT JUMPDEST ISZERO PUSH2 0x160 JUMPI DUP5 PUSH1 0x1 DUP3 PUSH2 0x115 SWAP2 SWAP1 PUSH2 0x5AF JUMP JUMPDEST DUP2 MLOAD DUP2 LT PUSH2 0x126 JUMPI PUSH2 0x125 PUSH2 0x555 JUMP JUMPDEST JUMPDEST PUSH1 0x20 MUL PUSH1 0x20 ADD ADD MLOAD DUP6 DUP3 DUP2 MLOAD DUP2 LT PUSH2 0x141 JUMPI PUSH2 0x140 PUSH2 0x555 JUMP JUMPDEST JUMPDEST PUSH1 0x20 MUL PUSH1 0x20 ADD ADD DUP2 DUP2 MSTORE POP POP DUP1 DUP1 PUSH2 0x158 SWAP1 PUSH2 0x5E2 JUMP JUMPDEST SWAP2 POP POP PUSH2 0xCC JUMP JUMPDEST DUP2 DUP6 DUP3 DUP2 MLOAD DUP2 LT PUSH2 0x174 JUMPI PUSH2 0x173 PUSH2 0x555 JUMP JUMPDEST JUMPDEST PUSH1 0x20 MUL PUSH1 0x20 ADD ADD DUP2 DUP2 MSTORE POP POP POP POP DUP1 DUP1 PUSH1 0x1 ADD SWAP2 POP POP PUSH2 0xA0 JUMP JUMPDEST POP DUP2 SWAP1 POP SWAP2 SWAP1 POP JUMP JUMPDEST PUSH1 0x60 PUSH0 PUSH1 0x1 SWAP1 POP JUMPDEST DUP3 MLOAD DUP2 LT ISZERO PUSH2 0x29A JUMPI PUSH0 DUP4 DUP3 DUP2 MLOAD DUP2 LT PUSH2 0x1BD JUMPI PUSH2 0x1BC PUSH2 0x555 JUMP JUMPDEST JUMPDEST PUSH1 0x20 MUL PUSH1 0x20 ADD ADD MLOAD SWAP1 POP PUSH0 PUSH1 0x1 DUP4 PUSH2 0x1D5 SWAP2 SWAP1 PUSH2 0x612 JUMP JUMPDEST SWAP1 POP JUMPDEST PUSH0 DUP2 SLT ISZERO DUP1 ISZERO PUSH2 0x201 JUMPI POP DUP2 DUP6 DUP3 DUP2 MLOAD DUP2 LT PUSH2 0x1F7 JUMPI PUSH2 0x1F6 PUSH2 0x555 JUMP JUMPDEST JUMPDEST PUSH1 0x20 MUL PUSH1 0x20 ADD ADD MLOAD GT JUMPDEST ISZERO PUSH2 0x25F JUMPI DUP5 DUP2 DUP2 MLOAD DUP2 LT PUSH2 0x219 JUMPI PUSH2 0x218 PUSH2 0x555 JUMP JUMPDEST JUMPDEST PUSH1 0x20 MUL PUSH1 0x20 ADD ADD MLOAD DUP6 PUSH1 0x1 DUP4 PUSH2 0x22F SWAP2 SWAP1 PUSH2 0x652 JUMP JUMPDEST DUP2 MLOAD DUP2 LT PUSH2 0x240 JUMPI PUSH2 0x23F PUSH2 0x555 JUMP JUMPDEST JUMPDEST PUSH1 0x20 MUL PUSH1 0x20 ADD ADD DUP2 DUP2 MSTORE POP POP DUP1 DUP1 PUSH2 0x257 SWAP1 PUSH2 0x693 JUMP JUMPDEST SWAP2 POP POP PUSH2 0x1D8 JUMP JUMPDEST DUP2 DUP6 PUSH1 0x1 DUP4 PUSH2 0x26E SWAP2 SWAP1 PUSH2 0x652 JUMP JUMPDEST DUP2 MLOAD DUP2 LT PUSH2 0x27F JUMPI PUSH2 0x27E PUSH2 0x555 JUMP JUMPDEST JUMPDEST PUSH1 0x20 MUL PUSH1 0x20 ADD ADD DUP2 DUP2 MSTORE POP POP POP POP DUP1 DUP1 PUSH1 0x1 ADD SWAP2 POP POP PUSH2 0x1A0 JUMP JUMPDEST POP DUP2 SWAP1 POP SWAP2 SWAP1 POP JUMP JUMPDEST PUSH0 PUSH1 0x40 MLOAD SWAP1 POP SWAP1 JUMP JUMPDEST PUSH0 DUP1 REVERT JUMPDEST PUSH0 DUP1 REVERT JUMPDEST PUSH0 DUP1 REVERT JUMPDEST PUSH0 PUSH1 0x1F NOT PUSH1 0x1F DUP4 ADD AND SWAP1 POP SWAP2 SWAP1 POP JUMP JUMPDEST PUSH32 0x4E487B7100000000000000000000000000000000000000000000000000000000 PUSH0 MSTORE PUSH1 0x41 PUSH1 0x4 MSTORE PUSH1 0x24 PUSH0 REVERT JUMPDEST PUSH2 0x2FE DUP3 PUSH2 0x2B8 JUMP JUMPDEST DUP2 ADD DUP2 DUP2 LT PUSH8 0xFFFFFFFFFFFFFFFF DUP3 GT OR ISZERO PUSH2 0x31D JUMPI PUSH2 0x31C PUSH2 0x2C8 JUMP JUMPDEST JUMPDEST DUP1 PUSH1 0x40 MSTORE POP POP POP JUMP JUMPDEST PUSH0 PUSH2 0x32F PUSH2 0x2A3 JUMP JUMPDEST SWAP1 POP PUSH2 0x33B DUP3 DUP3 PUSH2 0x2F5 JUMP JUMPDEST SWAP2 SWAP1 POP JUMP JUMPDEST PUSH0 PUSH8 0xFFFFFFFFFFFFFFFF DUP3 GT ISZERO PUSH2 0x35A JUMPI PUSH2 0x359 PUSH2 0x2C8 JUMP JUMPDEST JUMPDEST PUSH1 0x20 DUP3 MUL SWAP1 POP PUSH1 0x20 DUP2 ADD SWAP1 POP SWAP2 SWAP1 POP JUMP JUMPDEST PUSH0 DUP1 REVERT JUMPDEST PUSH0 DUP2 SWAP1 POP SWAP2 SWAP1 POP JUMP JUMPDEST PUSH2 0x381 DUP2 PUSH2 0x36F JUMP JUMPDEST DUP2 EQ PUSH2 0x38B JUMPI PUSH0 DUP1 REVERT JUMPDEST POP JUMP JUMPDEST PUSH0 DUP2 CALLDATALOAD SWAP1 POP PUSH2 0x39C DUP2 PUSH2 0x378 JUMP JUMPDEST SWAP3 SWAP2 POP POP JUMP JUMPDEST PUSH0 PUSH2 0x3B4 PUSH2 0x3AF DUP5 PUSH2 0x340 JUMP JUMPDEST PUSH2 0x326 JUMP JUMPDEST SWAP1 POP DUP1 DUP4 DUP3 MSTORE PUSH1 0x20 DUP3 ADD SWAP1 POP PUSH1 0x20 DUP5 MUL DUP4 ADD DUP6 DUP2 GT ISZERO PUSH2 0x3D7 JUMPI PUSH2 0x3D6 PUSH2 0x36B JUMP JUMPDEST JUMPDEST DUP4 JUMPDEST DUP2 DUP2 LT ISZERO PUSH2 0x400 JUMPI DUP1 PUSH2 0x3EC DUP9 DUP3 PUSH2 0x38E JUMP JUMPDEST DUP5 MSTORE PUSH1 0x20 DUP5 ADD SWAP4 POP POP PUSH1 0x20 DUP2 ADD SWAP1 POP PUSH2 0x3D9 JUMP JUMPDEST POP POP POP SWAP4 SWAP3 POP POP POP JUMP JUMPDEST PUSH0 DUP3 PUSH1 0x1F DUP4 ADD SLT PUSH2 0x41E JUMPI PUSH2 0x41D PUSH2 0x2B4 JUMP JUMPDEST JUMPDEST DUP2 CALLDATALOAD PUSH2 0x42E DUP5 DUP3 PUSH1 0x20 DUP7 ADD PUSH2 0x3A2 JUMP JUMPDEST SWAP2 POP POP SWAP3 SWAP2 POP POP JUMP JUMPDEST PUSH0 PUSH1 0x20 DUP3 DUP5 SUB SLT ISZERO PUSH2 0x44C JUMPI PUSH2 0x44B PUSH2 0x2AC JUMP JUMPDEST JUMPDEST PUSH0 DUP3 ADD CALLDATALOAD PUSH8 0xFFFFFFFFFFFFFFFF DUP2 GT ISZERO PUSH2 0x469 JUMPI PUSH2 0x468 PUSH2 0x2B0 JUMP JUMPDEST JUMPDEST PUSH2 0x475 DUP5 DUP3 DUP6 ADD PUSH2 0x40A JUMP JUMPDEST SWAP2 POP POP SWAP3 SWAP2 POP POP JUMP JUMPDEST PUSH0 DUP2 MLOAD SWAP1 POP SWAP2 SWAP1 POP JUMP JUMPDEST PUSH0 DUP3 DUP3 MSTORE PUSH1 0x20 DUP3 ADD SWAP1 POP SWAP3 SWAP2 POP POP JUMP JUMPDEST PUSH0 DUP2 SWAP1 POP PUSH1 0x20 DUP3 ADD SWAP1 POP SWAP2 SWAP1 POP JUMP JUMPDEST PUSH2 0x4B0 DUP2 PUSH2 0x36F JUMP JUMPDEST DUP3 MSTORE POP POP JUMP JUMPDEST PUSH0 PUSH2 0x4C1 DUP4 DUP4 PUSH2 0x4A7 JUMP JUMPDEST PUSH1 0x20 DUP4 ADD SWAP1 POP SWAP3 SWAP2 POP POP JUMP JUMPDEST PUSH0 PUSH1 0x20 DUP3 ADD SWAP1 POP SWAP2 SWAP1 POP JUMP JUMPDEST PUSH0 PUSH2 0x4E3 DUP3 PUSH2 0x47E JUMP JUMPDEST PUSH2 0x4ED DUP2 DUP6 PUSH2 0x488 JUMP JUMPDEST SWAP4 POP PUSH2 0x4F8 DUP4 PUSH2 0x498 JUMP JUMPDEST DUP1 PUSH0 JUMPDEST DUP4 DUP2 LT ISZERO PUSH2 0x528 JUMPI DUP2 MLOAD PUSH2 0x50F DUP9 DUP3 PUSH2 0x4B6 JUMP JUMPDEST SWAP8 POP PUSH2 0x51A DUP4 PUSH2 0x4CD JUMP JUMPDEST SWAP3 POP POP PUSH1 0x1 DUP2 ADD SWAP1 POP PUSH2 0x4FB JUMP JUMPDEST POP DUP6 SWAP4 POP POP POP POP SWAP3 SWAP2 POP POP JUMP JUMPDEST PUSH0 PUSH1 0x20 DUP3 ADD SWAP1 POP DUP2 DUP2 SUB PUSH0 DUP4 ADD MSTORE PUSH2 0x54D DUP2 DUP5 PUSH2 0x4D9 JUMP JUMPDEST SWAP1 POP SWAP3 SWAP2 POP POP JUMP JUMPDEST PUSH32 0x4E487B7100000000000000000000000000000000000000000000000000000000 PUSH0 MSTORE PUSH1 0x32 PUSH1 0x4 MSTORE PUSH1 0x24 PUSH0 REVERT JUMPDEST PUSH32 0x4E487B7100000000000000000000000000000000000000000000000000000000 PUSH0 MSTORE PUSH1 0x11 PUSH1 0x4 MSTORE PUSH1 0x24 PUSH0 REVERT JUMPDEST PUSH0 PUSH2 0x5B9 DUP3 PUSH2 0x36F JUMP JUMPDEST SWAP2 POP PUSH2 0x5C4 DUP4 PUSH2 0x36F JUMP JUMPDEST SWAP3 POP DUP3 DUP3 SUB SWAP1 POP DUP2 DUP2 GT ISZERO PUSH2 0x5DC JUMPI PUSH2 0x5DB PUSH2 0x582 JUMP JUMPDEST JUMPDEST SWAP3 SWAP2 POP POP JUMP JUMPDEST PUSH0 PUSH2 0x5EC DUP3 PUSH2 0x36F JUMP JUMPDEST SWAP2 POP PUSH0 DUP3 SUB PUSH2 0x5FE JUMPI PUSH2 0x5FD PUSH2 0x582 JUMP JUMPDEST JUMPDEST PUSH1 0x1 DUP3 SUB SWAP1 POP SWAP2 SWAP1 POP JUMP JUMPDEST PUSH0 DUP2 SWAP1 POP SWAP2 SWAP1 POP JUMP JUMPDEST PUSH0 PUSH2 0x61C DUP3 PUSH2 0x609 JUMP JUMPDEST SWAP2 POP PUSH2 0x627 DUP4 PUSH2 0x609 JUMP JUMPDEST SWAP3 POP DUP3 DUP3 SUB SWAP1 POP DUP2 DUP2 SLT PUSH0 DUP5 SLT AND DUP3 DUP3 SGT PUSH0 DUP6 SLT ISZERO AND OR ISZERO PUSH2 0x64C JUMPI PUSH2 0x64B PUSH2 0x582 JUMP JUMPDEST JUMPDEST SWAP3 SWAP2 POP POP JUMP JUMPDEST PUSH0 PUSH2 0x65C DUP3 PUSH2 0x609 JUMP JUMPDEST SWAP2 POP PUSH2 0x667 DUP4 PUSH2 0x609 JUMP JUMPDEST SWAP3 POP DUP3 DUP3 ADD SWAP1 POP DUP3 DUP2 SLT ISZERO PUSH0 DUP4 SLT AND DUP4 DUP3 SLT PUSH0 DUP5 SLT ISZERO AND OR ISZERO PUSH2 0x68D JUMPI PUSH2 0x68C PUSH2 0x582 JUMP JUMPDEST JUMPDEST SWAP3 SWAP2 POP POP JUMP JUMPDEST PUSH0 PUSH2 0x69D DUP3 PUSH2 0x609 JUMP JUMPDEST SWAP2 POP PUSH32 0x8000000000000000000000000000000000000000000000000000000000000000 DUP3 SUB PUSH2 0x6CF JUMPI PUSH2 0x6CE PUSH2 0x582 JUMP JUMPDEST JUMPDEST PUSH1 0x1 DUP3 SUB SWAP1 POP SWAP2 SWAP1 POP JUMP INVALID LOG2 PUSH5 0x6970667358 0x22 SLT KECCAK256 CALLDATALOAD EXP 0xD3 PUSH25 0x1B0855B7080A1A186E431B5763F89662F4719A585A62997440 0xC1 PUSH15 0x264736F6C634300081A0033000000 "
				},
				"gasEstimates": {
					"creation": {
						"codeDepositCost": "361600",
						"executionCost": "397",
						"totalCost": "361997"
					},
					"external": {
						"insertionSort(uint256[])": "infinite",
						"insertionSort2(uint256[])": "infinite"
					}
				},
				"methodIdentifiers": {
					"insertionSort(uint256[])": "6297206f",
					"insertionSort2(uint256[])": "31167a2c"
				}
			},
			"storageLayout": {
				"storage": [],
				"types": null
			},
			"userdoc": {
				"kind": "user",
				"methods": {},
				"version": 1
			}
		}
	}
}