{
	"data": {
		"bytecode": {
			"linkReferences": {},
			"object": "60e06040523480156200001157600080fd5b50604051620036813803806200368183398101604081905262000034916200020d565b833380600083620000458162000104565b506001600160a01b038216620000a25760405162461bcd60e51b815260206004820152601860248201527f43616e6e6f7420736574206f776e657220746f207a65726f000000000000000060448201526064015b60405180910390fd5b600580546001600160a01b0319166001600160a01b0384811691909117909155811615620000d557620000d58162000116565b5050600160095550506001600160a01b03928316608052911660a0526001600160401b031660c0525062000477565b6002620001128282620003ab565b5050565b336001600160a01b03821603620001705760405162461bcd60e51b815260206004820152601760248201527f43616e6e6f74207472616e7366657220746f2073656c66000000000000000000604482015260640162000099565b600680546001600160a01b0319166001600160a01b03838116918217909255600554604051919216907fed8889f560326eb138920d842192f0eb3dd22b4f139c87a2c57538e05bae127890600090a350565b634e487b7160e01b600052604160045260246000fd5b80516001600160a01b0381168114620001f057600080fd5b919050565b80516001600160401b0381168114620001f057600080fd5b600080600080608085870312156200022457600080fd5b84516001600160401b03808211156200023c57600080fd5b818701915087601f8301126200025157600080fd5b815181811115620002665762000266620001c2565b604051601f8201601f19908116603f01168101908382118183101715620002915762000291620001c2565b81604052828152602093508a84848701011115620002ae57600080fd5b600091505b82821015620002d25784820184015181830185015290830190620002b3565b6000848483010152809850505050620002ed818801620001d8565b94505050620002ff60408601620001d8565b91506200030f60608601620001f5565b905092959194509250565b600181811c908216806200032f57607f821691505b6020821081036200035057634e487b7160e01b600052602260045260246000fd5b50919050565b601f821115620003a6576000816000526020600020601f850160051c81016020861015620003815750805b601f850160051c820191505b81811015620003a2578281556001016200038d565b5050505b505050565b81516001600160401b03811115620003c757620003c7620001c2565b620003df81620003d884546200031a565b8462000356565b602080601f831160018114620004175760008415620003fe5750858301515b600019600386901b1c1916600185901b178555620003a2565b600085815260208120601f198616915b82811015620004485788860151825594840194600190910190840162000427565b5085821015620004675787850151600019600388901b60f8161c191681555b5050505050600190811b01905550565b60805160a05160c051613194620004ed6000396000818161043301528181610c4a01528181610dbf01526113f901526000818161074b015281816108f00152818161097f0152610a5c01526000818161083301528181610a2d01528181610ae101528181610ba3015261126701526131946000f3fe608060405234801561001057600080fd5b506004361061018d5760003560e01c80635dc5ebdb116100de578063b942f8cb11610097578063e985e9c511610071578063e985e9c51461038f578063f242432a146103a2578063f2fde38b146103b5578063f5298aca146103c857600080fd5b8063b942f8cb14610349578063bd85b0391461035c578063c1341c4f1461037c57600080fd5b80635dc5ebdb146102cc5780636b20c454146102ed57806379ba50971461030057806385572ffb146103085780638da5cb5b1461031b578063a22cb4651461033657600080fd5b80632eb2c2d61161014b5780634e1273f4116101255780634e1273f4146102645780634f558e791461028457806351cff8d9146102a657806355cc4e57146102b957600080fd5b80632eb2c2d61461022b5780633aeac4e11461023e57806341eade461461025157600080fd5b8062fdd58e1461019257806301ffc9a7146101b85780630ce639c4146101db5780630e89341c146101f057806318160ddd14610210578063240b3b4914610218575b600080fd5b6101a56101a036600461234f565b6103db565b6040519081526020015b60405180910390f35b6101cb6101c6366004612391565b610403565b60405190151581526020016101af565b6101ee6101e936600461247f565b610428565b005b6102036101fe3660046124de565b610537565b6040516101af9190612547565b6004546101a5565b6101a561022636600461255a565b6105f5565b6101ee61023936600461268a565b610c9e565b6101ee61024c366004612737565b610d05565b6101ee61025f366004612770565b610db4565b61027761027236600461278b565b610e90565b6040516101af9190612888565b6101cb6102923660046124de565b600090815260036020526040902054151590565b6101ee6102b436600461289b565b610f5c565b6101ee6102c736600461289b565b611013565b6102df6102da366004612770565b611065565b6040516101af9291906128b8565b6101ee6102fb3660046128e4565b611114565b6101ee6111ae565b6101ee61031636600461294f565b61125c565b6005546040516001600160a01b0390911681526020016101af565b6101ee610344366004612997565b61144a565b6101ee6103573660046129c5565b611459565b6101a561036a3660046124de565b60009081526003602052604090205490565b6101ee61038a366004612af8565b611507565b6101cb61039d366004612737565b611566565b6101ee6103b0366004612b51565b611594565b6101ee6103c336600461289b565b6115f3565b6101ee6103d6366004612bb9565b611604565b6000818152602081815260408083206001600160a01b03861684529091529020545b92915050565b60006001600160e01b031982166385572ffb60e01b14806103fd57506103fd82611675565b6104306116c5565b827f00000000000000000000000000000000000000000000000000000000000000006001600160401b0316816001600160401b031603610493576040516340d8e3a160e01b81526001600160401b03821660048201526024015b60405180910390fd5b6040805180820182526001600160a01b03858116825260208083018681526001600160401b0389166000908152600a909252939020825181546001600160a01b0319169216919091178155915190919060018201906104f29082612c70565b509050507f59cc0b49d3359ac35e3872e99199469b6a1025c9a945cd9b6a411bffe337272d84848460405161052993929190612d2f565b60405180910390a150505050565b60008181526008602052604081208054606092919061055590612bee565b80601f016020809104026020016040519081016040528092919081815260200182805461058190612bee565b80156105ce5780601f106105a3576101008083540402835291602001916105ce565b820191906000526020600020905b8154815290600101906020018083116105b157829003601f168201915b5050505050905060008151116105ec576105e78361171a565b6105ee565b805b9392505050565b60006105ff6117ae565b6001600160401b0383166000908152600a602052604090205483906001600160a01b031661064b57604051630e19fdf760e11b81526001600160401b038216600482015260240161048a565b600061065688610537565b90506106638a8989611604565b6040805160a0810182526001600160401b0387166000908152600a602052918220546001600160a01b031660c08201528060e0810160405160208183030381529060405281526020018c8c8c8c8c886040516020016106c796959493929190612d6b565b60408051601f198184030181529190528152602001600060405190808252806020026020018201604052801561072357816020015b60408051808201909152600080825260208201528152602001906001900390816106fc5790505b508152602001600187600181111561073d5761073d612dc4565b1461074957600061076b565b7f00000000000000000000000000000000000000000000000000000000000000005b6001600160a01b03168152602001600a6000896001600160401b03166001600160401b0316815260200190815260200160002060010180546107ac90612bee565b80601f01602080910402602001604051908101604052809291908181526020018280546107d890612bee565b80156108255780601f106107fa57610100808354040283529160200191610825565b820191906000526020600020905b81548152906001019060200180831161080857829003601f168201915b5050505050815250905060007f00000000000000000000000000000000000000000000000000000000000000006001600160a01b03166320487ded88846040518363ffffffff1660e01b815260040161087f929190612dda565b602060405180830381865afa15801561089c573d6000803e3d6000fd5b505050506040513d601f19601f820116820180604052508101906108c09190612eb6565b905060018660018111156108d6576108d6612dc4565b03610b62576040516370a0823160e01b81523060048201527f00000000000000000000000000000000000000000000000000000000000000006001600160a01b0316906370a0823190602401602060405180830381865afa15801561093f573d6000803e3d6000fd5b505050506040513d601f19601f820116820180604052508101906109639190612eb6565b811115610a16576040516370a0823160e01b81523060048201527f00000000000000000000000000000000000000000000000000000000000000006001600160a01b0316906370a0823190602401602060405180830381865afa1580156109ce573d6000803e3d6000fd5b505050506040513d601f19601f820116820180604052508101906109f29190612eb6565b6040516328fdcaa160e01b815260048101919091526024810182905260440161048a565b60405163095ea7b360e01b81526001600160a01b037f000000000000000000000000000000000000000000000000000000000000000081166004830152602482018390527f0000000000000000000000000000000000000000000000000000000000000000169063095ea7b3906044016020604051808303816000875af1158015610aa5573d6000803e3d6000fd5b505050506040513d601f19601f82011682018060405250810190610ac99190612ecf565b506040516396f4e9f960e01b81526001600160a01b037f000000000000000000000000000000000000000000000000000000000000000016906396f4e9f990610b18908a908690600401612dda565b6020604051808303816000875af1158015610b37573d6000803e3d6000fd5b505050506040513d601f19601f82011682018060405250810190610b5b9190612eb6565b9450610c22565b47811115610b8c576040516328fdcaa160e01b81524760048201526024810182905260440161048a565b6040516396f4e9f960e01b81526001600160a01b037f000000000000000000000000000000000000000000000000000000000000000016906396f4e9f9908390610bdc908b908790600401612dda565b60206040518083038185885af1158015610bfa573d6000803e3d6000fd5b50505050506040513d601f19601f82011682018060405250810190610c1f9190612eb6565b94505b7f300e6c20d2e9d8db9b2df40ebce943d9dae3fa3a8eaec841a3d1cb9a1e8b6ad78c8c8c8c8c7f00000000000000000000000000000000000000000000000000000000000000008d604051610c7d9796959493929190612eec565b60405180910390a150505050610c936001600955565b979650505050505050565b336001600160a01b0386168114801590610cbf5750610cbd8682611566565b155b15610cf05760405163711bec9160e11b81526001600160a01b0380831660048301528716602482015260440161048a565b610cfd86868686866117d8565b505050505050565b610d0d6116c5565b6040516370a0823160e01b81523060048201526000906001600160a01b038316906370a0823190602401602060405180830381865afa158015610d54573d6000803e3d6000fd5b505050506040513d601f19601f82011682018060405250810190610d789190612eb6565b905080600003610d9b57604051630686827b60e51b815260040160405180910390fd5b610daf6001600160a01b038316848361183f565b505050565b610dbc6116c5565b807f00000000000000000000000000000000000000000000000000000000000000006001600160401b0316816001600160401b031603610e1a576040516340d8e3a160e01b81526001600160401b038216600482015260240161048a565b6001600160401b0382166000908152600a6020526040812080546001600160a01b031916815590610e4e60018301826122ec565b50506040516001600160401b03831681527f67e02000179a6045f4db8fb1b09f01e170b0347e0b698fc5112ce4d798ef19f69060200160405180910390a15050565b60608151835114610ec15781518351604051635b05999160e01b81526004810192909252602482015260440161048a565b600083516001600160401b03811115610edc57610edc6123ca565b604051908082528060200260200182016040528015610f05578160200160208202803683370190505b50905060005b8451811015610f5457602080820286010151610f2f906020808402870101516103db565b828281518110610f4157610f41612f4a565b6020908102919091010152600101610f0b565b509392505050565b610f646116c5565b476000819003610f8757604051630686827b60e51b815260040160405180910390fd5b6000826001600160a01b03168260405160006040518083038185875af1925050503d8060008114610fd4576040519150601f19603f3d011682016040523d82523d6000602084013e610fd9565b606091505b5050905080610daf57604051639d11f56360e01b81523360048201526001600160a01b03841660248201526044810183905260640161048a565b61101b6116c5565b600780546001600160a01b0319166001600160a01b0383169081179091556040517fd56ed7b1c1110348b1fbf418469f6fc4acc32d9b675e9e1e448cc19169a64ca090600090a250565b600a60205260009081526040902080546001820180546001600160a01b03909216929161109190612bee565b80601f01602080910402602001604051908101604052809291908181526020018280546110bd90612bee565b801561110a5780601f106110df5761010080835404028352916020019161110a565b820191906000526020600020905b8154815290600101906020018083116110ed57829003601f168201915b5050505050905082565b33301480159061112f57506007546001600160a01b03163314155b1561114f57604051637725137960e11b815233600482015260240161048a565b6001600160a01b038316331480159061116f575061116d8333611566565b155b156111a357335b60405163711bec9160e11b81526001600160a01b039182166004820152908416602482015260440161048a565b610daf838383611891565b6006546001600160a01b031633146112015760405162461bcd60e51b815260206004820152601660248201527526bab9ba10313290383937b837b9b2b21037bbb732b960511b604482015260640161048a565b600580546001600160a01b0319808216339081179093556006805490911690556040516001600160a01b03909116919082907f8be0079c531659141344cd1fd0a4f28419497f9722a3daafe3b4186f6b6457e090600090a350565b336001600160a01b037f000000000000000000000000000000000000000000000000000000000000000016146112a7576040516335fdcccd60e21b815233600482015260240161048a565b6112af6117ae565b6112bf6040820160208301612770565b6001600160401b0381166000908152600a60205260409020546001600160a01b031661130957604051630e19fdf760e11b81526001600160401b038216600482015260240161048a565b6113196040830160208401612770565b6113266040840184612f60565b810190611333919061289b565b6001600160401b0382166000908152600a60205260409020546001600160a01b038281169116146113825760405163baf46cd160e01b81526001600160a01b038216600482015260240161048a565b60006113946040860160208701612770565b9050600080808080806113aa60608c018c612f60565b8101906113b79190612fad565b9550955095509550955095506113d08585858585611507565b7f8a69e2b5fbcc69a1f5d6326fb26db5bc43cd18d09d2e79a48a50b77da16432f986868686868c7f000000000000000000000000000000000000000000000000000000000000000060405161142b9796959493929190612eec565b60405180910390a1505050505050505050506114476001600955565b50565b6114553383836118d7565b5050565b33301480159061147457506007546001600160a01b03163314155b1561149457604051637725137960e11b815233600482015260240161048a565b6114a08585858561196d565b60005b8451811015610cfd578181815181106114be576114be612f4a565b6020026020010151600860008784815181106114dc576114dc612f4a565b6020026020010151815260200190815260200160002090816114fe9190612c70565b506001016114a3565b33301480159061152257506007546001600160a01b03163314155b1561154257604051637725137960e11b815233600482015260240161048a565b61154e858585856119ab565b6000848152600860205260409020610cfd8282612c70565b6001600160a01b03918216600090815260016020908152604080832093909416825291909152205460ff1690565b336001600160a01b03861681148015906115b557506115b38682611566565b155b156115e65760405163711bec9160e11b81526001600160a01b0380831660048301528716602482015260440161048a565b610cfd8686868686611a08565b6115fb6116c5565b61144781611a96565b33301480159061161f57506007546001600160a01b03163314155b1561163f57604051637725137960e11b815233600482015260240161048a565b6001600160a01b038316331480159061165f575061165d8333611566565b155b1561166a5733611176565b610daf838383611b40565b60006001600160e01b03198216636cdb3d1360e11b14806116a657506001600160e01b031982166303a24d0760e21b145b806103fd57506301ffc9a760e01b6001600160e01b03198316146103fd565b6005546001600160a01b031633146117185760405162461bcd60e51b815260206004820152601660248201527527b7363c9031b0b63630b1363290313c9037bbb732b960511b604482015260640161048a565b565b60606002805461172990612bee565b80601f016020809104026020016040519081016040528092919081815260200182805461175590612bee565b80156117a25780601f10611777576101008083540402835291602001916117a2565b820191906000526020600020905b81548152906001019060200180831161178557829003601f168201915b50505050509050919050565b6002600954036117d157604051633ee5aeb560e01b815260040160405180910390fd5b6002600955565b6001600160a01b03841661180257604051632bfa23e760e11b81526000600482015260240161048a565b6001600160a01b03851661182b57604051626a0d4560e21b81526000600482015260240161048a565b6118388585858585611ba4565b5050505050565b604080516001600160a01b038416602482015260448082018490528251808303909101815260649091019091526020810180516001600160e01b031663a9059cbb60e01b179052610daf908490611bf7565b6001600160a01b0383166118ba57604051626a0d4560e21b81526000600482015260240161048a565b610daf836000848460405180602001604052806000815250611ba4565b6001600160a01b0382166119005760405162ced3e160e81b81526000600482015260240161048a565b6001600160a01b03838116600081815260016020908152604080832094871680845294825291829020805460ff191686151590811790915591519182527f17307eab39ab6107e8899845ad3d59bd9653f200f220920489ca2b5937696c31910160405180910390a3505050565b6001600160a01b03841661199757604051632bfa23e760e11b81526000600482015260240161048a565b6119a5600085858585611ba4565b50505050565b6001600160a01b0384166119d557604051632bfa23e760e11b81526000600482015260240161048a565b60408051600180825260208201869052818301908152606082018590526080820190925290610cfd600087848487611ba4565b6001600160a01b038416611a3257604051632bfa23e760e11b81526000600482015260240161048a565b6001600160a01b038516611a5b57604051626a0d4560e21b81526000600482015260240161048a565b60408051600180825260208201869052818301908152606082018590526080820190925290611a8d8787848487611ba4565b50505050505050565b336001600160a01b03821603611aee5760405162461bcd60e51b815260206004820152601760248201527f43616e6e6f74207472616e7366657220746f2073656c66000000000000000000604482015260640161048a565b600680546001600160a01b0319166001600160a01b03838116918217909255600554604051919216907fed8889f560326eb138920d842192f0eb3dd22b4f139c87a2c57538e05bae127890600090a350565b6001600160a01b038316611b6957604051626a0d4560e21b81526000600482015260240161048a565b604080516001808252602082018590528183019081526060820184905260a08201909252600060808201818152919291611838918791859085905b611bb085858585611c5a565b6001600160a01b038416156118385782513390600103611be95760208481015190840151611be2838989858589611da0565b5050610cfd565b610cfd818787878787611ec4565b6000611c0c6001600160a01b03841683611fad565b90508051600014158015611c31575080806020019051810190611c2f9190612ecf565b155b15610daf57604051635274afe760e01b81526001600160a01b038416600482015260240161048a565b611c6684848484611fbb565b6001600160a01b038416611d10576000805b8351811015611cf6576000838281518110611c9557611c95612f4a565b602002602001015190508060036000878581518110611cb657611cb6612f4a565b602002602001015181526020019081526020016000206000828254611cdb9190613047565b90915550611ceb90508184613047565b925050600101611c78565b508060046000828254611d099190613047565b9091555050505b6001600160a01b0383166119a5576000805b8351811015611d8f576000838281518110611d3f57611d3f612f4a565b602002602001015190508060036000878581518110611d6057611d60612f4a565b602090810291909101810151825281019190915260400160002080549190910390559190910190600101611d22565b506004805491909103905550505050565b6001600160a01b0384163b15610cfd5760405163f23a6e6160e01b81526001600160a01b0385169063f23a6e6190611de49089908990889088908890600401613068565b6020604051808303816000875af1925050508015611e1f575060408051601f3d908101601f19168201909252611e1c918101906130a2565b60015b611e88573d808015611e4d576040519150601f19603f3d011682016040523d82523d6000602084013e611e52565b606091505b508051600003611e8057604051632bfa23e760e11b81526001600160a01b038616600482015260240161048a565b805181602001fd5b6001600160e01b0319811663f23a6e6160e01b14611a8d57604051632bfa23e760e11b81526001600160a01b038616600482015260240161048a565b6001600160a01b0384163b15610cfd5760405163bc197c8160e01b81526001600160a01b0385169063bc197c8190611f0890899089908890889088906004016130bf565b6020604051808303816000875af1925050508015611f43575060408051601f3d908101601f19168201909252611f40918101906130a2565b60015b611f71573d808015611e4d576040519150601f19603f3d011682016040523d82523d6000602084013e611e52565b6001600160e01b0319811663bc197c8160e01b14611a8d57604051632bfa23e760e11b81526001600160a01b038616600482015260240161048a565b60606105ee838360006121cf565b8051825114611fea5781518151604051635b05999160e01b81526004810192909252602482015260440161048a565b3360005b83518110156120f0576020818102858101820151908501909101516001600160a01b038816156120a1576000828152602081815260408083206001600160a01b038c1684529091529020548181101561207a576040516303dee4c560e01b81526001600160a01b038a16600482015260248101829052604481018390526064810184905260840161048a565b6000838152602081815260408083206001600160a01b038d16845290915290209082900390555b6001600160a01b038716156120e6576000828152602081815260408083206001600160a01b038b168452909152812080548392906120e0908490613047565b90915550505b5050600101611fee565b5082516001036121715760208301516000906020840151909150856001600160a01b0316876001600160a01b0316846001600160a01b03167fc3d58168c5ae7397731d063d5bbf3d657854427343f4c083240f7aacaa2d0f628585604051612162929190918252602082015260400190565b60405180910390a45050611838565b836001600160a01b0316856001600160a01b0316826001600160a01b03167f4a39dc06d4c0dbc64b70af90fd698a233a518aa5d07e595d983b8c0526c8f7fb86866040516121c092919061311d565b60405180910390a45050505050565b6060814710156121f45760405163cd78605960e01b815230600482015260240161048a565b600080856001600160a01b031684866040516122109190613142565b60006040518083038185875af1925050503d806000811461224d576040519150601f19603f3d011682016040523d82523d6000602084013e612252565b606091505b509150915061226286838361226c565b9695505050505050565b60608261227c576105e7826122c3565b815115801561229357506001600160a01b0384163b155b156122bc57604051639996b31560e01b81526001600160a01b038516600482015260240161048a565b50806105ee565b8051156122d35780518082602001fd5b604051630a12f52160e11b815260040160405180910390fd5b5080546122f890612bee565b6000825580601f10612308575050565b601f01602090049060005260206000209081019061144791905b808211156123365760008155600101612322565b5090565b6001600160a01b038116811461144757600080fd5b6000806040838503121561236257600080fd5b823561236d8161233a565b946020939093013593505050565b6001600160e01b03198116811461144757600080fd5b6000602082840312156123a357600080fd5b81356105ee8161237b565b80356001600160401b03811681146123c557600080fd5b919050565b634e487b7160e01b600052604160045260246000fd5b604051601f8201601f191681016001600160401b0381118282101715612408576124086123ca565b604052919050565b600082601f83011261242157600080fd5b81356001600160401b0381111561243a5761243a6123ca565b61244d601f8201601f19166020016123e0565b81815284602083860101111561246257600080fd5b816020850160208301376000918101602001919091529392505050565b60008060006060848603121561249457600080fd5b61249d846123ae565b925060208401356124ad8161233a565b915060408401356001600160401b038111156124c857600080fd5b6124d486828701612410565b9150509250925092565b6000602082840312156124f057600080fd5b5035919050565b60005b838110156125125781810151838201526020016124fa565b50506000910152565b600081518084526125338160208601602086016124f7565b601f01601f19169290920160200192915050565b6020815260006105ee602083018461251b565b600080600080600080600060e0888a03121561257557600080fd5b87356125808161233a565b965060208801356125908161233a565b9550604088013594506060880135935060808801356001600160401b038111156125b957600080fd5b6125c58a828b01612410565b9350506125d460a089016123ae565b915060c0880135600281106125e857600080fd5b8091505092959891949750929550565b60006001600160401b03821115612611576126116123ca565b5060051b60200190565b600082601f83011261262c57600080fd5b8135602061264161263c836125f8565b6123e0565b8083825260208201915060208460051b87010193508684111561266357600080fd5b602086015b8481101561267f5780358352918301918301612668565b509695505050505050565b600080600080600060a086880312156126a257600080fd5b85356126ad8161233a565b945060208601356126bd8161233a565b935060408601356001600160401b03808211156126d957600080fd5b6126e589838a0161261b565b945060608801359150808211156126fb57600080fd5b61270789838a0161261b565b9350608088013591508082111561271d57600080fd5b5061272a88828901612410565b9150509295509295909350565b6000806040838503121561274a57600080fd5b82356127558161233a565b915060208301356127658161233a565b809150509250929050565b60006020828403121561278257600080fd5b6105ee826123ae565b6000806040838503121561279e57600080fd5b82356001600160401b03808211156127b557600080fd5b818501915085601f8301126127c957600080fd5b813560206127d961263c836125f8565b82815260059290921b840181019181810190898411156127f857600080fd5b948201945b8386101561281f5785356128108161233a565b825294820194908201906127fd565b9650508601359250508082111561283557600080fd5b506128428582860161261b565b9150509250929050565b60008151808452602080850194506020840160005b8381101561287d57815187529582019590820190600101612861565b509495945050505050565b6020815260006105ee602083018461284c565b6000602082840312156128ad57600080fd5b81356105ee8161233a565b6001600160a01b03831681526040602082018190526000906128dc9083018461251b565b949350505050565b6000806000606084860312156128f957600080fd5b83356129048161233a565b925060208401356001600160401b038082111561292057600080fd5b61292c8783880161261b565b9350604086013591508082111561294257600080fd5b506124d48682870161261b565b60006020828403121561296157600080fd5b81356001600160401b0381111561297757600080fd5b820160a081850312156105ee57600080fd5b801515811461144757600080fd5b600080604083850312156129aa57600080fd5b82356129b58161233a565b9150602083013561276581612989565b600080600080600060a086880312156129dd57600080fd5b85356129e88161233a565b94506020868101356001600160401b0380821115612a0557600080fd5b612a118a838b0161261b565b96506040890135915080821115612a2757600080fd5b612a338a838b0161261b565b95506060890135915080821115612a4957600080fd5b612a558a838b01612410565b94506080890135915080821115612a6b57600080fd5b818901915089601f830112612a7f57600080fd5b8135612a8d61263c826125f8565b81815260059190911b8301840190848101908c831115612aac57600080fd5b8585015b83811015612ae457803585811115612ac85760008081fd5b612ad68f89838a0101612410565b845250918601918601612ab0565b508096505050505050509295509295909350565b600080600080600060a08688031215612b1057600080fd5b8535612b1b8161233a565b9450602086013593506040860135925060608601356001600160401b0380821115612b4557600080fd5b61270789838a01612410565b600080600080600060a08688031215612b6957600080fd5b8535612b748161233a565b94506020860135612b848161233a565b9350604086013592506060860135915060808601356001600160401b03811115612bad57600080fd5b61272a88828901612410565b600080600060608486031215612bce57600080fd5b8335612bd98161233a565b95602085013595506040909401359392505050565b600181811c90821680612c0257607f821691505b602082108103612c2257634e487b7160e01b600052602260045260246000fd5b50919050565b601f821115610daf576000816000526020600020601f850160051c81016020861015612c515750805b601f850160051c820191505b81811015610cfd57828155600101612c5d565b81516001600160401b03811115612c8957612c896123ca565b612c9d81612c978454612bee565b84612c28565b602080601f831160018114612cd25760008415612cba5750858301515b600019600386901b1c1916600185901b178555610cfd565b600085815260208120601f198616915b82811015612d0157888601518255948401946001909101908401612ce2565b5085821015612d1f5787850151600019600388901b60f8161c191681555b5050505050600190811b01905550565b6001600160401b03841681526001600160a01b0383166020820152606060408201819052600090612d629083018461251b565b95945050505050565b6001600160a01b03878116825286166020820152604081018590526060810184905260c060808201819052600090612da59083018561251b565b82810360a0840152612db7818561251b565b9998505050505050505050565b634e487b7160e01b600052602160045260246000fd5b600060406001600160401b03851683526020604081850152845160a06040860152612e0860e086018261251b565b905081860151603f1980878403016060880152612e25838361251b565b6040890151888203830160808a01528051808352908601945060009350908501905b80841015612e7957845180516001600160a01b0316835286015186830152938501936001939093019290860190612e47565b5060608901516001600160a01b031660a08901526080890151888203830160c08a01529550612ea8818761251b565b9a9950505050505050505050565b600060208284031215612ec857600080fd5b5051919050565b600060208284031215612ee157600080fd5b81516105ee81612989565b6001600160a01b03888116825287166020820152604081018690526060810185905260e060808201819052600090612f269083018661251b565b6001600160401b0394851660a08401529290931660c0909101529695505050505050565b634e487b7160e01b600052603260045260246000fd5b6000808335601e19843603018112612f7757600080fd5b8301803591506001600160401b03821115612f9157600080fd5b602001915036819003821315612fa657600080fd5b9250929050565b60008060008060008060c08789031215612fc657600080fd5b8635612fd18161233a565b95506020870135612fe18161233a565b9450604087013593506060870135925060808701356001600160401b038082111561300b57600080fd5b6130178a838b01612410565b935060a089013591508082111561302d57600080fd5b5061303a89828a01612410565b9150509295509295509295565b808201808211156103fd57634e487b7160e01b600052601160045260246000fd5b6001600160a01b03868116825285166020820152604081018490526060810183905260a060808201819052600090610c939083018461251b565b6000602082840312156130b457600080fd5b81516105ee8161237b565b6001600160a01b0386811682528516602082015260a0604082018190526000906130eb9083018661284c565b82810360608401526130fd818661284c565b90508281036080840152613111818561251b565b98975050505050505050565b604081526000613130604083018561284c565b8281036020840152612d62818561284c565b600082516131548184602087016124f7565b919091019291505056fea26469706673582212205476b0cb3f2030d276e7099cb75e2d211fced331383d1d8ed7e58db0a22edec764736f6c63430008180033",
			"opcodes": "PUSH1 0xE0 PUSH1 0x40 MSTORE CALLVALUE DUP1 ISZERO PUSH3 0x11 JUMPI PUSH1 0x0 DUP1 REVERT JUMPDEST POP PUSH1 0x40 MLOAD PUSH3 0x3681 CODESIZE SUB DUP1 PUSH3 0x3681 DUP4 CODECOPY DUP2 ADD PUSH1 0x40 DUP2 SWAP1 MSTORE PUSH3 0x34 SWAP2 PUSH3 0x20D JUMP JUMPDEST DUP4 CALLER DUP1 PUSH1 0x0 DUP4 PUSH3 0x45 DUP2 PUSH3 0x104 JUMP JUMPDEST POP PUSH1 0x1 PUSH1 0x1 PUSH1 0xA0 SHL SUB DUP3 AND PUSH3 0xA2 JUMPI PUSH1 0x40 MLOAD PUSH3 0x461BCD PUSH1 0xE5 SHL DUP2 MSTORE PUSH1 0x20 PUSH1 0x4 DUP3 ADD MSTORE PUSH1 0x18 PUSH1 0x24 DUP3 ADD MSTORE PUSH32 0x43616E6E6F7420736574206F776E657220746F207A65726F0000000000000000 PUSH1 0x44 DUP3 ADD MSTORE PUSH1 0x64 ADD JUMPDEST PUSH1 0x40 MLOAD DUP1 SWAP2 SUB SWAP1 REVERT JUMPDEST PUSH1 0x5 DUP1 SLOAD PUSH1 0x1 PUSH1 0x1 PUSH1 0xA0 SHL SUB NOT AND PUSH1 0x1 PUSH1 0x1 PUSH1 0xA0 SHL SUB DUP5 DUP2 AND SWAP2 SWAP1 SWAP2 OR SWAP1 SWAP2 SSTORE DUP2 AND ISZERO PUSH3 0xD5 JUMPI PUSH3 0xD5 DUP2 PUSH3 0x116 JUMP JUMPDEST POP POP PUSH1 0x1 PUSH1 0x9 SSTORE POP POP PUSH1 0x1 PUSH1 0x1 PUSH1 0xA0 SHL SUB SWAP3 DUP4 AND PUSH1 0x80 MSTORE SWAP2 AND PUSH1 0xA0 MSTORE PUSH1 0x1 PUSH1 0x1 PUSH1 0x40 SHL SUB AND PUSH1 0xC0 MSTORE POP PUSH3 0x477 JUMP JUMPDEST PUSH1 0x2 PUSH3 0x112 DUP3 DUP3 PUSH3 0x3AB JUMP JUMPDEST POP POP JUMP JUMPDEST CALLER PUSH1 0x1 PUSH1 0x1 PUSH1 0xA0 SHL SUB DUP3 AND SUB PUSH3 0x170 JUMPI PUSH1 0x40 MLOAD PUSH3 0x461BCD PUSH1 0xE5 SHL DUP2 MSTORE PUSH1 0x20 PUSH1 0x4 DUP3 ADD MSTORE PUSH1 0x17 PUSH1 0x24 DUP3 ADD MSTORE PUSH32 0x43616E6E6F74207472616E7366657220746F2073656C66000000000000000000 PUSH1 0x44 DUP3 ADD MSTORE PUSH1 0x64 ADD PUSH3 0x99 JUMP JUMPDEST PUSH1 0x6 DUP1 SLOAD PUSH1 0x1 PUSH1 0x1 PUSH1 0xA0 SHL SUB NOT AND PUSH1 0x1 PUSH1 0x1 PUSH1 0xA0 SHL SUB DUP4 DUP2 AND SWAP2 DUP3 OR SWAP1 SWAP3 SSTORE PUSH1 0x5 SLOAD PUSH1 0x40 MLOAD SWAP2 SWAP3 AND SWAP1 PUSH32 0xED8889F560326EB138920D842192F0EB3DD22B4F139C87A2C57538E05BAE1278 SWAP1 PUSH1 0x0 SWAP1 LOG3 POP JUMP JUMPDEST PUSH4 0x4E487B71 PUSH1 0xE0 SHL PUSH1 0x0 MSTORE PUSH1 0x41 PUSH1 0x4 MSTORE PUSH1 0x24 PUSH1 0x0 REVERT JUMPDEST DUP1 MLOAD PUSH1 0x1 PUSH1 0x1 PUSH1 0xA0 SHL SUB DUP2 AND DUP2 EQ PUSH3 0x1F0 JUMPI PUSH1 0x0 DUP1 REVERT JUMPDEST SWAP2 SWAP1 POP JUMP JUMPDEST DUP1 MLOAD PUSH1 0x1 PUSH1 0x1 PUSH1 0x40 SHL SUB DUP2 AND DUP2 EQ PUSH3 0x1F0 JUMPI PUSH1 0x0 DUP1 REVERT JUMPDEST PUSH1 0x0 DUP1 PUSH1 0x0 DUP1 PUSH1 0x80 DUP6 DUP8 SUB SLT ISZERO PUSH3 0x224 JUMPI PUSH1 0x0 DUP1 REVERT JUMPDEST DUP5 MLOAD PUSH1 0x1 PUSH1 0x1 PUSH1 0x40 SHL SUB DUP1 DUP3 GT ISZERO PUSH3 0x23C JUMPI PUSH1 0x0 DUP1 REVERT JUMPDEST DUP2 DUP8 ADD SWAP2 POP DUP8 PUSH1 0x1F DUP4 ADD SLT PUSH3 0x251 JUMPI PUSH1 0x0 DUP1 REVERT JUMPDEST DUP2 MLOAD DUP2 DUP2 GT ISZERO PUSH3 0x266 JUMPI PUSH3 0x266 PUSH3 0x1C2 JUMP JUMPDEST PUSH1 0x40 MLOAD PUSH1 0x1F DUP3 ADD PUSH1 0x1F NOT SWAP1 DUP2 AND PUSH1 0x3F ADD AND DUP2 ADD SWAP1 DUP4 DUP3 GT DUP2 DUP4 LT OR ISZERO PUSH3 0x291 JUMPI PUSH3 0x291 PUSH3 0x1C2 JUMP JUMPDEST DUP2 PUSH1 0x40 MSTORE DUP3 DUP2 MSTORE PUSH1 0x20 SWAP4 POP DUP11 DUP5 DUP5 DUP8 ADD ADD GT ISZERO PUSH3 0x2AE JUMPI PUSH1 0x0 DUP1 REVERT JUMPDEST PUSH1 0x0 SWAP2 POP JUMPDEST DUP3 DUP3 LT ISZERO PUSH3 0x2D2 JUMPI DUP5 DUP3 ADD DUP5 ADD MLOAD DUP2 DUP4 ADD DUP6 ADD MSTORE SWAP1 DUP4 ADD SWAP1 PUSH3 0x2B3 JUMP JUMPDEST PUSH1 0x0 DUP5 DUP5 DUP4 ADD ADD MSTORE DUP1 SWAP9 POP POP POP POP PUSH3 0x2ED DUP2 DUP9 ADD PUSH3 0x1D8 JUMP JUMPDEST SWAP5 POP POP POP PUSH3 0x2FF PUSH1 0x40 DUP7 ADD PUSH3 0x1D8 JUMP JUMPDEST SWAP2 POP PUSH3 0x30F PUSH1 0x60 DUP7 ADD PUSH3 0x1F5 JUMP JUMPDEST SWAP1 POP SWAP3 SWAP6 SWAP2 SWAP5 POP SWAP3 POP JUMP JUMPDEST PUSH1 0x1 DUP2 DUP2 SHR SWAP1 DUP3 AND DUP1 PUSH3 0x32F JUMPI PUSH1 0x7F DUP3 AND SWAP2 POP JUMPDEST PUSH1 0x20 DUP3 LT DUP2 SUB PUSH3 0x350 JUMPI PUSH4 0x4E487B71 PUSH1 0xE0 SHL PUSH1 0x0 MSTORE PUSH1 0x22 PUSH1 0x4 MSTORE PUSH1 0x24 PUSH1 0x0 REVERT JUMPDEST POP SWAP2 SWAP1 POP JUMP JUMPDEST PUSH1 0x1F DUP3 GT ISZERO PUSH3 0x3A6 JUMPI PUSH1 0x0 DUP2 PUSH1 0x0 MSTORE PUSH1 0x20 PUSH1 0x0 KECCAK256 PUSH1 0x1F DUP6 ADD PUSH1 0x5 SHR DUP2 ADD PUSH1 0x20 DUP7 LT ISZERO PUSH3 0x381 JUMPI POP DUP1 JUMPDEST PUSH1 0x1F DUP6 ADD PUSH1 0x5 SHR DUP3 ADD SWAP2 POP JUMPDEST DUP2 DUP2 LT ISZERO PUSH3 0x3A2 JUMPI DUP3 DUP2 SSTORE PUSH1 0x1 ADD PUSH3 0x38D JUMP JUMPDEST POP POP POP JUMPDEST POP POP POP JUMP JUMPDEST DUP2 MLOAD PUSH1 0x1 PUSH1 0x1 PUSH1 0x40 SHL SUB DUP2 GT ISZERO PUSH3 0x3C7 JUMPI PUSH3 0x3C7 PUSH3 0x1C2 JUMP JUMPDEST PUSH3 0x3DF DUP2 PUSH3 0x3D8 DUP5 SLOAD PUSH3 0x31A JUMP JUMPDEST DUP5 PUSH3 0x356 JUMP JUMPDEST PUSH1 0x20 DUP1 PUSH1 0x1F DUP4 GT PUSH1 0x1 DUP2 EQ PUSH3 0x417 JUMPI PUSH1 0x0 DUP5 ISZERO PUSH3 0x3FE JUMPI POP DUP6 DUP4 ADD MLOAD JUMPDEST PUSH1 0x0 NOT PUSH1 0x3 DUP7 SWAP1 SHL SHR NOT AND PUSH1 0x1 DUP6 SWAP1 SHL OR DUP6 SSTORE PUSH3 0x3A2 JUMP JUMPDEST PUSH1 0x0 DUP6 DUP2 MSTORE PUSH1 0x20 DUP2 KECCAK256 PUSH1 0x1F NOT DUP7 AND SWAP2 JUMPDEST DUP3 DUP2 LT ISZERO PUSH3 0x448 JUMPI DUP9 DUP7 ADD MLOAD DUP3 SSTORE SWAP5 DUP5 ADD SWAP5 PUSH1 0x1 SWAP1 SWAP2 ADD SWAP1 DUP5 ADD PUSH3 0x427 JUMP JUMPDEST POP DUP6 DUP3 LT ISZERO PUSH3 0x467 JUMPI DUP8 DUP6 ADD MLOAD PUSH1 0x0 NOT PUSH1 0x3 DUP9 SWAP1 SHL PUSH1 0xF8 AND SHR NOT AND DUP2 SSTORE JUMPDEST POP POP POP POP POP PUSH1 0x1 SWAP1 DUP2 SHL ADD SWAP1 SSTORE POP JUMP JUMPDEST PUSH1 0x80 MLOAD PUSH1 0xA0 MLOAD PUSH1 0xC0 MLOAD PUSH2 0x3194 PUSH3 0x4ED PUSH1 0x0 CODECOPY PUSH1 0x0 DUP2 DUP2 PUSH2 0x433 ADD MSTORE DUP2 DUP2 PUSH2 0xC4A ADD MSTORE DUP2 DUP2 PUSH2 0xDBF ADD MSTORE PUSH2 0x13F9 ADD MSTORE PUSH1 0x0 DUP2 DUP2 PUSH2 0x74B ADD MSTORE DUP2 DUP2 PUSH2 0x8F0 ADD MSTORE DUP2 DUP2 PUSH2 0x97F ADD MSTORE PUSH2 0xA5C ADD MSTORE PUSH1 0x0 DUP2 DUP2 PUSH2 0x833 ADD MSTORE DUP2 DUP2 PUSH2 0xA2D ADD MSTORE DUP2 DUP2 PUSH2 0xAE1 ADD MSTORE DUP2 DUP2 PUSH2 0xBA3 ADD MSTORE PUSH2 0x1267 ADD MSTORE PUSH2 0x3194 PUSH1 0x0 RETURN INVALID PUSH1 0x80 PUSH1 0x40 MSTORE CALLVALUE DUP1 ISZERO PUSH2 0x10 JUMPI PUSH1 0x0 DUP1 REVERT JUMPDEST POP PUSH1 0x4 CALLDATASIZE LT PUSH2 0x18D JUMPI PUSH1 0x0 CALLDATALOAD PUSH1 0xE0 SHR DUP1 PUSH4 0x5DC5EBDB GT PUSH2 0xDE JUMPI DUP1 PUSH4 0xB942F8CB GT PUSH2 0x97 JUMPI DUP1 PUSH4 0xE985E9C5 GT PUSH2 0x71 JUMPI DUP1 PUSH4 0xE985E9C5 EQ PUSH2 0x38F JUMPI DUP1 PUSH4 0xF242432A EQ PUSH2 0x3A2 JUMPI DUP1 PUSH4 0xF2FDE38B EQ PUSH2 0x3B5 JUMPI DUP1 PUSH4 0xF5298ACA EQ PUSH2 0x3C8 JUMPI PUSH1 0x0 DUP1 REVERT JUMPDEST DUP1 PUSH4 0xB942F8CB EQ PUSH2 0x349 JUMPI DUP1 PUSH4 0xBD85B039 EQ PUSH2 0x35C JUMPI DUP1 PUSH4 0xC1341C4F EQ PUSH2 0x37C JUMPI PUSH1 0x0 DUP1 REVERT JUMPDEST DUP1 PUSH4 0x5DC5EBDB EQ PUSH2 0x2CC JUMPI DUP1 PUSH4 0x6B20C454 EQ PUSH2 0x2ED JUMPI DUP1 PUSH4 0x79BA5097 EQ PUSH2 0x300 JUMPI DUP1 PUSH4 0x85572FFB EQ PUSH2 0x308 JUMPI DUP1 PUSH4 0x8DA5CB5B EQ PUSH2 0x31B JUMPI DUP1 PUSH4 0xA22CB465 EQ PUSH2 0x336 JUMPI PUSH1 0x0 DUP1 REVERT JUMPDEST DUP1 PUSH4 0x2EB2C2D6 GT PUSH2 0x14B JUMPI DUP1 PUSH4 0x4E1273F4 GT PUSH2 0x125 JUMPI DUP1 PUSH4 0x4E1273F4 EQ PUSH2 0x264 JUMPI DUP1 PUSH4 0x4F558E79 EQ PUSH2 0x284 JUMPI DUP1 PUSH4 0x51CFF8D9 EQ PUSH2 0x2A6 JUMPI DUP1 PUSH4 0x55CC4E57 EQ PUSH2 0x2B9 JUMPI PUSH1 0x0 DUP1 REVERT JUMPDEST DUP1 PUSH4 0x2EB2C2D6 EQ PUSH2 0x22B JUMPI DUP1 PUSH4 0x3AEAC4E1 EQ PUSH2 0x23E JUMPI DUP1 PUSH4 0x41EADE46 EQ PUSH2 0x251 JUMPI PUSH1 0x0 DUP1 REVERT JUMPDEST DUP1 PUSH3 0xFDD58E EQ PUSH2 0x192 JUMPI DUP1 PUSH4 0x1FFC9A7 EQ PUSH2 0x1B8 JUMPI DUP1 PUSH4 0xCE639C4 EQ PUSH2 0x1DB JUMPI DUP1 PUSH4 0xE89341C EQ PUSH2 0x1F0 JUMPI DUP1 PUSH4 0x18160DDD EQ PUSH2 0x210 JUMPI DUP1 PUSH4 0x240B3B49 EQ PUSH2 0x218 JUMPI JUMPDEST PUSH1 0x0 DUP1 REVERT JUMPDEST PUSH2 0x1A5 PUSH2 0x1A0 CALLDATASIZE PUSH1 0x4 PUSH2 0x234F JUMP JUMPDEST PUSH2 0x3DB JUMP JUMPDEST PUSH1 0x40 MLOAD SWAP1 DUP2 MSTORE PUSH1 0x20 ADD JUMPDEST PUSH1 0x40 MLOAD DUP1 SWAP2 SUB SWAP1 RETURN JUMPDEST PUSH2 0x1CB PUSH2 0x1C6 CALLDATASIZE PUSH1 0x4 PUSH2 0x2391 JUMP JUMPDEST PUSH2 0x403 JUMP JUMPDEST PUSH1 0x40 MLOAD SWAP1 ISZERO ISZERO DUP2 MSTORE PUSH1 0x20 ADD PUSH2 0x1AF JUMP JUMPDEST PUSH2 0x1EE PUSH2 0x1E9 CALLDATASIZE PUSH1 0x4 PUSH2 0x247F JUMP JUMPDEST PUSH2 0x428 JUMP JUMPDEST STOP JUMPDEST PUSH2 0x203 PUSH2 0x1FE CALLDATASIZE PUSH1 0x4 PUSH2 0x24DE JUMP JUMPDEST PUSH2 0x537 JUMP JUMPDEST PUSH1 0x40 MLOAD PUSH2 0x1AF SWAP2 SWAP1 PUSH2 0x2547 JUMP JUMPDEST PUSH1 0x4 SLOAD PUSH2 0x1A5 JUMP JUMPDEST PUSH2 0x1A5 PUSH2 0x226 CALLDATASIZE PUSH1 0x4 PUSH2 0x255A JUMP JUMPDEST PUSH2 0x5F5 JUMP JUMPDEST PUSH2 0x1EE PUSH2 0x239 CALLDATASIZE PUSH1 0x4 PUSH2 0x268A JUMP JUMPDEST PUSH2 0xC9E JUMP JUMPDEST PUSH2 0x1EE PUSH2 0x24C CALLDATASIZE PUSH1 0x4 PUSH2 0x2737 JUMP JUMPDEST PUSH2 0xD05 JUMP JUMPDEST PUSH2 0x1EE PUSH2 0x25F CALLDATASIZE PUSH1 0x4 PUSH2 0x2770 JUMP JUMPDEST PUSH2 0xDB4 JUMP JUMPDEST PUSH2 0x277 PUSH2 0x272 CALLDATASIZE PUSH1 0x4 PUSH2 0x278B JUMP JUMPDEST PUSH2 0xE90 JUMP JUMPDEST PUSH1 0x40 MLOAD PUSH2 0x1AF SWAP2 SWAP1 PUSH2 0x2888 JUMP JUMPDEST PUSH2 0x1CB PUSH2 0x292 CALLDATASIZE PUSH1 0x4 PUSH2 0x24DE JUMP JUMPDEST PUSH1 0x0 SWAP1 DUP2 MSTORE PUSH1 0x3 PUSH1 0x20 MSTORE PUSH1 0x40 SWAP1 KECCAK256 SLOAD ISZERO ISZERO SWAP1 JUMP JUMPDEST PUSH2 0x1EE PUSH2 0x2B4 CALLDATASIZE PUSH1 0x4 PUSH2 0x289B JUMP JUMPDEST PUSH2 0xF5C JUMP JUMPDEST PUSH2 0x1EE PUSH2 0x2C7 CALLDATASIZE PUSH1 0x4 PUSH2 0x289B JUMP JUMPDEST PUSH2 0x1013 JUMP JUMPDEST PUSH2 0x2DF PUSH2 0x2DA CALLDATASIZE PUSH1 0x4 PUSH2 0x2770 JUMP JUMPDEST PUSH2 0x1065 JUMP JUMPDEST PUSH1 0x40 MLOAD PUSH2 0x1AF SWAP3 SWAP2 SWAP1 PUSH2 0x28B8 JUMP JUMPDEST PUSH2 0x1EE PUSH2 0x2FB CALLDATASIZE PUSH1 0x4 PUSH2 0x28E4 JUMP JUMPDEST PUSH2 0x1114 JUMP JUMPDEST PUSH2 0x1EE PUSH2 0x11AE JUMP JUMPDEST PUSH2 0x1EE PUSH2 0x316 CALLDATASIZE PUSH1 0x4 PUSH2 0x294F JUMP JUMPDEST PUSH2 0x125C JUMP JUMPDEST PUSH1 0x5 SLOAD PUSH1 0x40 MLOAD PUSH1 0x1 PUSH1 0x1 PUSH1 0xA0 SHL SUB SWAP1 SWAP2 AND DUP2 MSTORE PUSH1 0x20 ADD PUSH2 0x1AF JUMP JUMPDEST PUSH2 0x1EE PUSH2 0x344 CALLDATASIZE PUSH1 0x4 PUSH2 0x2997 JUMP JUMPDEST PUSH2 0x144A JUMP JUMPDEST PUSH2 0x1EE PUSH2 0x357 CALLDATASIZE PUSH1 0x4 PUSH2 0x29C5 JUMP JUMPDEST PUSH2 0x1459 JUMP JUMPDEST PUSH2 0x1A5 PUSH2 0x36A CALLDATASIZE PUSH1 0x4 PUSH2 0x24DE JUMP JUMPDEST PUSH1 0x0 SWAP1 DUP2 MSTORE PUSH1 0x3 PUSH1 0x20 MSTORE PUSH1 0x40 SWAP1 KECCAK256 SLOAD SWAP1 JUMP JUMPDEST PUSH2 0x1EE PUSH2 0x38A CALLDATASIZE PUSH1 0x4 PUSH2 0x2AF8 JUMP JUMPDEST PUSH2 0x1507 JUMP JUMPDEST PUSH2 0x1CB PUSH2 0x39D CALLDATASIZE PUSH1 0x4 PUSH2 0x2737 JUMP JUMPDEST PUSH2 0x1566 JUMP JUMPDEST PUSH2 0x1EE PUSH2 0x3B0 CALLDATASIZE PUSH1 0x4 PUSH2 0x2B51 JUMP JUMPDEST PUSH2 0x1594 JUMP JUMPDEST PUSH2 0x1EE PUSH2 0x3C3 CALLDATASIZE PUSH1 0x4 PUSH2 0x289B JUMP JUMPDEST PUSH2 0x15F3 JUMP JUMPDEST PUSH2 0x1EE PUSH2 0x3D6 CALLDATASIZE PUSH1 0x4 PUSH2 0x2BB9 JUMP JUMPDEST PUSH2 0x1604 JUMP JUMPDEST PUSH1 0x0 DUP2 DUP2 MSTORE PUSH1 0x20 DUP2 DUP2 MSTORE PUSH1 0x40 DUP1 DUP4 KECCAK256 PUSH1 0x1 PUSH1 0x1 PUSH1 0xA0 SHL SUB DUP7 AND DUP5 MSTORE SWAP1 SWAP2 MSTORE SWAP1 KECCAK256 SLOAD JUMPDEST SWAP3 SWAP2 POP POP JUMP JUMPDEST PUSH1 0x0 PUSH1 0x1 PUSH1 0x1 PUSH1 0xE0 SHL SUB NOT DUP3 AND PUSH4 0x85572FFB PUSH1 0xE0 SHL EQ DUP1 PUSH2 0x3FD JUMPI POP PUSH2 0x3FD DUP3 PUSH2 0x1675 JUMP JUMPDEST PUSH2 0x430 PUSH2 0x16C5 JUMP JUMPDEST DUP3 PUSH32 0x0 PUSH1 0x1 PUSH1 0x1 PUSH1 0x40 SHL SUB AND DUP2 PUSH1 0x1 PUSH1 0x1 PUSH1 0x40 SHL SUB AND SUB PUSH2 0x493 JUMPI PUSH1 0x40 MLOAD PUSH4 0x40D8E3A1 PUSH1 0xE0 SHL DUP2 MSTORE PUSH1 0x1 PUSH1 0x1 PUSH1 0x40 SHL SUB DUP3 AND PUSH1 0x4 DUP3 ADD MSTORE PUSH1 0x24 ADD JUMPDEST PUSH1 0x40 MLOAD DUP1 SWAP2 SUB SWAP1 REVERT JUMPDEST PUSH1 0x40 DUP1 MLOAD DUP1 DUP3 ADD DUP3 MSTORE PUSH1 0x1 PUSH1 0x1 PUSH1 0xA0 SHL SUB DUP6 DUP2 AND DUP3 MSTORE PUSH1 0x20 DUP1 DUP4 ADD DUP7 DUP2 MSTORE PUSH1 0x1 PUSH1 0x1 PUSH1 0x40 SHL SUB DUP10 AND PUSH1 0x0 SWAP1 DUP2 MSTORE PUSH1 0xA SWAP1 SWAP3 MSTORE SWAP4 SWAP1 KECCAK256 DUP3 MLOAD DUP2 SLOAD PUSH1 0x1 PUSH1 0x1 PUSH1 0xA0 SHL SUB NOT AND SWAP3 AND SWAP2 SWAP1 SWAP2 OR DUP2 SSTORE SWAP2 MLOAD SWAP1 SWAP2 SWAP1 PUSH1 0x1 DUP3 ADD SWAP1 PUSH2 0x4F2 SWAP1 DUP3 PUSH2 0x2C70 JUMP JUMPDEST POP SWAP1 POP POP PUSH32 0x59CC0B49D3359AC35E3872E99199469B6A1025C9A945CD9B6A411BFFE337272D DUP5 DUP5 DUP5 PUSH1 0x40 MLOAD PUSH2 0x529 SWAP4 SWAP3 SWAP2 SWAP1 PUSH2 0x2D2F JUMP JUMPDEST PUSH1 0x40 MLOAD DUP1 SWAP2 SUB SWAP1 LOG1 POP POP POP POP JUMP JUMPDEST PUSH1 0x0 DUP2 DUP2 MSTORE PUSH1 0x8 PUSH1 0x20 MSTORE PUSH1 0x40 DUP2 KECCAK256 DUP1 SLOAD PUSH1 0x60 SWAP3 SWAP2 SWAP1 PUSH2 0x555 SWAP1 PUSH2 0x2BEE JUMP JUMPDEST DUP1 PUSH1 0x1F ADD PUSH1 0x20 DUP1 SWAP2 DIV MUL PUSH1 0x20 ADD PUSH1 0x40 MLOAD SWAP1 DUP2 ADD PUSH1 0x40 MSTORE DUP1 SWAP3 SWAP2 SWAP1 DUP2 DUP2 MSTORE PUSH1 0x20 ADD DUP3 DUP1 SLOAD PUSH2 0x581 SWAP1 PUSH2 0x2BEE JUMP JUMPDEST DUP1 ISZERO PUSH2 0x5CE JUMPI DUP1 PUSH1 0x1F LT PUSH2 0x5A3 JUMPI PUSH2 0x100 DUP1 DUP4 SLOAD DIV MUL DUP4 MSTORE SWAP2 PUSH1 0x20 ADD SWAP2 PUSH2 0x5CE JUMP JUMPDEST DUP3 ADD SWAP2 SWAP1 PUSH1 0x0 MSTORE PUSH1 0x20 PUSH1 0x0 KECCAK256 SWAP1 JUMPDEST DUP2 SLOAD DUP2 MSTORE SWAP1 PUSH1 0x1 ADD SWAP1 PUSH1 0x20 ADD DUP1 DUP4 GT PUSH2 0x5B1 JUMPI DUP3 SWAP1 SUB PUSH1 0x1F AND DUP3 ADD SWAP2 JUMPDEST POP POP POP POP POP SWAP1 POP PUSH1 0x0 DUP2 MLOAD GT PUSH2 0x5EC JUMPI PUSH2 0x5E7 DUP4 PUSH2 0x171A JUMP JUMPDEST PUSH2 0x5EE JUMP JUMPDEST DUP1 JUMPDEST SWAP4 SWAP3 POP POP POP JUMP JUMPDEST PUSH1 0x0 PUSH2 0x5FF PUSH2 0x17AE JUMP JUMPDEST PUSH1 0x1 PUSH1 0x1 PUSH1 0x40 SHL SUB DUP4 AND PUSH1 0x0 SWAP1 DUP2 MSTORE PUSH1 0xA PUSH1 0x20 MSTORE PUSH1 0x40 SWAP1 KECCAK256 SLOAD DUP4 SWAP1 PUSH1 0x1 PUSH1 0x1 PUSH1 0xA0 SHL SUB AND PUSH2 0x64B JUMPI PUSH1 0x40 MLOAD PUSH4 0xE19FDF7 PUSH1 0xE1 SHL DUP2 MSTORE PUSH1 0x1 PUSH1 0x1 PUSH1 0x40 SHL SUB DUP3 AND PUSH1 0x4 DUP3 ADD MSTORE PUSH1 0x24 ADD PUSH2 0x48A JUMP JUMPDEST PUSH1 0x0 PUSH2 0x656 DUP9 PUSH2 0x537 JUMP JUMPDEST SWAP1 POP PUSH2 0x663 DUP11 DUP10 DUP10 PUSH2 0x1604 JUMP JUMPDEST PUSH1 0x40 DUP1 MLOAD PUSH1 0xA0 DUP2 ADD DUP3 MSTORE PUSH1 0x1 PUSH1 0x1 PUSH1 0x40 SHL SUB DUP8 AND PUSH1 0x0 SWAP1 DUP2 MSTORE PUSH1 0xA PUSH1 0x20 MSTORE SWAP2 DUP3 KECCAK256 SLOAD PUSH1 0x1 PUSH1 0x1 PUSH1 0xA0 SHL SUB AND PUSH1 0xC0 DUP3 ADD MSTORE DUP1 PUSH1 0xE0 DUP2 ADD PUSH1 0x40 MLOAD PUSH1 0x20 DUP2 DUP4 SUB SUB DUP2 MSTORE SWAP1 PUSH1 0x40 MSTORE DUP2 MSTORE PUSH1 0x20 ADD DUP13 DUP13 DUP13 DUP13 DUP13 DUP9 PUSH1 0x40 MLOAD PUSH1 0x20 ADD PUSH2 0x6C7 SWAP7 SWAP6 SWAP5 SWAP4 SWAP3 SWAP2 SWAP1 PUSH2 0x2D6B JUMP JUMPDEST PUSH1 0x40 DUP1 MLOAD PUSH1 0x1F NOT DUP2 DUP5 SUB ADD DUP2 MSTORE SWAP2 SWAP1 MSTORE DUP2 MSTORE PUSH1 0x20 ADD PUSH1 0x0 PUSH1 0x40 MLOAD SWAP1 DUP1 DUP3 MSTORE DUP1 PUSH1 0x20 MUL PUSH1 0x20 ADD DUP3 ADD PUSH1 0x40 MSTORE DUP1 ISZERO PUSH2 0x723 JUMPI DUP2 PUSH1 0x20 ADD JUMPDEST PUSH1 0x40 DUP1 MLOAD DUP1 DUP3 ADD SWAP1 SWAP2 MSTORE PUSH1 0x0 DUP1 DUP3 MSTORE PUSH1 0x20 DUP3 ADD MSTORE DUP2 MSTORE PUSH1 0x20 ADD SWAP1 PUSH1 0x1 SWAP1 SUB SWAP1 DUP2 PUSH2 0x6FC JUMPI SWAP1 POP JUMPDEST POP DUP2 MSTORE PUSH1 0x20 ADD PUSH1 0x1 DUP8 PUSH1 0x1 DUP2 GT ISZERO PUSH2 0x73D JUMPI PUSH2 0x73D PUSH2 0x2DC4 JUMP JUMPDEST EQ PUSH2 0x749 JUMPI PUSH1 0x0 PUSH2 0x76B JUMP JUMPDEST PUSH32 0x0 JUMPDEST PUSH1 0x1 PUSH1 0x1 PUSH1 0xA0 SHL SUB AND DUP2 MSTORE PUSH1 0x20 ADD PUSH1 0xA PUSH1 0x0 DUP10 PUSH1 0x1 PUSH1 0x1 PUSH1 0x40 SHL SUB AND PUSH1 0x1 PUSH1 0x1 PUSH1 0x40 SHL SUB AND DUP2 MSTORE PUSH1 0x20 ADD SWAP1 DUP2 MSTORE PUSH1 0x20 ADD PUSH1 0x0 KECCAK256 PUSH1 0x1 ADD DUP1 SLOAD PUSH2 0x7AC SWAP1 PUSH2 0x2BEE JUMP JUMPDEST DUP1 PUSH1 0x1F ADD PUSH1 0x20 DUP1 SWAP2 DIV MUL PUSH1 0x20 ADD PUSH1 0x40 MLOAD SWAP1 DUP2 ADD PUSH1 0x40 MSTORE DUP1 SWAP3 SWAP2 SWAP1 DUP2 DUP2 MSTORE PUSH1 0x20 ADD DUP3 DUP1 SLOAD PUSH2 0x7D8 SWAP1 PUSH2 0x2BEE JUMP JUMPDEST DUP1 ISZERO PUSH2 0x825 JUMPI DUP1 PUSH1 0x1F LT PUSH2 0x7FA JUMPI PUSH2 0x100 DUP1 DUP4 SLOAD DIV MUL DUP4 MSTORE SWAP2 PUSH1 0x20 ADD SWAP2 PUSH2 0x825 JUMP JUMPDEST DUP3 ADD SWAP2 SWAP1 PUSH1 0x0 MSTORE PUSH1 0x20 PUSH1 0x0 KECCAK256 SWAP1 JUMPDEST DUP2 SLOAD DUP2 MSTORE SWAP1 PUSH1 0x1 ADD SWAP1 PUSH1 0x20 ADD DUP1 DUP4 GT PUSH2 0x808 JUMPI DUP3 SWAP1 SUB PUSH1 0x1F AND DUP3 ADD SWAP2 JUMPDEST POP POP POP POP POP DUP2 MSTORE POP SWAP1 POP PUSH1 0x0 PUSH32 0x0 PUSH1 0x1 PUSH1 0x1 PUSH1 0xA0 SHL SUB AND PUSH4 0x20487DED DUP9 DUP5 PUSH1 0x40 MLOAD DUP4 PUSH4 0xFFFFFFFF AND PUSH1 0xE0 SHL DUP2 MSTORE PUSH1 0x4 ADD PUSH2 0x87F SWAP3 SWAP2 SWAP1 PUSH2 0x2DDA JUMP JUMPDEST PUSH1 0x20 PUSH1 0x40 MLOAD DUP1 DUP4 SUB DUP2 DUP7 GAS STATICCALL ISZERO DUP1 ISZERO PUSH2 0x89C JUMPI RETURNDATASIZE PUSH1 0x0 DUP1 RETURNDATACOPY RETURNDATASIZE PUSH1 0x0 REVERT JUMPDEST POP POP POP POP PUSH1 0x40 MLOAD RETURNDATASIZE PUSH1 0x1F NOT PUSH1 0x1F DUP3 ADD AND DUP3 ADD DUP1 PUSH1 0x40 MSTORE POP DUP2 ADD SWAP1 PUSH2 0x8C0 SWAP2 SWAP1 PUSH2 0x2EB6 JUMP JUMPDEST SWAP1 POP PUSH1 0x1 DUP7 PUSH1 0x1 DUP2 GT ISZERO PUSH2 0x8D6 JUMPI PUSH2 0x8D6 PUSH2 0x2DC4 JUMP JUMPDEST SUB PUSH2 0xB62 JUMPI PUSH1 0x40 MLOAD PUSH4 0x70A08231 PUSH1 0xE0 SHL DUP2 MSTORE ADDRESS PUSH1 0x4 DUP3 ADD MSTORE PUSH32 0x0 PUSH1 0x1 PUSH1 0x1 PUSH1 0xA0 SHL SUB AND SWAP1 PUSH4 0x70A08231 SWAP1 PUSH1 0x24 ADD PUSH1 0x20 PUSH1 0x40 MLOAD DUP1 DUP4 SUB DUP2 DUP7 GAS STATICCALL ISZERO DUP1 ISZERO PUSH2 0x93F JUMPI RETURNDATASIZE PUSH1 0x0 DUP1 RETURNDATACOPY RETURNDATASIZE PUSH1 0x0 REVERT JUMPDEST POP POP POP POP PUSH1 0x40 MLOAD RETURNDATASIZE PUSH1 0x1F NOT PUSH1 0x1F DUP3 ADD AND DUP3 ADD DUP1 PUSH1 0x40 MSTORE POP DUP2 ADD SWAP1 PUSH2 0x963 SWAP2 SWAP1 PUSH2 0x2EB6 JUMP JUMPDEST DUP2 GT ISZERO PUSH2 0xA16 JUMPI PUSH1 0x40 MLOAD PUSH4 0x70A08231 PUSH1 0xE0 SHL DUP2 MSTORE ADDRESS PUSH1 0x4 DUP3 ADD MSTORE PUSH32 0x0 PUSH1 0x1 PUSH1 0x1 PUSH1 0xA0 SHL SUB AND SWAP1 PUSH4 0x70A08231 SWAP1 PUSH1 0x24 ADD PUSH1 0x20 PUSH1 0x40 MLOAD DUP1 DUP4 SUB DUP2 DUP7 GAS STATICCALL ISZERO DUP1 ISZERO PUSH2 0x9CE JUMPI RETURNDATASIZE PUSH1 0x0 DUP1 RETURNDATACOPY RETURNDATASIZE PUSH1 0x0 REVERT JUMPDEST POP POP POP POP PUSH1 0x40 MLOAD RETURNDATASIZE PUSH1 0x1F NOT PUSH1 0x1F DUP3 ADD AND DUP3 ADD DUP1 PUSH1 0x40 MSTORE POP DUP2 ADD SWAP1 PUSH2 0x9F2 SWAP2 SWAP1 PUSH2 0x2EB6 JUMP JUMPDEST PUSH1 0x40 MLOAD PUSH4 0x28FDCAA1 PUSH1 0xE0 SHL DUP2 MSTORE PUSH1 0x4 DUP2 ADD SWAP2 SWAP1 SWAP2 MSTORE PUSH1 0x24 DUP2 ADD DUP3 SWAP1 MSTORE PUSH1 0x44 ADD PUSH2 0x48A JUMP JUMPDEST PUSH1 0x40 MLOAD PUSH4 0x95EA7B3 PUSH1 0xE0 SHL DUP2 MSTORE PUSH1 0x1 PUSH1 0x1 PUSH1 0xA0 SHL SUB PUSH32 0x0 DUP2 AND PUSH1 0x4 DUP4 ADD MSTORE PUSH1 0x24 DUP3 ADD DUP4 SWAP1 MSTORE PUSH32 0x0 AND SWAP1 PUSH4 0x95EA7B3 SWAP1 PUSH1 0x44 ADD PUSH1 0x20 PUSH1 0x40 MLOAD DUP1 DUP4 SUB DUP2 PUSH1 0x0 DUP8 GAS CALL ISZERO DUP1 ISZERO PUSH2 0xAA5 JUMPI RETURNDATASIZE PUSH1 0x0 DUP1 RETURNDATACOPY RETURNDATASIZE PUSH1 0x0 REVERT JUMPDEST POP POP POP POP PUSH1 0x40 MLOAD RETURNDATASIZE PUSH1 0x1F NOT PUSH1 0x1F DUP3 ADD AND DUP3 ADD DUP1 PUSH1 0x40 MSTORE POP DUP2 ADD SWAP1 PUSH2 0xAC9 SWAP2 SWAP1 PUSH2 0x2ECF JUMP JUMPDEST POP PUSH1 0x40 MLOAD PUSH4 0x96F4E9F9 PUSH1 0xE0 SHL DUP2 MSTORE PUSH1 0x1 PUSH1 0x1 PUSH1 0xA0 SHL SUB PUSH32 0x0 AND SWAP1 PUSH4 0x96F4E9F9 SWAP1 PUSH2 0xB18 SWAP1 DUP11 SWAP1 DUP7 SWAP1 PUSH1 0x4 ADD PUSH2 0x2DDA JUMP JUMPDEST PUSH1 0x20 PUSH1 0x40 MLOAD DUP1 DUP4 SUB DUP2 PUSH1 0x0 DUP8 GAS CALL ISZERO DUP1 ISZERO PUSH2 0xB37 JUMPI RETURNDATASIZE PUSH1 0x0 DUP1 RETURNDATACOPY RETURNDATASIZE PUSH1 0x0 REVERT JUMPDEST POP POP POP POP PUSH1 0x40 MLOAD RETURNDATASIZE PUSH1 0x1F NOT PUSH1 0x1F DUP3 ADD AND DUP3 ADD DUP1 PUSH1 0x40 MSTORE POP DUP2 ADD SWAP1 PUSH2 0xB5B SWAP2 SWAP1 PUSH2 0x2EB6 JUMP JUMPDEST SWAP5 POP PUSH2 0xC22 JUMP JUMPDEST SELFBALANCE DUP2 GT ISZERO PUSH2 0xB8C JUMPI PUSH1 0x40 MLOAD PUSH4 0x28FDCAA1 PUSH1 0xE0 SHL DUP2 MSTORE SELFBALANCE PUSH1 0x4 DUP3 ADD MSTORE PUSH1 0x24 DUP2 ADD DUP3 SWAP1 MSTORE PUSH1 0x44 ADD PUSH2 0x48A JUMP JUMPDEST PUSH1 0x40 MLOAD PUSH4 0x96F4E9F9 PUSH1 0xE0 SHL DUP2 MSTORE PUSH1 0x1 PUSH1 0x1 PUSH1 0xA0 SHL SUB PUSH32 0x0 AND SWAP1 PUSH4 0x96F4E9F9 SWAP1 DUP4 SWAP1 PUSH2 0xBDC SWAP1 DUP12 SWAP1 DUP8 SWAP1 PUSH1 0x4 ADD PUSH2 0x2DDA JUMP JUMPDEST PUSH1 0x20 PUSH1 0x40 MLOAD DUP1 DUP4 SUB DUP2 DUP6 DUP9 GAS CALL ISZERO DUP1 ISZERO PUSH2 0xBFA JUMPI RETURNDATASIZE PUSH1 0x0 DUP1 RETURNDATACOPY RETURNDATASIZE PUSH1 0x0 REVERT JUMPDEST POP POP POP POP POP PUSH1 0x40 MLOAD RETURNDATASIZE PUSH1 0x1F NOT PUSH1 0x1F DUP3 ADD AND DUP3 ADD DUP1 PUSH1 0x40 MSTORE POP DUP2 ADD SWAP1 PUSH2 0xC1F SWAP2 SWAP1 PUSH2 0x2EB6 JUMP JUMPDEST SWAP5 POP JUMPDEST PUSH32 0x300E6C20D2E9D8DB9B2DF40EBCE943D9DAE3FA3A8EAEC841A3D1CB9A1E8B6AD7 DUP13 DUP13 DUP13 DUP13 DUP13 PUSH32 0x0 DUP14 PUSH1 0x40 MLOAD PUSH2 0xC7D SWAP8 SWAP7 SWAP6 SWAP5 SWAP4 SWAP3 SWAP2 SWAP1 PUSH2 0x2EEC JUMP JUMPDEST PUSH1 0x40 MLOAD DUP1 SWAP2 SUB SWAP1 LOG1 POP POP POP POP PUSH2 0xC93 PUSH1 0x1 PUSH1 0x9 SSTORE JUMP JUMPDEST SWAP8 SWAP7 POP POP POP POP POP POP POP JUMP JUMPDEST CALLER PUSH1 0x1 PUSH1 0x1 PUSH1 0xA0 SHL SUB DUP7 AND DUP2 EQ DUP1 ISZERO SWAP1 PUSH2 0xCBF JUMPI POP PUSH2 0xCBD DUP7 DUP3 PUSH2 0x1566 JUMP JUMPDEST ISZERO JUMPDEST ISZERO PUSH2 0xCF0 JUMPI PUSH1 0x40 MLOAD PUSH4 0x711BEC91 PUSH1 0xE1 SHL DUP2 MSTORE PUSH1 0x1 PUSH1 0x1 PUSH1 0xA0 SHL SUB DUP1 DUP4 AND PUSH1 0x4 DUP4 ADD MSTORE DUP8 AND PUSH1 0x24 DUP3 ADD MSTORE PUSH1 0x44 ADD PUSH2 0x48A JUMP JUMPDEST PUSH2 0xCFD DUP7 DUP7 DUP7 DUP7 DUP7 PUSH2 0x17D8 JUMP JUMPDEST POP POP POP POP POP POP JUMP JUMPDEST PUSH2 0xD0D PUSH2 0x16C5 JUMP JUMPDEST PUSH1 0x40 MLOAD PUSH4 0x70A08231 PUSH1 0xE0 SHL DUP2 MSTORE ADDRESS PUSH1 0x4 DUP3 ADD MSTORE PUSH1 0x0 SWAP1 PUSH1 0x1 PUSH1 0x1 PUSH1 0xA0 SHL SUB DUP4 AND SWAP1 PUSH4 0x70A08231 SWAP1 PUSH1 0x24 ADD PUSH1 0x20 PUSH1 0x40 MLOAD DUP1 DUP4 SUB DUP2 DUP7 GAS STATICCALL ISZERO DUP1 ISZERO PUSH2 0xD54 JUMPI RETURNDATASIZE PUSH1 0x0 DUP1 RETURNDATACOPY RETURNDATASIZE PUSH1 0x0 REVERT JUMPDEST POP POP POP POP PUSH1 0x40 MLOAD RETURNDATASIZE PUSH1 0x1F NOT PUSH1 0x1F DUP3 ADD AND DUP3 ADD DUP1 PUSH1 0x40 MSTORE POP DUP2 ADD SWAP1 PUSH2 0xD78 SWAP2 SWAP1 PUSH2 0x2EB6 JUMP JUMPDEST SWAP1 POP DUP1 PUSH1 0x0 SUB PUSH2 0xD9B JUMPI PUSH1 0x40 MLOAD PUSH4 0x686827B PUSH1 0xE5 SHL DUP2 MSTORE PUSH1 0x4 ADD PUSH1 0x40 MLOAD DUP1 SWAP2 SUB SWAP1 REVERT JUMPDEST PUSH2 0xDAF PUSH1 0x1 PUSH1 0x1 PUSH1 0xA0 SHL SUB DUP4 AND DUP5 DUP4 PUSH2 0x183F JUMP JUMPDEST POP POP POP JUMP JUMPDEST PUSH2 0xDBC PUSH2 0x16C5 JUMP JUMPDEST DUP1 PUSH32 0x0 PUSH1 0x1 PUSH1 0x1 PUSH1 0x40 SHL SUB AND DUP2 PUSH1 0x1 PUSH1 0x1 PUSH1 0x40 SHL SUB AND SUB PUSH2 0xE1A JUMPI PUSH1 0x40 MLOAD PUSH4 0x40D8E3A1 PUSH1 0xE0 SHL DUP2 MSTORE PUSH1 0x1 PUSH1 0x1 PUSH1 0x40 SHL SUB DUP3 AND PUSH1 0x4 DUP3 ADD MSTORE PUSH1 0x24 ADD PUSH2 0x48A JUMP JUMPDEST PUSH1 0x1 PUSH1 0x1 PUSH1 0x40 SHL SUB DUP3 AND PUSH1 0x0 SWAP1 DUP2 MSTORE PUSH1 0xA PUSH1 0x20 MSTORE PUSH1 0x40 DUP2 KECCAK256 DUP1 SLOAD PUSH1 0x1 PUSH1 0x1 PUSH1 0xA0 SHL SUB NOT AND DUP2 SSTORE SWAP1 PUSH2 0xE4E PUSH1 0x1 DUP4 ADD DUP3 PUSH2 0x22EC JUMP JUMPDEST POP POP PUSH1 0x40 MLOAD PUSH1 0x1 PUSH1 0x1 PUSH1 0x40 SHL SUB DUP4 AND DUP2 MSTORE PUSH32 0x67E02000179A6045F4DB8FB1B09F01E170B0347E0B698FC5112CE4D798EF19F6 SWAP1 PUSH1 0x20 ADD PUSH1 0x40 MLOAD DUP1 SWAP2 SUB SWAP1 LOG1 POP POP JUMP JUMPDEST PUSH1 0x60 DUP2 MLOAD DUP4 MLOAD EQ PUSH2 0xEC1 JUMPI DUP2 MLOAD DUP4 MLOAD PUSH1 0x40 MLOAD PUSH4 0x5B059991 PUSH1 0xE0 SHL DUP2 MSTORE PUSH1 0x4 DUP2 ADD SWAP3 SWAP1 SWAP3 MSTORE PUSH1 0x24 DUP3 ADD MSTORE PUSH1 0x44 ADD PUSH2 0x48A JUMP JUMPDEST PUSH1 0x0 DUP4 MLOAD PUSH1 0x1 PUSH1 0x1 PUSH1 0x40 SHL SUB DUP2 GT ISZERO PUSH2 0xEDC JUMPI PUSH2 0xEDC PUSH2 0x23CA JUMP JUMPDEST PUSH1 0x40 MLOAD SWAP1 DUP1 DUP3 MSTORE DUP1 PUSH1 0x20 MUL PUSH1 0x20 ADD DUP3 ADD PUSH1 0x40 MSTORE DUP1 ISZERO PUSH2 0xF05 JUMPI DUP2 PUSH1 0x20 ADD PUSH1 0x20 DUP3 MUL DUP1 CALLDATASIZE DUP4 CALLDATACOPY ADD SWAP1 POP JUMPDEST POP SWAP1 POP PUSH1 0x0 JUMPDEST DUP5 MLOAD DUP2 LT ISZERO PUSH2 0xF54 JUMPI PUSH1 0x20 DUP1 DUP3 MUL DUP7 ADD ADD MLOAD PUSH2 0xF2F SWAP1 PUSH1 0x20 DUP1 DUP5 MUL DUP8 ADD ADD MLOAD PUSH2 0x3DB JUMP JUMPDEST DUP3 DUP3 DUP2 MLOAD DUP2 LT PUSH2 0xF41 JUMPI PUSH2 0xF41 PUSH2 0x2F4A JUMP JUMPDEST PUSH1 0x20 SWAP1 DUP2 MUL SWAP2 SWAP1 SWAP2 ADD ADD MSTORE PUSH1 0x1 ADD PUSH2 0xF0B JUMP JUMPDEST POP SWAP4 SWAP3 POP POP POP JUMP JUMPDEST PUSH2 0xF64 PUSH2 0x16C5 JUMP JUMPDEST SELFBALANCE PUSH1 0x0 DUP2 SWAP1 SUB PUSH2 0xF87 JUMPI PUSH1 0x40 MLOAD PUSH4 0x686827B PUSH1 0xE5 SHL DUP2 MSTORE PUSH1 0x4 ADD PUSH1 0x40 MLOAD DUP1 SWAP2 SUB SWAP1 REVERT JUMPDEST PUSH1 0x0 DUP3 PUSH1 0x1 PUSH1 0x1 PUSH1 0xA0 SHL SUB AND DUP3 PUSH1 0x40 MLOAD PUSH1 0x0 PUSH1 0x40 MLOAD DUP1 DUP4 SUB DUP2 DUP6 DUP8 GAS CALL SWAP3 POP POP POP RETURNDATASIZE DUP1 PUSH1 0x0 DUP2 EQ PUSH2 0xFD4 JUMPI PUSH1 0x40 MLOAD SWAP2 POP PUSH1 0x1F NOT PUSH1 0x3F RETURNDATASIZE ADD AND DUP3 ADD PUSH1 0x40 MSTORE RETURNDATASIZE DUP3 MSTORE RETURNDATASIZE PUSH1 0x0 PUSH1 0x20 DUP5 ADD RETURNDATACOPY PUSH2 0xFD9 JUMP JUMPDEST PUSH1 0x60 SWAP2 POP JUMPDEST POP POP SWAP1 POP DUP1 PUSH2 0xDAF JUMPI PUSH1 0x40 MLOAD PUSH4 0x9D11F563 PUSH1 0xE0 SHL DUP2 MSTORE CALLER PUSH1 0x4 DUP3 ADD MSTORE PUSH1 0x1 PUSH1 0x1 PUSH1 0xA0 SHL SUB DUP5 AND PUSH1 0x24 DUP3 ADD MSTORE PUSH1 0x44 DUP2 ADD DUP4 SWAP1 MSTORE PUSH1 0x64 ADD PUSH2 0x48A JUMP JUMPDEST PUSH2 0x101B PUSH2 0x16C5 JUMP JUMPDEST PUSH1 0x7 DUP1 SLOAD PUSH1 0x1 PUSH1 0x1 PUSH1 0xA0 SHL SUB NOT AND PUSH1 0x1 PUSH1 0x1 PUSH1 0xA0 SHL SUB DUP4 AND SWAP1 DUP2 OR SWAP1 SWAP2 SSTORE PUSH1 0x40 MLOAD PUSH32 0xD56ED7B1C1110348B1FBF418469F6FC4ACC32D9B675E9E1E448CC19169A64CA0 SWAP1 PUSH1 0x0 SWAP1 LOG2 POP JUMP JUMPDEST PUSH1 0xA PUSH1 0x20 MSTORE PUSH1 0x0 SWAP1 DUP2 MSTORE PUSH1 0x40 SWAP1 KECCAK256 DUP1 SLOAD PUSH1 0x1 DUP3 ADD DUP1 SLOAD PUSH1 0x1 PUSH1 0x1 PUSH1 0xA0 SHL SUB SWAP1 SWAP3 AND SWAP3 SWAP2 PUSH2 0x1091 SWAP1 PUSH2 0x2BEE JUMP JUMPDEST DUP1 PUSH1 0x1F ADD PUSH1 0x20 DUP1 SWAP2 DIV MUL PUSH1 0x20 ADD PUSH1 0x40 MLOAD SWAP1 DUP2 ADD PUSH1 0x40 MSTORE DUP1 SWAP3 SWAP2 SWAP1 DUP2 DUP2 MSTORE PUSH1 0x20 ADD DUP3 DUP1 SLOAD PUSH2 0x10BD SWAP1 PUSH2 0x2BEE JUMP JUMPDEST DUP1 ISZERO PUSH2 0x110A JUMPI DUP1 PUSH1 0x1F LT PUSH2 0x10DF JUMPI PUSH2 0x100 DUP1 DUP4 SLOAD DIV MUL DUP4 MSTORE SWAP2 PUSH1 0x20 ADD SWAP2 PUSH2 0x110A JUMP JUMPDEST DUP3 ADD SWAP2 SWAP1 PUSH1 0x0 MSTORE PUSH1 0x20 PUSH1 0x0 KECCAK256 SWAP1 JUMPDEST DUP2 SLOAD DUP2 MSTORE SWAP1 PUSH1 0x1 ADD SWAP1 PUSH1 0x20 ADD DUP1 DUP4 GT PUSH2 0x10ED JUMPI DUP3 SWAP1 SUB PUSH1 0x1F AND DUP3 ADD SWAP2 JUMPDEST POP POP POP POP POP SWAP1 POP DUP3 JUMP JUMPDEST CALLER ADDRESS EQ DUP1 ISZERO SWAP1 PUSH2 0x112F JUMPI POP PUSH1 0x7 SLOAD PUSH1 0x1 PUSH1 0x1 PUSH1 0xA0 SHL SUB AND CALLER EQ ISZERO JUMPDEST ISZERO PUSH2 0x114F JUMPI PUSH1 0x40 MLOAD PUSH4 0x77251379 PUSH1 0xE1 SHL DUP2 MSTORE CALLER PUSH1 0x4 DUP3 ADD MSTORE PUSH1 0x24 ADD PUSH2 0x48A JUMP JUMPDEST PUSH1 0x1 PUSH1 0x1 PUSH1 0xA0 SHL SUB DUP4 AND CALLER EQ DUP1 ISZERO SWAP1 PUSH2 0x116F JUMPI POP PUSH2 0x116D DUP4 CALLER PUSH2 0x1566 JUMP JUMPDEST ISZERO JUMPDEST ISZERO PUSH2 0x11A3 JUMPI CALLER JUMPDEST PUSH1 0x40 MLOAD PUSH4 0x711BEC91 PUSH1 0xE1 SHL DUP2 MSTORE PUSH1 0x1 PUSH1 0x1 PUSH1 0xA0 SHL SUB SWAP2 DUP3 AND PUSH1 0x4 DUP3 ADD MSTORE SWAP1 DUP5 AND PUSH1 0x24 DUP3 ADD MSTORE PUSH1 0x44 ADD PUSH2 0x48A JUMP JUMPDEST PUSH2 0xDAF DUP4 DUP4 DUP4 PUSH2 0x1891 JUMP JUMPDEST PUSH1 0x6 SLOAD PUSH1 0x1 PUSH1 0x1 PUSH1 0xA0 SHL SUB AND CALLER EQ PUSH2 0x1201 JUMPI PUSH1 0x40 MLOAD PUSH3 0x461BCD PUSH1 0xE5 SHL DUP2 MSTORE PUSH1 0x20 PUSH1 0x4 DUP3 ADD MSTORE PUSH1 0x16 PUSH1 0x24 DUP3 ADD MSTORE PUSH22 0x26BAB9BA10313290383937B837B9B2B21037BBB732B9 PUSH1 0x51 SHL PUSH1 0x44 DUP3 ADD MSTORE PUSH1 0x64 ADD PUSH2 0x48A JUMP JUMPDEST PUSH1 0x5 DUP1 SLOAD PUSH1 0x1 PUSH1 0x1 PUSH1 0xA0 SHL SUB NOT DUP1 DUP3 AND CALLER SWAP1 DUP2 OR SWAP1 SWAP4 SSTORE PUSH1 0x6 DUP1 SLOAD SWAP1 SWAP2 AND SWAP1 SSTORE PUSH1 0x40 MLOAD PUSH1 0x1 PUSH1 0x1 PUSH1 0xA0 SHL SUB SWAP1 SWAP2 AND SWAP2 SWAP1 DUP3 SWAP1 PUSH32 0x8BE0079C531659141344CD1FD0A4F28419497F9722A3DAAFE3B4186F6B6457E0 SWAP1 PUSH1 0x0 SWAP1 LOG3 POP JUMP JUMPDEST CALLER PUSH1 0x1 PUSH1 0x1 PUSH1 0xA0 SHL SUB PUSH32 0x0 AND EQ PUSH2 0x12A7 JUMPI PUSH1 0x40 MLOAD PUSH4 0x35FDCCCD PUSH1 0xE2 SHL DUP2 MSTORE CALLER PUSH1 0x4 DUP3 ADD MSTORE PUSH1 0x24 ADD PUSH2 0x48A JUMP JUMPDEST PUSH2 0x12AF PUSH2 0x17AE JUMP JUMPDEST PUSH2 0x12BF PUSH1 0x40 DUP3 ADD PUSH1 0x20 DUP4 ADD PUSH2 0x2770 JUMP JUMPDEST PUSH1 0x1 PUSH1 0x1 PUSH1 0x40 SHL SUB DUP2 AND PUSH1 0x0 SWAP1 DUP2 MSTORE PUSH1 0xA PUSH1 0x20 MSTORE PUSH1 0x40 SWAP1 KECCAK256 SLOAD PUSH1 0x1 PUSH1 0x1 PUSH1 0xA0 SHL SUB AND PUSH2 0x1309 JUMPI PUSH1 0x40 MLOAD PUSH4 0xE19FDF7 PUSH1 0xE1 SHL DUP2 MSTORE PUSH1 0x1 PUSH1 0x1 PUSH1 0x40 SHL SUB DUP3 AND PUSH1 0x4 DUP3 ADD MSTORE PUSH1 0x24 ADD PUSH2 0x48A JUMP JUMPDEST PUSH2 0x1319 PUSH1 0x40 DUP4 ADD PUSH1 0x20 DUP5 ADD PUSH2 0x2770 JUMP JUMPDEST PUSH2 0x1326 PUSH1 0x40 DUP5 ADD DUP5 PUSH2 0x2F60 JUMP JUMPDEST DUP2 ADD SWAP1 PUSH2 0x1333 SWAP2 SWAP1 PUSH2 0x289B JUMP JUMPDEST PUSH1 0x1 PUSH1 0x1 PUSH1 0x40 SHL SUB DUP3 AND PUSH1 0x0 SWAP1 DUP2 MSTORE PUSH1 0xA PUSH1 0x20 MSTORE PUSH1 0x40 SWAP1 KECCAK256 SLOAD PUSH1 0x1 PUSH1 0x1 PUSH1 0xA0 SHL SUB DUP3 DUP2 AND SWAP2 AND EQ PUSH2 0x1382 JUMPI PUSH1 0x40 MLOAD PUSH4 0xBAF46CD1 PUSH1 0xE0 SHL DUP2 MSTORE PUSH1 0x1 PUSH1 0x1 PUSH1 0xA0 SHL SUB DUP3 AND PUSH1 0x4 DUP3 ADD MSTORE PUSH1 0x24 ADD PUSH2 0x48A JUMP JUMPDEST PUSH1 0x0 PUSH2 0x1394 PUSH1 0x40 DUP7 ADD PUSH1 0x20 DUP8 ADD PUSH2 0x2770 JUMP JUMPDEST SWAP1 POP PUSH1 0x0 DUP1 DUP1 DUP1 DUP1 DUP1 PUSH2 0x13AA PUSH1 0x60 DUP13 ADD DUP13 PUSH2 0x2F60 JUMP JUMPDEST DUP2 ADD SWAP1 PUSH2 0x13B7 SWAP2 SWAP1 PUSH2 0x2FAD JUMP JUMPDEST SWAP6 POP SWAP6 POP SWAP6 POP SWAP6 POP SWAP6 POP SWAP6 POP PUSH2 0x13D0 DUP6 DUP6 DUP6 DUP6 DUP6 PUSH2 0x1507 JUMP JUMPDEST PUSH32 0x8A69E2B5FBCC69A1F5D6326FB26DB5BC43CD18D09D2E79A48A50B77DA16432F9 DUP7 DUP7 DUP7 DUP7 DUP7 DUP13 PUSH32 0x0 PUSH1 0x40 MLOAD PUSH2 0x142B SWAP8 SWAP7 SWAP6 SWAP5 SWAP4 SWAP3 SWAP2 SWAP1 PUSH2 0x2EEC JUMP JUMPDEST PUSH1 0x40 MLOAD DUP1 SWAP2 SUB SWAP1 LOG1 POP POP POP POP POP POP POP POP POP POP PUSH2 0x1447 PUSH1 0x1 PUSH1 0x9 SSTORE JUMP JUMPDEST POP JUMP JUMPDEST PUSH2 0x1455 CALLER DUP4 DUP4 PUSH2 0x18D7 JUMP JUMPDEST POP POP JUMP JUMPDEST CALLER ADDRESS EQ DUP1 ISZERO SWAP1 PUSH2 0x1474 JUMPI POP PUSH1 0x7 SLOAD PUSH1 0x1 PUSH1 0x1 PUSH1 0xA0 SHL SUB AND CALLER EQ ISZERO JUMPDEST ISZERO PUSH2 0x1494 JUMPI PUSH1 0x40 MLOAD PUSH4 0x77251379 PUSH1 0xE1 SHL DUP2 MSTORE CALLER PUSH1 0x4 DUP3 ADD MSTORE PUSH1 0x24 ADD PUSH2 0x48A JUMP JUMPDEST PUSH2 0x14A0 DUP6 DUP6 DUP6 DUP6 PUSH2 0x196D JUMP JUMPDEST PUSH1 0x0 JUMPDEST DUP5 MLOAD DUP2 LT ISZERO PUSH2 0xCFD JUMPI DUP2 DUP2 DUP2 MLOAD DUP2 LT PUSH2 0x14BE JUMPI PUSH2 0x14BE PUSH2 0x2F4A JUMP JUMPDEST PUSH1 0x20 MUL PUSH1 0x20 ADD ADD MLOAD PUSH1 0x8 PUSH1 0x0 DUP8 DUP5 DUP2 MLOAD DUP2 LT PUSH2 0x14DC JUMPI PUSH2 0x14DC PUSH2 0x2F4A JUMP JUMPDEST PUSH1 0x20 MUL PUSH1 0x20 ADD ADD MLOAD DUP2 MSTORE PUSH1 0x20 ADD SWAP1 DUP2 MSTORE PUSH1 0x20 ADD PUSH1 0x0 KECCAK256 SWAP1 DUP2 PUSH2 0x14FE SWAP2 SWAP1 PUSH2 0x2C70 JUMP JUMPDEST POP PUSH1 0x1 ADD PUSH2 0x14A3 JUMP JUMPDEST CALLER ADDRESS EQ DUP1 ISZERO SWAP1 PUSH2 0x1522 JUMPI POP PUSH1 0x7 SLOAD PUSH1 0x1 PUSH1 0x1 PUSH1 0xA0 SHL SUB AND CALLER EQ ISZERO JUMPDEST ISZERO PUSH2 0x1542 JUMPI PUSH1 0x40 MLOAD PUSH4 0x77251379 PUSH1 0xE1 SHL DUP2 MSTORE CALLER PUSH1 0x4 DUP3 ADD MSTORE PUSH1 0x24 ADD PUSH2 0x48A JUMP JUMPDEST PUSH2 0x154E DUP6 DUP6 DUP6 DUP6 PUSH2 0x19AB JUMP JUMPDEST PUSH1 0x0 DUP5 DUP2 MSTORE PUSH1 0x8 PUSH1 0x20 MSTORE PUSH1 0x40 SWAP1 KECCAK256 PUSH2 0xCFD DUP3 DUP3 PUSH2 0x2C70 JUMP JUMPDEST PUSH1 0x1 PUSH1 0x1 PUSH1 0xA0 SHL SUB SWAP2 DUP3 AND PUSH1 0x0 SWAP1 DUP2 MSTORE PUSH1 0x1 PUSH1 0x20 SWAP1 DUP2 MSTORE PUSH1 0x40 DUP1 DUP4 KECCAK256 SWAP4 SWAP1 SWAP5 AND DUP3 MSTORE SWAP2 SWAP1 SWAP2 MSTORE KECCAK256 SLOAD PUSH1 0xFF AND SWAP1 JUMP JUMPDEST CALLER PUSH1 0x1 PUSH1 0x1 PUSH1 0xA0 SHL SUB DUP7 AND DUP2 EQ DUP1 ISZERO SWAP1 PUSH2 0x15B5 JUMPI POP PUSH2 0x15B3 DUP7 DUP3 PUSH2 0x1566 JUMP JUMPDEST ISZERO JUMPDEST ISZERO PUSH2 0x15E6 JUMPI PUSH1 0x40 MLOAD PUSH4 0x711BEC91 PUSH1 0xE1 SHL DUP2 MSTORE PUSH1 0x1 PUSH1 0x1 PUSH1 0xA0 SHL SUB DUP1 DUP4 AND PUSH1 0x4 DUP4 ADD MSTORE DUP8 AND PUSH1 0x24 DUP3 ADD MSTORE PUSH1 0x44 ADD PUSH2 0x48A JUMP JUMPDEST PUSH2 0xCFD DUP7 DUP7 DUP7 DUP7 DUP7 PUSH2 0x1A08 JUMP JUMPDEST PUSH2 0x15FB PUSH2 0x16C5 JUMP JUMPDEST PUSH2 0x1447 DUP2 PUSH2 0x1A96 JUMP JUMPDEST CALLER ADDRESS EQ DUP1 ISZERO SWAP1 PUSH2 0x161F JUMPI POP PUSH1 0x7 SLOAD PUSH1 0x1 PUSH1 0x1 PUSH1 0xA0 SHL SUB AND CALLER EQ ISZERO JUMPDEST ISZERO PUSH2 0x163F JUMPI PUSH1 0x40 MLOAD PUSH4 0x77251379 PUSH1 0xE1 SHL DUP2 MSTORE CALLER PUSH1 0x4 DUP3 ADD MSTORE PUSH1 0x24 ADD PUSH2 0x48A JUMP JUMPDEST PUSH1 0x1 PUSH1 0x1 PUSH1 0xA0 SHL SUB DUP4 AND CALLER EQ DUP1 ISZERO SWAP1 PUSH2 0x165F JUMPI POP PUSH2 0x165D DUP4 CALLER PUSH2 0x1566 JUMP JUMPDEST ISZERO JUMPDEST ISZERO PUSH2 0x166A JUMPI CALLER PUSH2 0x1176 JUMP JUMPDEST PUSH2 0xDAF DUP4 DUP4 DUP4 PUSH2 0x1B40 JUMP JUMPDEST PUSH1 0x0 PUSH1 0x1 PUSH1 0x1 PUSH1 0xE0 SHL SUB NOT DUP3 AND PUSH4 0x6CDB3D13 PUSH1 0xE1 SHL EQ DUP1 PUSH2 0x16A6 JUMPI POP PUSH1 0x1 PUSH1 0x1 PUSH1 0xE0 SHL SUB NOT DUP3 AND PUSH4 0x3A24D07 PUSH1 0xE2 SHL EQ JUMPDEST DUP1 PUSH2 0x3FD JUMPI POP PUSH4 0x1FFC9A7 PUSH1 0xE0 SHL PUSH1 0x1 PUSH1 0x1 PUSH1 0xE0 SHL SUB NOT DUP4 AND EQ PUSH2 0x3FD JUMP JUMPDEST PUSH1 0x5 SLOAD PUSH1 0x1 PUSH1 0x1 PUSH1 0xA0 SHL SUB AND CALLER EQ PUSH2 0x1718 JUMPI PUSH1 0x40 MLOAD PUSH3 0x461BCD PUSH1 0xE5 SHL DUP2 MSTORE PUSH1 0x20 PUSH1 0x4 DUP3 ADD MSTORE PUSH1 0x16 PUSH1 0x24 DUP3 ADD MSTORE PUSH22 0x27B7363C9031B0B63630B1363290313C9037BBB732B9 PUSH1 0x51 SHL PUSH1 0x44 DUP3 ADD MSTORE PUSH1 0x64 ADD PUSH2 0x48A JUMP JUMPDEST JUMP JUMPDEST PUSH1 0x60 PUSH1 0x2 DUP1 SLOAD PUSH2 0x1729 SWAP1 PUSH2 0x2BEE JUMP JUMPDEST DUP1 PUSH1 0x1F ADD PUSH1 0x20 DUP1 SWAP2 DIV MUL PUSH1 0x20 ADD PUSH1 0x40 MLOAD SWAP1 DUP2 ADD PUSH1 0x40 MSTORE DUP1 SWAP3 SWAP2 SWAP1 DUP2 DUP2 MSTORE PUSH1 0x20 ADD DUP3 DUP1 SLOAD PUSH2 0x1755 SWAP1 PUSH2 0x2BEE JUMP JUMPDEST DUP1 ISZERO PUSH2 0x17A2 JUMPI DUP1 PUSH1 0x1F LT PUSH2 0x1777 JUMPI PUSH2 0x100 DUP1 DUP4 SLOAD DIV MUL DUP4 MSTORE SWAP2 PUSH1 0x20 ADD SWAP2 PUSH2 0x17A2 JUMP JUMPDEST DUP3 ADD SWAP2 SWAP1 PUSH1 0x0 MSTORE PUSH1 0x20 PUSH1 0x0 KECCAK256 SWAP1 JUMPDEST DUP2 SLOAD DUP2 MSTORE SWAP1 PUSH1 0x1 ADD SWAP1 PUSH1 0x20 ADD DUP1 DUP4 GT PUSH2 0x1785 JUMPI DUP3 SWAP1 SUB PUSH1 0x1F AND DUP3 ADD SWAP2 JUMPDEST POP POP POP POP POP SWAP1 POP SWAP2 SWAP1 POP JUMP JUMPDEST PUSH1 0x2 PUSH1 0x9 SLOAD SUB PUSH2 0x17D1 JUMPI PUSH1 0x40 MLOAD PUSH4 0x3EE5AEB5 PUSH1 0xE0 SHL DUP2 MSTORE PUSH1 0x4 ADD PUSH1 0x40 MLOAD DUP1 SWAP2 SUB SWAP1 REVERT JUMPDEST PUSH1 0x2 PUSH1 0x9 SSTORE JUMP JUMPDEST PUSH1 0x1 PUSH1 0x1 PUSH1 0xA0 SHL SUB DUP5 AND PUSH2 0x1802 JUMPI PUSH1 0x40 MLOAD PUSH4 0x2BFA23E7 PUSH1 0xE1 SHL DUP2 MSTORE PUSH1 0x0 PUSH1 0x4 DUP3 ADD MSTORE PUSH1 0x24 ADD PUSH2 0x48A JUMP JUMPDEST PUSH1 0x1 PUSH1 0x1 PUSH1 0xA0 SHL SUB DUP6 AND PUSH2 0x182B JUMPI PUSH1 0x40 MLOAD PUSH3 0x6A0D45 PUSH1 0xE2 SHL DUP2 MSTORE PUSH1 0x0 PUSH1 0x4 DUP3 ADD MSTORE PUSH1 0x24 ADD PUSH2 0x48A JUMP JUMPDEST PUSH2 0x1838 DUP6 DUP6 DUP6 DUP6 DUP6 PUSH2 0x1BA4 JUMP JUMPDEST POP POP POP POP POP JUMP JUMPDEST PUSH1 0x40 DUP1 MLOAD PUSH1 0x1 PUSH1 0x1 PUSH1 0xA0 SHL SUB DUP5 AND PUSH1 0x24 DUP3 ADD MSTORE PUSH1 0x44 DUP1 DUP3 ADD DUP5 SWAP1 MSTORE DUP3 MLOAD DUP1 DUP4 SUB SWAP1 SWAP2 ADD DUP2 MSTORE PUSH1 0x64 SWAP1 SWAP2 ADD SWAP1 SWAP2 MSTORE PUSH1 0x20 DUP2 ADD DUP1 MLOAD PUSH1 0x1 PUSH1 0x1 PUSH1 0xE0 SHL SUB AND PUSH4 0xA9059CBB PUSH1 0xE0 SHL OR SWAP1 MSTORE PUSH2 0xDAF SWAP1 DUP5 SWAP1 PUSH2 0x1BF7 JUMP JUMPDEST PUSH1 0x1 PUSH1 0x1 PUSH1 0xA0 SHL SUB DUP4 AND PUSH2 0x18BA JUMPI PUSH1 0x40 MLOAD PUSH3 0x6A0D45 PUSH1 0xE2 SHL DUP2 MSTORE PUSH1 0x0 PUSH1 0x4 DUP3 ADD MSTORE PUSH1 0x24 ADD PUSH2 0x48A JUMP JUMPDEST PUSH2 0xDAF DUP4 PUSH1 0x0 DUP5 DUP5 PUSH1 0x40 MLOAD DUP1 PUSH1 0x20 ADD PUSH1 0x40 MSTORE DUP1 PUSH1 0x0 DUP2 MSTORE POP PUSH2 0x1BA4 JUMP JUMPDEST PUSH1 0x1 PUSH1 0x1 PUSH1 0xA0 SHL SUB DUP3 AND PUSH2 0x1900 JUMPI PUSH1 0x40 MLOAD PUSH3 0xCED3E1 PUSH1 0xE8 SHL DUP2 MSTORE PUSH1 0x0 PUSH1 0x4 DUP3 ADD MSTORE PUSH1 0x24 ADD PUSH2 0x48A JUMP JUMPDEST PUSH1 0x1 PUSH1 0x1 PUSH1 0xA0 SHL SUB DUP4 DUP2 AND PUSH1 0x0 DUP2 DUP2 MSTORE PUSH1 0x1 PUSH1 0x20 SWAP1 DUP2 MSTORE PUSH1 0x40 DUP1 DUP4 KECCAK256 SWAP5 DUP8 AND DUP1 DUP5 MSTORE SWAP5 DUP3 MSTORE SWAP2 DUP3 SWAP1 KECCAK256 DUP1 SLOAD PUSH1 0xFF NOT AND DUP7 ISZERO ISZERO SWAP1 DUP2 OR SWAP1 SWAP2 SSTORE SWAP2 MLOAD SWAP2 DUP3 MSTORE PUSH32 0x17307EAB39AB6107E8899845AD3D59BD9653F200F220920489CA2B5937696C31 SWAP2 ADD PUSH1 0x40 MLOAD DUP1 SWAP2 SUB SWAP1 LOG3 POP POP POP JUMP JUMPDEST PUSH1 0x1 PUSH1 0x1 PUSH1 0xA0 SHL SUB DUP5 AND PUSH2 0x1997 JUMPI PUSH1 0x40 MLOAD PUSH4 0x2BFA23E7 PUSH1 0xE1 SHL DUP2 MSTORE PUSH1 0x0 PUSH1 0x4 DUP3 ADD MSTORE PUSH1 0x24 ADD PUSH2 0x48A JUMP JUMPDEST PUSH2 0x19A5 PUSH1 0x0 DUP6 DUP6 DUP6 DUP6 PUSH2 0x1BA4 JUMP JUMPDEST POP POP POP POP JUMP JUMPDEST PUSH1 0x1 PUSH1 0x1 PUSH1 0xA0 SHL SUB DUP5 AND PUSH2 0x19D5 JUMPI PUSH1 0x40 MLOAD PUSH4 0x2BFA23E7 PUSH1 0xE1 SHL DUP2 MSTORE PUSH1 0x0 PUSH1 0x4 DUP3 ADD MSTORE PUSH1 0x24 ADD PUSH2 0x48A JUMP JUMPDEST PUSH1 0x40 DUP1 MLOAD PUSH1 0x1 DUP1 DUP3 MSTORE PUSH1 0x20 DUP3 ADD DUP7 SWAP1 MSTORE DUP2 DUP4 ADD SWAP1 DUP2 MSTORE PUSH1 0x60 DUP3 ADD DUP6 SWAP1 MSTORE PUSH1 0x80 DUP3 ADD SWAP1 SWAP3 MSTORE SWAP1 PUSH2 0xCFD PUSH1 0x0 DUP8 DUP5 DUP5 DUP8 PUSH2 0x1BA4 JUMP JUMPDEST PUSH1 0x1 PUSH1 0x1 PUSH1 0xA0 SHL SUB DUP5 AND PUSH2 0x1A32 JUMPI PUSH1 0x40 MLOAD PUSH4 0x2BFA23E7 PUSH1 0xE1 SHL DUP2 MSTORE PUSH1 0x0 PUSH1 0x4 DUP3 ADD MSTORE PUSH1 0x24 ADD PUSH2 0x48A JUMP JUMPDEST PUSH1 0x1 PUSH1 0x1 PUSH1 0xA0 SHL SUB DUP6 AND PUSH2 0x1A5B JUMPI PUSH1 0x40 MLOAD PUSH3 0x6A0D45 PUSH1 0xE2 SHL DUP2 MSTORE PUSH1 0x0 PUSH1 0x4 DUP3 ADD MSTORE PUSH1 0x24 ADD PUSH2 0x48A JUMP JUMPDEST PUSH1 0x40 DUP1 MLOAD PUSH1 0x1 DUP1 DUP3 MSTORE PUSH1 0x20 DUP3 ADD DUP7 SWAP1 MSTORE DUP2 DUP4 ADD SWAP1 DUP2 MSTORE PUSH1 0x60 DUP3 ADD DUP6 SWAP1 MSTORE PUSH1 0x80 DUP3 ADD SWAP1 SWAP3 MSTORE SWAP1 PUSH2 0x1A8D DUP8 DUP8 DUP5 DUP5 DUP8 PUSH2 0x1BA4 JUMP JUMPDEST POP POP POP POP POP POP POP JUMP JUMPDEST CALLER PUSH1 0x1 PUSH1 0x1 PUSH1 0xA0 SHL SUB DUP3 AND SUB PUSH2 0x1AEE JUMPI PUSH1 0x40 MLOAD PUSH3 0x461BCD PUSH1 0xE5 SHL DUP2 MSTORE PUSH1 0x20 PUSH1 0x4 DUP3 ADD MSTORE PUSH1 0x17 PUSH1 0x24 DUP3 ADD MSTORE PUSH32 0x43616E6E6F74207472616E7366657220746F2073656C66000000000000000000 PUSH1 0x44 DUP3 ADD MSTORE PUSH1 0x64 ADD PUSH2 0x48A JUMP JUMPDEST PUSH1 0x6 DUP1 SLOAD PUSH1 0x1 PUSH1 0x1 PUSH1 0xA0 SHL SUB NOT AND PUSH1 0x1 PUSH1 0x1 PUSH1 0xA0 SHL SUB DUP4 DUP2 AND SWAP2 DUP3 OR SWAP1 SWAP3 SSTORE PUSH1 0x5 SLOAD PUSH1 0x40 MLOAD SWAP2 SWAP3 AND SWAP1 PUSH32 0xED8889F560326EB138920D842192F0EB3DD22B4F139C87A2C57538E05BAE1278 SWAP1 PUSH1 0x0 SWAP1 LOG3 POP JUMP JUMPDEST PUSH1 0x1 PUSH1 0x1 PUSH1 0xA0 SHL SUB DUP4 AND PUSH2 0x1B69 JUMPI PUSH1 0x40 MLOAD PUSH3 0x6A0D45 PUSH1 0xE2 SHL DUP2 MSTORE PUSH1 0x0 PUSH1 0x4 DUP3 ADD MSTORE PUSH1 0x24 ADD PUSH2 0x48A JUMP JUMPDEST PUSH1 0x40 DUP1 MLOAD PUSH1 0x1 DUP1 DUP3 MSTORE PUSH1 0x20 DUP3 ADD DUP6 SWAP1 MSTORE DUP2 DUP4 ADD SWAP1 DUP2 MSTORE PUSH1 0x60 DUP3 ADD DUP5 SWAP1 MSTORE PUSH1 0xA0 DUP3 ADD SWAP1 SWAP3 MSTORE PUSH1 0x0 PUSH1 0x80 DUP3 ADD DUP2 DUP2 MSTORE SWAP2 SWAP3 SWAP2 PUSH2 0x1838 SWAP2 DUP8 SWAP2 DUP6 SWAP1 DUP6 SWAP1 JUMPDEST PUSH2 0x1BB0 DUP6 DUP6 DUP6 DUP6 PUSH2 0x1C5A JUMP JUMPDEST PUSH1 0x1 PUSH1 0x1 PUSH1 0xA0 SHL SUB DUP5 AND ISZERO PUSH2 0x1838 JUMPI DUP3 MLOAD CALLER SWAP1 PUSH1 0x1 SUB PUSH2 0x1BE9 JUMPI PUSH1 0x20 DUP5 DUP2 ADD MLOAD SWAP1 DUP5 ADD MLOAD PUSH2 0x1BE2 DUP4 DUP10 DUP10 DUP6 DUP6 DUP10 PUSH2 0x1DA0 JUMP JUMPDEST POP POP PUSH2 0xCFD JUMP JUMPDEST PUSH2 0xCFD DUP2 DUP8 DUP8 DUP8 DUP8 DUP8 PUSH2 0x1EC4 JUMP JUMPDEST PUSH1 0x0 PUSH2 0x1C0C PUSH1 0x1 PUSH1 0x1 PUSH1 0xA0 SHL SUB DUP5 AND DUP4 PUSH2 0x1FAD JUMP JUMPDEST SWAP1 POP DUP1 MLOAD PUSH1 0x0 EQ ISZERO DUP1 ISZERO PUSH2 0x1C31 JUMPI POP DUP1 DUP1 PUSH1 0x20 ADD SWAP1 MLOAD DUP2 ADD SWAP1 PUSH2 0x1C2F SWAP2 SWAP1 PUSH2 0x2ECF JUMP JUMPDEST ISZERO JUMPDEST ISZERO PUSH2 0xDAF JUMPI PUSH1 0x40 MLOAD PUSH4 0x5274AFE7 PUSH1 0xE0 SHL DUP2 MSTORE PUSH1 0x1 PUSH1 0x1 PUSH1 0xA0 SHL SUB DUP5 AND PUSH1 0x4 DUP3 ADD MSTORE PUSH1 0x24 ADD PUSH2 0x48A JUMP JUMPDEST PUSH2 0x1C66 DUP5 DUP5 DUP5 DUP5 PUSH2 0x1FBB JUMP JUMPDEST PUSH1 0x1 PUSH1 0x1 PUSH1 0xA0 SHL SUB DUP5 AND PUSH2 0x1D10 JUMPI PUSH1 0x0 DUP1 JUMPDEST DUP4 MLOAD DUP2 LT ISZERO PUSH2 0x1CF6 JUMPI PUSH1 0x0 DUP4 DUP3 DUP2 MLOAD DUP2 LT PUSH2 0x1C95 JUMPI PUSH2 0x1C95 PUSH2 0x2F4A JUMP JUMPDEST PUSH1 0x20 MUL PUSH1 0x20 ADD ADD MLOAD SWAP1 POP DUP1 PUSH1 0x3 PUSH1 0x0 DUP8 DUP6 DUP2 MLOAD DUP2 LT PUSH2 0x1CB6 JUMPI PUSH2 0x1CB6 PUSH2 0x2F4A JUMP JUMPDEST PUSH1 0x20 MUL PUSH1 0x20 ADD ADD MLOAD DUP2 MSTORE PUSH1 0x20 ADD SWAP1 DUP2 MSTORE PUSH1 0x20 ADD PUSH1 0x0 KECCAK256 PUSH1 0x0 DUP3 DUP3 SLOAD PUSH2 0x1CDB SWAP2 SWAP1 PUSH2 0x3047 JUMP JUMPDEST SWAP1 SWAP2 SSTORE POP PUSH2 0x1CEB SWAP1 POP DUP2 DUP5 PUSH2 0x3047 JUMP JUMPDEST SWAP3 POP POP PUSH1 0x1 ADD PUSH2 0x1C78 JUMP JUMPDEST POP DUP1 PUSH1 0x4 PUSH1 0x0 DUP3 DUP3 SLOAD PUSH2 0x1D09 SWAP2 SWAP1 PUSH2 0x3047 JUMP JUMPDEST SWAP1 SWAP2 SSTORE POP POP POP JUMPDEST PUSH1 0x1 PUSH1 0x1 PUSH1 0xA0 SHL SUB DUP4 AND PUSH2 0x19A5 JUMPI PUSH1 0x0 DUP1 JUMPDEST DUP4 MLOAD DUP2 LT ISZERO PUSH2 0x1D8F JUMPI PUSH1 0x0 DUP4 DUP3 DUP2 MLOAD DUP2 LT PUSH2 0x1D3F JUMPI PUSH2 0x1D3F PUSH2 0x2F4A JUMP JUMPDEST PUSH1 0x20 MUL PUSH1 0x20 ADD ADD MLOAD SWAP1 POP DUP1 PUSH1 0x3 PUSH1 0x0 DUP8 DUP6 DUP2 MLOAD DUP2 LT PUSH2 0x1D60 JUMPI PUSH2 0x1D60 PUSH2 0x2F4A JUMP JUMPDEST PUSH1 0x20 SWAP1 DUP2 MUL SWAP2 SWAP1 SWAP2 ADD DUP2 ADD MLOAD DUP3 MSTORE DUP2 ADD SWAP2 SWAP1 SWAP2 MSTORE PUSH1 0x40 ADD PUSH1 0x0 KECCAK256 DUP1 SLOAD SWAP2 SWAP1 SWAP2 SUB SWAP1 SSTORE SWAP2 SWAP1 SWAP2 ADD SWAP1 PUSH1 0x1 ADD PUSH2 0x1D22 JUMP JUMPDEST POP PUSH1 0x4 DUP1 SLOAD SWAP2 SWAP1 SWAP2 SUB SWAP1 SSTORE POP POP POP POP JUMP JUMPDEST PUSH1 0x1 PUSH1 0x1 PUSH1 0xA0 SHL SUB DUP5 AND EXTCODESIZE ISZERO PUSH2 0xCFD JUMPI PUSH1 0x40 MLOAD PUSH4 0xF23A6E61 PUSH1 0xE0 SHL DUP2 MSTORE PUSH1 0x1 PUSH1 0x1 PUSH1 0xA0 SHL SUB DUP6 AND SWAP1 PUSH4 0xF23A6E61 SWAP1 PUSH2 0x1DE4 SWAP1 DUP10 SWAP1 DUP10 SWAP1 DUP9 SWAP1 DUP9 SWAP1 DUP9 SWAP1 PUSH1 0x4 ADD PUSH2 0x3068 JUMP JUMPDEST PUSH1 0x20 PUSH1 0x40 MLOAD DUP1 DUP4 SUB DUP2 PUSH1 0x0 DUP8 GAS CALL SWAP3 POP POP POP DUP1 ISZERO PUSH2 0x1E1F JUMPI POP PUSH1 0x40 DUP1 MLOAD PUSH1 0x1F RETURNDATASIZE SWAP1 DUP2 ADD PUSH1 0x1F NOT AND DUP3 ADD SWAP1 SWAP3 MSTORE PUSH2 0x1E1C SWAP2 DUP2 ADD SWAP1 PUSH2 0x30A2 JUMP JUMPDEST PUSH1 0x1 JUMPDEST PUSH2 0x1E88 JUMPI RETURNDATASIZE DUP1 DUP1 ISZERO PUSH2 0x1E4D JUMPI PUSH1 0x40 MLOAD SWAP2 POP PUSH1 0x1F NOT PUSH1 0x3F RETURNDATASIZE ADD AND DUP3 ADD PUSH1 0x40 MSTORE RETURNDATASIZE DUP3 MSTORE RETURNDATASIZE PUSH1 0x0 PUSH1 0x20 DUP5 ADD RETURNDATACOPY PUSH2 0x1E52 JUMP JUMPDEST PUSH1 0x60 SWAP2 POP JUMPDEST POP DUP1 MLOAD PUSH1 0x0 SUB PUSH2 0x1E80 JUMPI PUSH1 0x40 MLOAD PUSH4 0x2BFA23E7 PUSH1 0xE1 SHL DUP2 MSTORE PUSH1 0x1 PUSH1 0x1 PUSH1 0xA0 SHL SUB DUP7 AND PUSH1 0x4 DUP3 ADD MSTORE PUSH1 0x24 ADD PUSH2 0x48A JUMP JUMPDEST DUP1 MLOAD DUP2 PUSH1 0x20 ADD REVERT JUMPDEST PUSH1 0x1 PUSH1 0x1 PUSH1 0xE0 SHL SUB NOT DUP2 AND PUSH4 0xF23A6E61 PUSH1 0xE0 SHL EQ PUSH2 0x1A8D JUMPI PUSH1 0x40 MLOAD PUSH4 0x2BFA23E7 PUSH1 0xE1 SHL DUP2 MSTORE PUSH1 0x1 PUSH1 0x1 PUSH1 0xA0 SHL SUB DUP7 AND PUSH1 0x4 DUP3 ADD MSTORE PUSH1 0x24 ADD PUSH2 0x48A JUMP JUMPDEST PUSH1 0x1 PUSH1 0x1 PUSH1 0xA0 SHL SUB DUP5 AND EXTCODESIZE ISZERO PUSH2 0xCFD JUMPI PUSH1 0x40 MLOAD PUSH4 0xBC197C81 PUSH1 0xE0 SHL DUP2 MSTORE PUSH1 0x1 PUSH1 0x1 PUSH1 0xA0 SHL SUB DUP6 AND SWAP1 PUSH4 0xBC197C81 SWAP1 PUSH2 0x1F08 SWAP1 DUP10 SWAP1 DUP10 SWAP1 DUP9 SWAP1 DUP9 SWAP1 DUP9 SWAP1 PUSH1 0x4 ADD PUSH2 0x30BF JUMP JUMPDEST PUSH1 0x20 PUSH1 0x40 MLOAD DUP1 DUP4 SUB DUP2 PUSH1 0x0 DUP8 GAS CALL SWAP3 POP POP POP DUP1 ISZERO PUSH2 0x1F43 JUMPI POP PUSH1 0x40 DUP1 MLOAD PUSH1 0x1F RETURNDATASIZE SWAP1 DUP2 ADD PUSH1 0x1F NOT AND DUP3 ADD SWAP1 SWAP3 MSTORE PUSH2 0x1F40 SWAP2 DUP2 ADD SWAP1 PUSH2 0x30A2 JUMP JUMPDEST PUSH1 0x1 JUMPDEST PUSH2 0x1F71 JUMPI RETURNDATASIZE DUP1 DUP1 ISZERO PUSH2 0x1E4D JUMPI PUSH1 0x40 MLOAD SWAP2 POP PUSH1 0x1F NOT PUSH1 0x3F RETURNDATASIZE ADD AND DUP3 ADD PUSH1 0x40 MSTORE RETURNDATASIZE DUP3 MSTORE RETURNDATASIZE PUSH1 0x0 PUSH1 0x20 DUP5 ADD RETURNDATACOPY PUSH2 0x1E52 JUMP JUMPDEST PUSH1 0x1 PUSH1 0x1 PUSH1 0xE0 SHL SUB NOT DUP2 AND PUSH4 0xBC197C81 PUSH1 0xE0 SHL EQ PUSH2 0x1A8D JUMPI PUSH1 0x40 MLOAD PUSH4 0x2BFA23E7 PUSH1 0xE1 SHL DUP2 MSTORE PUSH1 0x1 PUSH1 0x1 PUSH1 0xA0 SHL SUB DUP7 AND PUSH1 0x4 DUP3 ADD MSTORE PUSH1 0x24 ADD PUSH2 0x48A JUMP JUMPDEST PUSH1 0x60 PUSH2 0x5EE DUP4 DUP4 PUSH1 0x0 PUSH2 0x21CF JUMP JUMPDEST DUP1 MLOAD DUP3 MLOAD EQ PUSH2 0x1FEA JUMPI DUP2 MLOAD DUP2 MLOAD PUSH1 0x40 MLOAD PUSH4 0x5B059991 PUSH1 0xE0 SHL DUP2 MSTORE PUSH1 0x4 DUP2 ADD SWAP3 SWAP1 SWAP3 MSTORE PUSH1 0x24 DUP3 ADD MSTORE PUSH1 0x44 ADD PUSH2 0x48A JUMP JUMPDEST CALLER PUSH1 0x0 JUMPDEST DUP4 MLOAD DUP2 LT ISZERO PUSH2 0x20F0 JUMPI PUSH1 0x20 DUP2 DUP2 MUL DUP6 DUP2 ADD DUP3 ADD MLOAD SWAP1 DUP6 ADD SWAP1 SWAP2 ADD MLOAD PUSH1 0x1 PUSH1 0x1 PUSH1 0xA0 SHL SUB DUP9 AND ISZERO PUSH2 0x20A1 JUMPI PUSH1 0x0 DUP3 DUP2 MSTORE PUSH1 0x20 DUP2 DUP2 MSTORE PUSH1 0x40 DUP1 DUP4 KECCAK256 PUSH1 0x1 PUSH1 0x1 PUSH1 0xA0 SHL SUB DUP13 AND DUP5 MSTORE SWAP1 SWAP2 MSTORE SWAP1 KECCAK256 SLOAD DUP2 DUP2 LT ISZERO PUSH2 0x207A JUMPI PUSH1 0x40 MLOAD PUSH4 0x3DEE4C5 PUSH1 0xE0 SHL DUP2 MSTORE PUSH1 0x1 PUSH1 0x1 PUSH1 0xA0 SHL SUB DUP11 AND PUSH1 0x4 DUP3 ADD MSTORE PUSH1 0x24 DUP2 ADD DUP3 SWAP1 MSTORE PUSH1 0x44 DUP2 ADD DUP4 SWAP1 MSTORE PUSH1 0x64 DUP2 ADD DUP5 SWAP1 MSTORE PUSH1 0x84 ADD PUSH2 0x48A JUMP JUMPDEST PUSH1 0x0 DUP4 DUP2 MSTORE PUSH1 0x20 DUP2 DUP2 MSTORE PUSH1 0x40 DUP1 DUP4 KECCAK256 PUSH1 0x1 PUSH1 0x1 PUSH1 0xA0 SHL SUB DUP14 AND DUP5 MSTORE SWAP1 SWAP2 MSTORE SWAP1 KECCAK256 SWAP1 DUP3 SWAP1 SUB SWAP1 SSTORE JUMPDEST PUSH1 0x1 PUSH1 0x1 PUSH1 0xA0 SHL SUB DUP8 AND ISZERO PUSH2 0x20E6 JUMPI PUSH1 0x0 DUP3 DUP2 MSTORE PUSH1 0x20 DUP2 DUP2 MSTORE PUSH1 0x40 DUP1 DUP4 KECCAK256 PUSH1 0x1 PUSH1 0x1 PUSH1 0xA0 SHL SUB DUP12 AND DUP5 MSTORE SWAP1 SWAP2 MSTORE DUP2 KECCAK256 DUP1 SLOAD DUP4 SWAP3 SWAP1 PUSH2 0x20E0 SWAP1 DUP5 SWAP1 PUSH2 0x3047 JUMP JUMPDEST SWAP1 SWAP2 SSTORE POP POP JUMPDEST POP POP PUSH1 0x1 ADD PUSH2 0x1FEE JUMP JUMPDEST POP DUP3 MLOAD PUSH1 0x1 SUB PUSH2 0x2171 JUMPI PUSH1 0x20 DUP4 ADD MLOAD PUSH1 0x0 SWAP1 PUSH1 0x20 DUP5 ADD MLOAD SWAP1 SWAP2 POP DUP6 PUSH1 0x1 PUSH1 0x1 PUSH1 0xA0 SHL SUB AND DUP8 PUSH1 0x1 PUSH1 0x1 PUSH1 0xA0 SHL SUB AND DUP5 PUSH1 0x1 PUSH1 0x1 PUSH1 0xA0 SHL SUB AND PUSH32 0xC3D58168C5AE7397731D063D5BBF3D657854427343F4C083240F7AACAA2D0F62 DUP6 DUP6 PUSH1 0x40 MLOAD PUSH2 0x2162 SWAP3 SWAP2 SWAP1 SWAP2 DUP3 MSTORE PUSH1 0x20 DUP3 ADD MSTORE PUSH1 0x40 ADD SWAP1 JUMP JUMPDEST PUSH1 0x40 MLOAD DUP1 SWAP2 SUB SWAP1 LOG4 POP POP PUSH2 0x1838 JUMP JUMPDEST DUP4 PUSH1 0x1 PUSH1 0x1 PUSH1 0xA0 SHL SUB AND DUP6 PUSH1 0x1 PUSH1 0x1 PUSH1 0xA0 SHL SUB AND DUP3 PUSH1 0x1 PUSH1 0x1 PUSH1 0xA0 SHL SUB AND PUSH32 0x4A39DC06D4C0DBC64B70AF90FD698A233A518AA5D07E595D983B8C0526C8F7FB DUP7 DUP7 PUSH1 0x40 MLOAD PUSH2 0x21C0 SWAP3 SWAP2 SWAP1 PUSH2 0x311D JUMP JUMPDEST PUSH1 0x40 MLOAD DUP1 SWAP2 SUB SWAP1 LOG4 POP POP POP POP POP JUMP JUMPDEST PUSH1 0x60 DUP2 SELFBALANCE LT ISZERO PUSH2 0x21F4 JUMPI PUSH1 0x40 MLOAD PUSH4 0xCD786059 PUSH1 0xE0 SHL DUP2 MSTORE ADDRESS PUSH1 0x4 DUP3 ADD MSTORE PUSH1 0x24 ADD PUSH2 0x48A JUMP JUMPDEST PUSH1 0x0 DUP1 DUP6 PUSH1 0x1 PUSH1 0x1 PUSH1 0xA0 SHL SUB AND DUP5 DUP7 PUSH1 0x40 MLOAD PUSH2 0x2210 SWAP2 SWAP1 PUSH2 0x3142 JUMP JUMPDEST PUSH1 0x0 PUSH1 0x40 MLOAD DUP1 DUP4 SUB DUP2 DUP6 DUP8 GAS CALL SWAP3 POP POP POP RETURNDATASIZE DUP1 PUSH1 0x0 DUP2 EQ PUSH2 0x224D JUMPI PUSH1 0x40 MLOAD SWAP2 POP PUSH1 0x1F NOT PUSH1 0x3F RETURNDATASIZE ADD AND DUP3 ADD PUSH1 0x40 MSTORE RETURNDATASIZE DUP3 MSTORE RETURNDATASIZE PUSH1 0x0 PUSH1 0x20 DUP5 ADD RETURNDATACOPY PUSH2 0x2252 JUMP JUMPDEST PUSH1 0x60 SWAP2 POP JUMPDEST POP SWAP2 POP SWAP2 POP PUSH2 0x2262 DUP7 DUP4 DUP4 PUSH2 0x226C JUMP JUMPDEST SWAP7 SWAP6 POP POP POP POP POP POP JUMP JUMPDEST PUSH1 0x60 DUP3 PUSH2 0x227C JUMPI PUSH2 0x5E7 DUP3 PUSH2 0x22C3 JUMP JUMPDEST DUP2 MLOAD ISZERO DUP1 ISZERO PUSH2 0x2293 JUMPI POP PUSH1 0x1 PUSH1 0x1 PUSH1 0xA0 SHL SUB DUP5 AND EXTCODESIZE ISZERO JUMPDEST ISZERO PUSH2 0x22BC JUMPI PUSH1 0x40 MLOAD PUSH4 0x9996B315 PUSH1 0xE0 SHL DUP2 MSTORE PUSH1 0x1 PUSH1 0x1 PUSH1 0xA0 SHL SUB DUP6 AND PUSH1 0x4 DUP3 ADD MSTORE PUSH1 0x24 ADD PUSH2 0x48A JUMP JUMPDEST POP DUP1 PUSH2 0x5EE JUMP JUMPDEST DUP1 MLOAD ISZERO PUSH2 0x22D3 JUMPI DUP1 MLOAD DUP1 DUP3 PUSH1 0x20 ADD REVERT JUMPDEST PUSH1 0x40 MLOAD PUSH4 0xA12F521 PUSH1 0xE1 SHL DUP2 MSTORE PUSH1 0x4 ADD PUSH1 0x40 MLOAD DUP1 SWAP2 SUB SWAP1 REVERT JUMPDEST POP DUP1 SLOAD PUSH2 0x22F8 SWAP1 PUSH2 0x2BEE JUMP JUMPDEST PUSH1 0x0 DUP3 SSTORE DUP1 PUSH1 0x1F LT PUSH2 0x2308 JUMPI POP POP JUMP JUMPDEST PUSH1 0x1F ADD PUSH1 0x20 SWAP1 DIV SWAP1 PUSH1 0x0 MSTORE PUSH1 0x20 PUSH1 0x0 KECCAK256 SWAP1 DUP2 ADD SWAP1 PUSH2 0x1447 SWAP2 SWAP1 JUMPDEST DUP1 DUP3 GT ISZERO PUSH2 0x2336 JUMPI PUSH1 0x0 DUP2 SSTORE PUSH1 0x1 ADD PUSH2 0x2322 JUMP JUMPDEST POP SWAP1 JUMP JUMPDEST PUSH1 0x1 PUSH1 0x1 PUSH1 0xA0 SHL SUB DUP2 AND DUP2 EQ PUSH2 0x1447 JUMPI PUSH1 0x0 DUP1 REVERT JUMPDEST PUSH1 0x0 DUP1 PUSH1 0x40 DUP4 DUP6 SUB SLT ISZERO PUSH2 0x2362 JUMPI PUSH1 0x0 DUP1 REVERT JUMPDEST DUP3 CALLDATALOAD PUSH2 0x236D DUP2 PUSH2 0x233A JUMP JUMPDEST SWAP5 PUSH1 0x20 SWAP4 SWAP1 SWAP4 ADD CALLDATALOAD SWAP4 POP POP POP JUMP JUMPDEST PUSH1 0x1 PUSH1 0x1 PUSH1 0xE0 SHL SUB NOT DUP2 AND DUP2 EQ PUSH2 0x1447 JUMPI PUSH1 0x0 DUP1 REVERT JUMPDEST PUSH1 0x0 PUSH1 0x20 DUP3 DUP5 SUB SLT ISZERO PUSH2 0x23A3 JUMPI PUSH1 0x0 DUP1 REVERT JUMPDEST DUP2 CALLDATALOAD PUSH2 0x5EE DUP2 PUSH2 0x237B JUMP JUMPDEST DUP1 CALLDATALOAD PUSH1 0x1 PUSH1 0x1 PUSH1 0x40 SHL SUB DUP2 AND DUP2 EQ PUSH2 0x23C5 JUMPI PUSH1 0x0 DUP1 REVERT JUMPDEST SWAP2 SWAP1 POP JUMP JUMPDEST PUSH4 0x4E487B71 PUSH1 0xE0 SHL PUSH1 0x0 MSTORE PUSH1 0x41 PUSH1 0x4 MSTORE PUSH1 0x24 PUSH1 0x0 REVERT JUMPDEST PUSH1 0x40 MLOAD PUSH1 0x1F DUP3 ADD PUSH1 0x1F NOT AND DUP2 ADD PUSH1 0x1 PUSH1 0x1 PUSH1 0x40 SHL SUB DUP2 GT DUP3 DUP3 LT OR ISZERO PUSH2 0x2408 JUMPI PUSH2 0x2408 PUSH2 0x23CA JUMP JUMPDEST PUSH1 0x40 MSTORE SWAP2 SWAP1 POP JUMP JUMPDEST PUSH1 0x0 DUP3 PUSH1 0x1F DUP4 ADD SLT PUSH2 0x2421 JUMPI PUSH1 0x0 DUP1 REVERT JUMPDEST DUP2 CALLDATALOAD PUSH1 0x1 PUSH1 0x1 PUSH1 0x40 SHL SUB DUP2 GT ISZERO PUSH2 0x243A JUMPI PUSH2 0x243A PUSH2 0x23CA JUMP JUMPDEST PUSH2 0x244D PUSH1 0x1F DUP3 ADD PUSH1 0x1F NOT AND PUSH1 0x20 ADD PUSH2 0x23E0 JUMP JUMPDEST DUP2 DUP2 MSTORE DUP5 PUSH1 0x20 DUP4 DUP7 ADD ADD GT ISZERO PUSH2 0x2462 JUMPI PUSH1 0x0 DUP1 REVERT JUMPDEST DUP2 PUSH1 0x20 DUP6 ADD PUSH1 0x20 DUP4 ADD CALLDATACOPY PUSH1 0x0 SWAP2 DUP2 ADD PUSH1 0x20 ADD SWAP2 SWAP1 SWAP2 MSTORE SWAP4 SWAP3 POP POP POP JUMP JUMPDEST PUSH1 0x0 DUP1 PUSH1 0x0 PUSH1 0x60 DUP5 DUP7 SUB SLT ISZERO PUSH2 0x2494 JUMPI PUSH1 0x0 DUP1 REVERT JUMPDEST PUSH2 0x249D DUP5 PUSH2 0x23AE JUMP JUMPDEST SWAP3 POP PUSH1 0x20 DUP5 ADD CALLDATALOAD PUSH2 0x24AD DUP2 PUSH2 0x233A JUMP JUMPDEST SWAP2 POP PUSH1 0x40 DUP5 ADD CALLDATALOAD PUSH1 0x1 PUSH1 0x1 PUSH1 0x40 SHL SUB DUP2 GT ISZERO PUSH2 0x24C8 JUMPI PUSH1 0x0 DUP1 REVERT JUMPDEST PUSH2 0x24D4 DUP7 DUP3 DUP8 ADD PUSH2 0x2410 JUMP JUMPDEST SWAP2 POP POP SWAP3 POP SWAP3 POP SWAP3 JUMP JUMPDEST PUSH1 0x0 PUSH1 0x20 DUP3 DUP5 SUB SLT ISZERO PUSH2 0x24F0 JUMPI PUSH1 0x0 DUP1 REVERT JUMPDEST POP CALLDATALOAD SWAP2 SWAP1 POP JUMP JUMPDEST PUSH1 0x0 JUMPDEST DUP4 DUP2 LT ISZERO PUSH2 0x2512 JUMPI DUP2 DUP2 ADD MLOAD DUP4 DUP3 ADD MSTORE PUSH1 0x20 ADD PUSH2 0x24FA JUMP JUMPDEST POP POP PUSH1 0x0 SWAP2 ADD MSTORE JUMP JUMPDEST PUSH1 0x0 DUP2 MLOAD DUP1 DUP5 MSTORE PUSH2 0x2533 DUP2 PUSH1 0x20 DUP7 ADD PUSH1 0x20 DUP7 ADD PUSH2 0x24F7 JUMP JUMPDEST PUSH1 0x1F ADD PUSH1 0x1F NOT AND SWAP3 SWAP1 SWAP3 ADD PUSH1 0x20 ADD SWAP3 SWAP2 POP POP JUMP JUMPDEST PUSH1 0x20 DUP2 MSTORE PUSH1 0x0 PUSH2 0x5EE PUSH1 0x20 DUP4 ADD DUP5 PUSH2 0x251B JUMP JUMPDEST PUSH1 0x0 DUP1 PUSH1 0x0 DUP1 PUSH1 0x0 DUP1 PUSH1 0x0 PUSH1 0xE0 DUP9 DUP11 SUB SLT ISZERO PUSH2 0x2575 JUMPI PUSH1 0x0 DUP1 REVERT JUMPDEST DUP8 CALLDATALOAD PUSH2 0x2580 DUP2 PUSH2 0x233A JUMP JUMPDEST SWAP7 POP PUSH1 0x20 DUP9 ADD CALLDATALOAD PUSH2 0x2590 DUP2 PUSH2 0x233A JUMP JUMPDEST SWAP6 POP PUSH1 0x40 DUP9 ADD CALLDATALOAD SWAP5 POP PUSH1 0x60 DUP9 ADD CALLDATALOAD SWAP4 POP PUSH1 0x80 DUP9 ADD CALLDATALOAD PUSH1 0x1 PUSH1 0x1 PUSH1 0x40 SHL SUB DUP2 GT ISZERO PUSH2 0x25B9 JUMPI PUSH1 0x0 DUP1 REVERT JUMPDEST PUSH2 0x25C5 DUP11 DUP3 DUP12 ADD PUSH2 0x2410 JUMP JUMPDEST SWAP4 POP POP PUSH2 0x25D4 PUSH1 0xA0 DUP10 ADD PUSH2 0x23AE JUMP JUMPDEST SWAP2 POP PUSH1 0xC0 DUP9 ADD CALLDATALOAD PUSH1 0x2 DUP2 LT PUSH2 0x25E8 JUMPI PUSH1 0x0 DUP1 REVERT JUMPDEST DUP1 SWAP2 POP POP SWAP3 SWAP6 SWAP9 SWAP2 SWAP5 SWAP8 POP SWAP3 SWAP6 POP JUMP JUMPDEST PUSH1 0x0 PUSH1 0x1 PUSH1 0x1 PUSH1 0x40 SHL SUB DUP3 GT ISZERO PUSH2 0x2611 JUMPI PUSH2 0x2611 PUSH2 0x23CA JUMP JUMPDEST POP PUSH1 0x5 SHL PUSH1 0x20 ADD SWAP1 JUMP JUMPDEST PUSH1 0x0 DUP3 PUSH1 0x1F DUP4 ADD SLT PUSH2 0x262C JUMPI PUSH1 0x0 DUP1 REVERT JUMPDEST DUP2 CALLDATALOAD PUSH1 0x20 PUSH2 0x2641 PUSH2 0x263C DUP4 PUSH2 0x25F8 JUMP JUMPDEST PUSH2 0x23E0 JUMP JUMPDEST DUP1 DUP4 DUP3 MSTORE PUSH1 0x20 DUP3 ADD SWAP2 POP PUSH1 0x20 DUP5 PUSH1 0x5 SHL DUP8 ADD ADD SWAP4 POP DUP7 DUP5 GT ISZERO PUSH2 0x2663 JUMPI PUSH1 0x0 DUP1 REVERT JUMPDEST PUSH1 0x20 DUP7 ADD JUMPDEST DUP5 DUP2 LT ISZERO PUSH2 0x267F JUMPI DUP1 CALLDATALOAD DUP4 MSTORE SWAP2 DUP4 ADD SWAP2 DUP4 ADD PUSH2 0x2668 JUMP JUMPDEST POP SWAP7 SWAP6 POP POP POP POP POP POP JUMP JUMPDEST PUSH1 0x0 DUP1 PUSH1 0x0 DUP1 PUSH1 0x0 PUSH1 0xA0 DUP7 DUP9 SUB SLT ISZERO PUSH2 0x26A2 JUMPI PUSH1 0x0 DUP1 REVERT JUMPDEST DUP6 CALLDATALOAD PUSH2 0x26AD DUP2 PUSH2 0x233A JUMP JUMPDEST SWAP5 POP PUSH1 0x20 DUP7 ADD CALLDATALOAD PUSH2 0x26BD DUP2 PUSH2 0x233A JUMP JUMPDEST SWAP4 POP PUSH1 0x40 DUP7 ADD CALLDATALOAD PUSH1 0x1 PUSH1 0x1 PUSH1 0x40 SHL SUB DUP1 DUP3 GT ISZERO PUSH2 0x26D9 JUMPI PUSH1 0x0 DUP1 REVERT JUMPDEST PUSH2 0x26E5 DUP10 DUP4 DUP11 ADD PUSH2 0x261B JUMP JUMPDEST SWAP5 POP PUSH1 0x60 DUP9 ADD CALLDATALOAD SWAP2 POP DUP1 DUP3 GT ISZERO PUSH2 0x26FB JUMPI PUSH1 0x0 DUP1 REVERT JUMPDEST PUSH2 0x2707 DUP10 DUP4 DUP11 ADD PUSH2 0x261B JUMP JUMPDEST SWAP4 POP PUSH1 0x80 DUP9 ADD CALLDATALOAD SWAP2 POP DUP1 DUP3 GT ISZERO PUSH2 0x271D JUMPI PUSH1 0x0 DUP1 REVERT JUMPDEST POP PUSH2 0x272A DUP9 DUP3 DUP10 ADD PUSH2 0x2410 JUMP JUMPDEST SWAP2 POP POP SWAP3 SWAP6 POP SWAP3 SWAP6 SWAP1 SWAP4 POP JUMP JUMPDEST PUSH1 0x0 DUP1 PUSH1 0x40 DUP4 DUP6 SUB SLT ISZERO PUSH2 0x274A JUMPI PUSH1 0x0 DUP1 REVERT JUMPDEST DUP3 CALLDATALOAD PUSH2 0x2755 DUP2 PUSH2 0x233A JUMP JUMPDEST SWAP2 POP PUSH1 0x20 DUP4 ADD CALLDATALOAD PUSH2 0x2765 DUP2 PUSH2 0x233A JUMP JUMPDEST DUP1 SWAP2 POP POP SWAP3 POP SWAP3 SWAP1 POP JUMP JUMPDEST PUSH1 0x0 PUSH1 0x20 DUP3 DUP5 SUB SLT ISZERO PUSH2 0x2782 JUMPI PUSH1 0x0 DUP1 REVERT JUMPDEST PUSH2 0x5EE DUP3 PUSH2 0x23AE JUMP JUMPDEST PUSH1 0x0 DUP1 PUSH1 0x40 DUP4 DUP6 SUB SLT ISZERO PUSH2 0x279E JUMPI PUSH1 0x0 DUP1 REVERT JUMPDEST DUP3 CALLDATALOAD PUSH1 0x1 PUSH1 0x1 PUSH1 0x40 SHL SUB DUP1 DUP3 GT ISZERO PUSH2 0x27B5 JUMPI PUSH1 0x0 DUP1 REVERT JUMPDEST DUP2 DUP6 ADD SWAP2 POP DUP6 PUSH1 0x1F DUP4 ADD SLT PUSH2 0x27C9 JUMPI PUSH1 0x0 DUP1 REVERT JUMPDEST DUP2 CALLDATALOAD PUSH1 0x20 PUSH2 0x27D9 PUSH2 0x263C DUP4 PUSH2 0x25F8 JUMP JUMPDEST DUP3 DUP2 MSTORE PUSH1 0x5 SWAP3 SWAP1 SWAP3 SHL DUP5 ADD DUP2 ADD SWAP2 DUP2 DUP2 ADD SWAP1 DUP10 DUP5 GT ISZERO PUSH2 0x27F8 JUMPI PUSH1 0x0 DUP1 REVERT JUMPDEST SWAP5 DUP3 ADD SWAP5 JUMPDEST DUP4 DUP7 LT ISZERO PUSH2 0x281F JUMPI DUP6 CALLDATALOAD PUSH2 0x2810 DUP2 PUSH2 0x233A JUMP JUMPDEST DUP3 MSTORE SWAP5 DUP3 ADD SWAP5 SWAP1 DUP3 ADD SWAP1 PUSH2 0x27FD JUMP JUMPDEST SWAP7 POP POP DUP7 ADD CALLDATALOAD SWAP3 POP POP DUP1 DUP3 GT ISZERO PUSH2 0x2835 JUMPI PUSH1 0x0 DUP1 REVERT JUMPDEST POP PUSH2 0x2842 DUP6 DUP3 DUP7 ADD PUSH2 0x261B JUMP JUMPDEST SWAP2 POP POP SWAP3 POP SWAP3 SWAP1 POP JUMP JUMPDEST PUSH1 0x0 DUP2 MLOAD DUP1 DUP5 MSTORE PUSH1 0x20 DUP1 DUP6 ADD SWAP5 POP PUSH1 0x20 DUP5 ADD PUSH1 0x0 JUMPDEST DUP4 DUP2 LT ISZERO PUSH2 0x287D JUMPI DUP2 MLOAD DUP8 MSTORE SWAP6 DUP3 ADD SWAP6 SWAP1 DUP3 ADD SWAP1 PUSH1 0x1 ADD PUSH2 0x2861 JUMP JUMPDEST POP SWAP5 SWAP6 SWAP5 POP POP POP POP POP JUMP JUMPDEST PUSH1 0x20 DUP2 MSTORE PUSH1 0x0 PUSH2 0x5EE PUSH1 0x20 DUP4 ADD DUP5 PUSH2 0x284C JUMP JUMPDEST PUSH1 0x0 PUSH1 0x20 DUP3 DUP5 SUB SLT ISZERO PUSH2 0x28AD JUMPI PUSH1 0x0 DUP1 REVERT JUMPDEST DUP2 CALLDATALOAD PUSH2 0x5EE DUP2 PUSH2 0x233A JUMP JUMPDEST PUSH1 0x1 PUSH1 0x1 PUSH1 0xA0 SHL SUB DUP4 AND DUP2 MSTORE PUSH1 0x40 PUSH1 0x20 DUP3 ADD DUP2 SWAP1 MSTORE PUSH1 0x0 SWAP1 PUSH2 0x28DC SWAP1 DUP4 ADD DUP5 PUSH2 0x251B JUMP JUMPDEST SWAP5 SWAP4 POP POP POP POP JUMP JUMPDEST PUSH1 0x0 DUP1 PUSH1 0x0 PUSH1 0x60 DUP5 DUP7 SUB SLT ISZERO PUSH2 0x28F9 JUMPI PUSH1 0x0 DUP1 REVERT JUMPDEST DUP4 CALLDATALOAD PUSH2 0x2904 DUP2 PUSH2 0x233A JUMP JUMPDEST SWAP3 POP PUSH1 0x20 DUP5 ADD CALLDATALOAD PUSH1 0x1 PUSH1 0x1 PUSH1 0x40 SHL SUB DUP1 DUP3 GT ISZERO PUSH2 0x2920 JUMPI PUSH1 0x0 DUP1 REVERT JUMPDEST PUSH2 0x292C DUP8 DUP4 DUP9 ADD PUSH2 0x261B JUMP JUMPDEST SWAP4 POP PUSH1 0x40 DUP7 ADD CALLDATALOAD SWAP2 POP DUP1 DUP3 GT ISZERO PUSH2 0x2942 JUMPI PUSH1 0x0 DUP1 REVERT JUMPDEST POP PUSH2 0x24D4 DUP7 DUP3 DUP8 ADD PUSH2 0x261B JUMP JUMPDEST PUSH1 0x0 PUSH1 0x20 DUP3 DUP5 SUB SLT ISZERO PUSH2 0x2961 JUMPI PUSH1 0x0 DUP1 REVERT JUMPDEST DUP2 CALLDATALOAD PUSH1 0x1 PUSH1 0x1 PUSH1 0x40 SHL SUB DUP2 GT ISZERO PUSH2 0x2977 JUMPI PUSH1 0x0 DUP1 REVERT JUMPDEST DUP3 ADD PUSH1 0xA0 DUP2 DUP6 SUB SLT ISZERO PUSH2 0x5EE JUMPI PUSH1 0x0 DUP1 REVERT JUMPDEST DUP1 ISZERO ISZERO DUP2 EQ PUSH2 0x1447 JUMPI PUSH1 0x0 DUP1 REVERT JUMPDEST PUSH1 0x0 DUP1 PUSH1 0x40 DUP4 DUP6 SUB SLT ISZERO PUSH2 0x29AA JUMPI PUSH1 0x0 DUP1 REVERT JUMPDEST DUP3 CALLDATALOAD PUSH2 0x29B5 DUP2 PUSH2 0x233A JUMP JUMPDEST SWAP2 POP PUSH1 0x20 DUP4 ADD CALLDATALOAD PUSH2 0x2765 DUP2 PUSH2 0x2989 JUMP JUMPDEST PUSH1 0x0 DUP1 PUSH1 0x0 DUP1 PUSH1 0x0 PUSH1 0xA0 DUP7 DUP9 SUB SLT ISZERO PUSH2 0x29DD JUMPI PUSH1 0x0 DUP1 REVERT JUMPDEST DUP6 CALLDATALOAD PUSH2 0x29E8 DUP2 PUSH2 0x233A JUMP JUMPDEST SWAP5 POP PUSH1 0x20 DUP7 DUP2 ADD CALLDATALOAD PUSH1 0x1 PUSH1 0x1 PUSH1 0x40 SHL SUB DUP1 DUP3 GT ISZERO PUSH2 0x2A05 JUMPI PUSH1 0x0 DUP1 REVERT JUMPDEST PUSH2 0x2A11 DUP11 DUP4 DUP12 ADD PUSH2 0x261B JUMP JUMPDEST SWAP7 POP PUSH1 0x40 DUP10 ADD CALLDATALOAD SWAP2 POP DUP1 DUP3 GT ISZERO PUSH2 0x2A27 JUMPI PUSH1 0x0 DUP1 REVERT JUMPDEST PUSH2 0x2A33 DUP11 DUP4 DUP12 ADD PUSH2 0x261B JUMP JUMPDEST SWAP6 POP PUSH1 0x60 DUP10 ADD CALLDATALOAD SWAP2 POP DUP1 DUP3 GT ISZERO PUSH2 0x2A49 JUMPI PUSH1 0x0 DUP1 REVERT JUMPDEST PUSH2 0x2A55 DUP11 DUP4 DUP12 ADD PUSH2 0x2410 JUMP JUMPDEST SWAP5 POP PUSH1 0x80 DUP10 ADD CALLDATALOAD SWAP2 POP DUP1 DUP3 GT ISZERO PUSH2 0x2A6B JUMPI PUSH1 0x0 DUP1 REVERT JUMPDEST DUP2 DUP10 ADD SWAP2 POP DUP10 PUSH1 0x1F DUP4 ADD SLT PUSH2 0x2A7F JUMPI PUSH1 0x0 DUP1 REVERT JUMPDEST DUP2 CALLDATALOAD PUSH2 0x2A8D PUSH2 0x263C DUP3 PUSH2 0x25F8 JUMP JUMPDEST DUP2 DUP2 MSTORE PUSH1 0x5 SWAP2 SWAP1 SWAP2 SHL DUP4 ADD DUP5 ADD SWAP1 DUP5 DUP2 ADD SWAP1 DUP13 DUP4 GT ISZERO PUSH2 0x2AAC JUMPI PUSH1 0x0 DUP1 REVERT JUMPDEST DUP6 DUP6 ADD JUMPDEST DUP4 DUP2 LT ISZERO PUSH2 0x2AE4 JUMPI DUP1 CALLDATALOAD DUP6 DUP2 GT ISZERO PUSH2 0x2AC8 JUMPI PUSH1 0x0 DUP1 DUP2 REVERT JUMPDEST PUSH2 0x2AD6 DUP16 DUP10 DUP4 DUP11 ADD ADD PUSH2 0x2410 JUMP JUMPDEST DUP5 MSTORE POP SWAP2 DUP7 ADD SWAP2 DUP7 ADD PUSH2 0x2AB0 JUMP JUMPDEST POP DUP1 SWAP7 POP POP POP POP POP POP POP SWAP3 SWAP6 POP SWAP3 SWAP6 SWAP1 SWAP4 POP JUMP JUMPDEST PUSH1 0x0 DUP1 PUSH1 0x0 DUP1 PUSH1 0x0 PUSH1 0xA0 DUP7 DUP9 SUB SLT ISZERO PUSH2 0x2B10 JUMPI PUSH1 0x0 DUP1 REVERT JUMPDEST DUP6 CALLDATALOAD PUSH2 0x2B1B DUP2 PUSH2 0x233A JUMP JUMPDEST SWAP5 POP PUSH1 0x20 DUP7 ADD CALLDATALOAD SWAP4 POP PUSH1 0x40 DUP7 ADD CALLDATALOAD SWAP3 POP PUSH1 0x60 DUP7 ADD CALLDATALOAD PUSH1 0x1 PUSH1 0x1 PUSH1 0x40 SHL SUB DUP1 DUP3 GT ISZERO PUSH2 0x2B45 JUMPI PUSH1 0x0 DUP1 REVERT JUMPDEST PUSH2 0x2707 DUP10 DUP4 DUP11 ADD PUSH2 0x2410 JUMP JUMPDEST PUSH1 0x0 DUP1 PUSH1 0x0 DUP1 PUSH1 0x0 PUSH1 0xA0 DUP7 DUP9 SUB SLT ISZERO PUSH2 0x2B69 JUMPI PUSH1 0x0 DUP1 REVERT JUMPDEST DUP6 CALLDATALOAD PUSH2 0x2B74 DUP2 PUSH2 0x233A JUMP JUMPDEST SWAP5 POP PUSH1 0x20 DUP7 ADD CALLDATALOAD PUSH2 0x2B84 DUP2 PUSH2 0x233A JUMP JUMPDEST SWAP4 POP PUSH1 0x40 DUP7 ADD CALLDATALOAD SWAP3 POP PUSH1 0x60 DUP7 ADD CALLDATALOAD SWAP2 POP PUSH1 0x80 DUP7 ADD CALLDATALOAD PUSH1 0x1 PUSH1 0x1 PUSH1 0x40 SHL SUB DUP2 GT ISZERO PUSH2 0x2BAD JUMPI PUSH1 0x0 DUP1 REVERT JUMPDEST PUSH2 0x272A DUP9 DUP3 DUP10 ADD PUSH2 0x2410 JUMP JUMPDEST PUSH1 0x0 DUP1 PUSH1 0x0 PUSH1 0x60 DUP5 DUP7 SUB SLT ISZERO PUSH2 0x2BCE JUMPI PUSH1 0x0 DUP1 REVERT JUMPDEST DUP4 CALLDATALOAD PUSH2 0x2BD9 DUP2 PUSH2 0x233A JUMP JUMPDEST SWAP6 PUSH1 0x20 DUP6 ADD CALLDATALOAD SWAP6 POP PUSH1 0x40 SWAP1 SWAP5 ADD CALLDATALOAD SWAP4 SWAP3 POP POP POP JUMP JUMPDEST PUSH1 0x1 DUP2 DUP2 SHR SWAP1 DUP3 AND DUP1 PUSH2 0x2C02 JUMPI PUSH1 0x7F DUP3 AND SWAP2 POP JUMPDEST PUSH1 0x20 DUP3 LT DUP2 SUB PUSH2 0x2C22 JUMPI PUSH4 0x4E487B71 PUSH1 0xE0 SHL PUSH1 0x0 MSTORE PUSH1 0x22 PUSH1 0x4 MSTORE PUSH1 0x24 PUSH1 0x0 REVERT JUMPDEST POP SWAP2 SWAP1 POP JUMP JUMPDEST PUSH1 0x1F DUP3 GT ISZERO PUSH2 0xDAF JUMPI PUSH1 0x0 DUP2 PUSH1 0x0 MSTORE PUSH1 0x20 PUSH1 0x0 KECCAK256 PUSH1 0x1F DUP6 ADD PUSH1 0x5 SHR DUP2 ADD PUSH1 0x20 DUP7 LT ISZERO PUSH2 0x2C51 JUMPI POP DUP1 JUMPDEST PUSH1 0x1F DUP6 ADD PUSH1 0x5 SHR DUP3 ADD SWAP2 POP JUMPDEST DUP2 DUP2 LT ISZERO PUSH2 0xCFD JUMPI DUP3 DUP2 SSTORE PUSH1 0x1 ADD PUSH2 0x2C5D JUMP JUMPDEST DUP2 MLOAD PUSH1 0x1 PUSH1 0x1 PUSH1 0x40 SHL SUB DUP2 GT ISZERO PUSH2 0x2C89 JUMPI PUSH2 0x2C89 PUSH2 0x23CA JUMP JUMPDEST PUSH2 0x2C9D DUP2 PUSH2 0x2C97 DUP5 SLOAD PUSH2 0x2BEE JUMP JUMPDEST DUP5 PUSH2 0x2C28 JUMP JUMPDEST PUSH1 0x20 DUP1 PUSH1 0x1F DUP4 GT PUSH1 0x1 DUP2 EQ PUSH2 0x2CD2 JUMPI PUSH1 0x0 DUP5 ISZERO PUSH2 0x2CBA JUMPI POP DUP6 DUP4 ADD MLOAD JUMPDEST PUSH1 0x0 NOT PUSH1 0x3 DUP7 SWAP1 SHL SHR NOT AND PUSH1 0x1 DUP6 SWAP1 SHL OR DUP6 SSTORE PUSH2 0xCFD JUMP JUMPDEST PUSH1 0x0 DUP6 DUP2 MSTORE PUSH1 0x20 DUP2 KECCAK256 PUSH1 0x1F NOT DUP7 AND SWAP2 JUMPDEST DUP3 DUP2 LT ISZERO PUSH2 0x2D01 JUMPI DUP9 DUP7 ADD MLOAD DUP3 SSTORE SWAP5 DUP5 ADD SWAP5 PUSH1 0x1 SWAP1 SWAP2 ADD SWAP1 DUP5 ADD PUSH2 0x2CE2 JUMP JUMPDEST POP DUP6 DUP3 LT ISZERO PUSH2 0x2D1F JUMPI DUP8 DUP6 ADD MLOAD PUSH1 0x0 NOT PUSH1 0x3 DUP9 SWAP1 SHL PUSH1 0xF8 AND SHR NOT AND DUP2 SSTORE JUMPDEST POP POP POP POP POP PUSH1 0x1 SWAP1 DUP2 SHL ADD SWAP1 SSTORE POP JUMP JUMPDEST PUSH1 0x1 PUSH1 0x1 PUSH1 0x40 SHL SUB DUP5 AND DUP2 MSTORE PUSH1 0x1 PUSH1 0x1 PUSH1 0xA0 SHL SUB DUP4 AND PUSH1 0x20 DUP3 ADD MSTORE PUSH1 0x60 PUSH1 0x40 DUP3 ADD DUP2 SWAP1 MSTORE PUSH1 0x0 SWAP1 PUSH2 0x2D62 SWAP1 DUP4 ADD DUP5 PUSH2 0x251B JUMP JUMPDEST SWAP6 SWAP5 POP POP POP POP POP JUMP JUMPDEST PUSH1 0x1 PUSH1 0x1 PUSH1 0xA0 SHL SUB DUP8 DUP2 AND DUP3 MSTORE DUP7 AND PUSH1 0x20 DUP3 ADD MSTORE PUSH1 0x40 DUP2 ADD DUP6 SWAP1 MSTORE PUSH1 0x60 DUP2 ADD DUP5 SWAP1 MSTORE PUSH1 0xC0 PUSH1 0x80 DUP3 ADD DUP2 SWAP1 MSTORE PUSH1 0x0 SWAP1 PUSH2 0x2DA5 SWAP1 DUP4 ADD DUP6 PUSH2 0x251B JUMP JUMPDEST DUP3 DUP2 SUB PUSH1 0xA0 DUP5 ADD MSTORE PUSH2 0x2DB7 DUP2 DUP6 PUSH2 0x251B JUMP JUMPDEST SWAP10 SWAP9 POP POP POP POP POP POP POP POP POP JUMP JUMPDEST PUSH4 0x4E487B71 PUSH1 0xE0 SHL PUSH1 0x0 MSTORE PUSH1 0x21 PUSH1 0x4 MSTORE PUSH1 0x24 PUSH1 0x0 REVERT JUMPDEST PUSH1 0x0 PUSH1 0x40 PUSH1 0x1 PUSH1 0x1 PUSH1 0x40 SHL SUB DUP6 AND DUP4 MSTORE PUSH1 0x20 PUSH1 0x40 DUP2 DUP6 ADD MSTORE DUP5 MLOAD PUSH1 0xA0 PUSH1 0x40 DUP7 ADD MSTORE PUSH2 0x2E08 PUSH1 0xE0 DUP7 ADD DUP3 PUSH2 0x251B JUMP JUMPDEST SWAP1 POP DUP2 DUP7 ADD MLOAD PUSH1 0x3F NOT DUP1 DUP8 DUP5 SUB ADD PUSH1 0x60 DUP9 ADD MSTORE PUSH2 0x2E25 DUP4 DUP4 PUSH2 0x251B JUMP JUMPDEST PUSH1 0x40 DUP10 ADD MLOAD DUP9 DUP3 SUB DUP4 ADD PUSH1 0x80 DUP11 ADD MSTORE DUP1 MLOAD DUP1 DUP4 MSTORE SWAP1 DUP7 ADD SWAP5 POP PUSH1 0x0 SWAP4 POP SWAP1 DUP6 ADD SWAP1 JUMPDEST DUP1 DUP5 LT ISZERO PUSH2 0x2E79 JUMPI DUP5 MLOAD DUP1 MLOAD PUSH1 0x1 PUSH1 0x1 PUSH1 0xA0 SHL SUB AND DUP4 MSTORE DUP7 ADD MLOAD DUP7 DUP4 ADD MSTORE SWAP4 DUP6 ADD SWAP4 PUSH1 0x1 SWAP4 SWAP1 SWAP4 ADD SWAP3 SWAP1 DUP7 ADD SWAP1 PUSH2 0x2E47 JUMP JUMPDEST POP PUSH1 0x60 DUP10 ADD MLOAD PUSH1 0x1 PUSH1 0x1 PUSH1 0xA0 SHL SUB AND PUSH1 0xA0 DUP10 ADD MSTORE PUSH1 0x80 DUP10 ADD MLOAD DUP9 DUP3 SUB DUP4 ADD PUSH1 0xC0 DUP11 ADD MSTORE SWAP6 POP PUSH2 0x2EA8 DUP2 DUP8 PUSH2 0x251B JUMP JUMPDEST SWAP11 SWAP10 POP POP POP POP POP POP POP POP POP POP JUMP JUMPDEST PUSH1 0x0 PUSH1 0x20 DUP3 DUP5 SUB SLT ISZERO PUSH2 0x2EC8 JUMPI PUSH1 0x0 DUP1 REVERT JUMPDEST POP MLOAD SWAP2 SWAP1 POP JUMP JUMPDEST PUSH1 0x0 PUSH1 0x20 DUP3 DUP5 SUB SLT ISZERO PUSH2 0x2EE1 JUMPI PUSH1 0x0 DUP1 REVERT JUMPDEST DUP2 MLOAD PUSH2 0x5EE DUP2 PUSH2 0x2989 JUMP JUMPDEST PUSH1 0x1 PUSH1 0x1 PUSH1 0xA0 SHL SUB DUP9 DUP2 AND DUP3 MSTORE DUP8 AND PUSH1 0x20 DUP3 ADD MSTORE PUSH1 0x40 DUP2 ADD DUP7 SWAP1 MSTORE PUSH1 0x60 DUP2 ADD DUP6 SWAP1 MSTORE PUSH1 0xE0 PUSH1 0x80 DUP3 ADD DUP2 SWAP1 MSTORE PUSH1 0x0 SWAP1 PUSH2 0x2F26 SWAP1 DUP4 ADD DUP7 PUSH2 0x251B JUMP JUMPDEST PUSH1 0x1 PUSH1 0x1 PUSH1 0x40 SHL SUB SWAP5 DUP6 AND PUSH1 0xA0 DUP5 ADD MSTORE SWAP3 SWAP1 SWAP4 AND PUSH1 0xC0 SWAP1 SWAP2 ADD MSTORE SWAP7 SWAP6 POP POP POP POP POP POP JUMP JUMPDEST PUSH4 0x4E487B71 PUSH1 0xE0 SHL PUSH1 0x0 MSTORE PUSH1 0x32 PUSH1 0x4 MSTORE PUSH1 0x24 PUSH1 0x0 REVERT JUMPDEST PUSH1 0x0 DUP1 DUP4 CALLDATALOAD PUSH1 0x1E NOT DUP5 CALLDATASIZE SUB ADD DUP2 SLT PUSH2 0x2F77 JUMPI PUSH1 0x0 DUP1 REVERT JUMPDEST DUP4 ADD DUP1 CALLDATALOAD SWAP2 POP PUSH1 0x1 PUSH1 0x1 PUSH1 0x40 SHL SUB DUP3 GT ISZERO PUSH2 0x2F91 JUMPI PUSH1 0x0 DUP1 REVERT JUMPDEST PUSH1 0x20 ADD SWAP2 POP CALLDATASIZE DUP2 SWAP1 SUB DUP3 SGT ISZERO PUSH2 0x2FA6 JUMPI PUSH1 0x0 DUP1 REVERT JUMPDEST SWAP3 POP SWAP3 SWAP1 POP JUMP JUMPDEST PUSH1 0x0 DUP1 PUSH1 0x0 DUP1 PUSH1 0x0 DUP1 PUSH1 0xC0 DUP8 DUP10 SUB SLT ISZERO PUSH2 0x2FC6 JUMPI PUSH1 0x0 DUP1 REVERT JUMPDEST DUP7 CALLDATALOAD PUSH2 0x2FD1 DUP2 PUSH2 0x233A JUMP JUMPDEST SWAP6 POP PUSH1 0x20 DUP8 ADD CALLDATALOAD PUSH2 0x2FE1 DUP2 PUSH2 0x233A JUMP JUMPDEST SWAP5 POP PUSH1 0x40 DUP8 ADD CALLDATALOAD SWAP4 POP PUSH1 0x60 DUP8 ADD CALLDATALOAD SWAP3 POP PUSH1 0x80 DUP8 ADD CALLDATALOAD PUSH1 0x1 PUSH1 0x1 PUSH1 0x40 SHL SUB DUP1 DUP3 GT ISZERO PUSH2 0x300B JUMPI PUSH1 0x0 DUP1 REVERT JUMPDEST PUSH2 0x3017 DUP11 DUP4 DUP12 ADD PUSH2 0x2410 JUMP JUMPDEST SWAP4 POP PUSH1 0xA0 DUP10 ADD CALLDATALOAD SWAP2 POP DUP1 DUP3 GT ISZERO PUSH2 0x302D JUMPI PUSH1 0x0 DUP1 REVERT JUMPDEST POP PUSH2 0x303A DUP10 DUP3 DUP11 ADD PUSH2 0x2410 JUMP JUMPDEST SWAP2 POP POP SWAP3 SWAP6 POP SWAP3 SWAP6 POP SWAP3 SWAP6 JUMP JUMPDEST DUP1 DUP3 ADD DUP1 DUP3 GT ISZERO PUSH2 0x3FD JUMPI PUSH4 0x4E487B71 PUSH1 0xE0 SHL PUSH1 0x0 MSTORE PUSH1 0x11 PUSH1 0x4 MSTORE PUSH1 0x24 PUSH1 0x0 REVERT JUMPDEST PUSH1 0x1 PUSH1 0x1 PUSH1 0xA0 SHL SUB DUP7 DUP2 AND DUP3 MSTORE DUP6 AND PUSH1 0x20 DUP3 ADD MSTORE PUSH1 0x40 DUP2 ADD DUP5 SWAP1 MSTORE PUSH1 0x60 DUP2 ADD DUP4 SWAP1 MSTORE PUSH1 0xA0 PUSH1 0x80 DUP3 ADD DUP2 SWAP1 MSTORE PUSH1 0x0 SWAP1 PUSH2 0xC93 SWAP1 DUP4 ADD DUP5 PUSH2 0x251B JUMP JUMPDEST PUSH1 0x0 PUSH1 0x20 DUP3 DUP5 SUB SLT ISZERO PUSH2 0x30B4 JUMPI PUSH1 0x0 DUP1 REVERT JUMPDEST DUP2 MLOAD PUSH2 0x5EE DUP2 PUSH2 0x237B JUMP JUMPDEST PUSH1 0x1 PUSH1 0x1 PUSH1 0xA0 SHL SUB DUP7 DUP2 AND DUP3 MSTORE DUP6 AND PUSH1 0x20 DUP3 ADD MSTORE PUSH1 0xA0 PUSH1 0x40 DUP3 ADD DUP2 SWAP1 MSTORE PUSH1 0x0 SWAP1 PUSH2 0x30EB SWAP1 DUP4 ADD DUP7 PUSH2 0x284C JUMP JUMPDEST DUP3 DUP2 SUB PUSH1 0x60 DUP5 ADD MSTORE PUSH2 0x30FD DUP2 DUP7 PUSH2 0x284C JUMP JUMPDEST SWAP1 POP DUP3 DUP2 SUB PUSH1 0x80 DUP5 ADD MSTORE PUSH2 0x3111 DUP2 DUP6 PUSH2 0x251B JUMP JUMPDEST SWAP9 SWAP8 POP POP POP POP POP POP POP POP JUMP JUMPDEST PUSH1 0x40 DUP2 MSTORE PUSH1 0x0 PUSH2 0x3130 PUSH1 0x40 DUP4 ADD DUP6 PUSH2 0x284C JUMP JUMPDEST DUP3 DUP2 SUB PUSH1 0x20 DUP5 ADD MSTORE PUSH2 0x2D62 DUP2 DUP6 PUSH2 0x284C JUMP JUMPDEST PUSH1 0x0 DUP3 MLOAD PUSH2 0x3154 DUP2 DUP5 PUSH1 0x20 DUP8 ADD PUSH2 0x24F7 JUMP JUMPDEST SWAP2 SWAP1 SWAP2 ADD SWAP3 SWAP2 POP POP JUMP INVALID LOG2 PUSH5 0x6970667358 0x22 SLT KECCAK256 SLOAD PUSH23 0xB0CB3F2030D276E7099CB75E2D211FCED331383D1D8ED7 0xE5 DUP14 0xB0 LOG2 0x2E 0xDE 0xC7 PUSH5 0x736F6C6343 STOP ADDMOD XOR STOP CALLER "
		},
		"gasEstimates": {
			"creation": {
				"codeDepositCost": "2538400",
				"executionCost": "infinite",
				"totalCost": "infinite"
			},
			"external": {
				"acceptOwnership()": "52375",
				"balanceOf(address,uint256)": "2654",
				"balanceOfBatch(address[],uint256[])": "infinite",
				"burn(address,uint256,uint256)": "infinite",
				"burnBatch(address,uint256[],uint256[])": "infinite",
				"ccipReceive((bytes32,uint64,bytes,bytes,(address,uint256)[]))": "infinite",
				"crossChainTransferFrom(address,address,uint256,uint256,bytes,uint64,uint8)": "infinite",
				"disableChain(uint64)": "infinite",
				"enableChain(uint64,address,bytes)": "infinite",
				"exists(uint256)": "2517",
				"isApprovedForAll(address,address)": "infinite",
				"mint(address,uint256,uint256,bytes,string)": "infinite",
				"mintBatch(address,uint256[],uint256[],bytes,string[])": "infinite",
				"owner()": "2412",
				"s_chains(uint64)": "infinite",
				"safeBatchTransferFrom(address,address,uint256[],uint256[],bytes)": "infinite",
				"safeTransferFrom(address,address,uint256,uint256,bytes)": "infinite",
				"setApprovalForAll(address,bool)": "infinite",
				"setIssuer(address)": "27979",
				"supportsInterface(bytes4)": "infinite",
				"totalSupply()": "2393",
				"totalSupply(uint256)": "2494",
				"transferOwnership(address)": "infinite",
				"uri(uint256)": "infinite",
				"withdraw(address)": "infinite",
				"withdrawToken(address,address)": "infinite"
			}
		},
		"methodIdentifiers": {
			"acceptOwnership()": "79ba5097",
			"balanceOf(address,uint256)": "00fdd58e",
			"balanceOfBatch(address[],uint256[])": "4e1273f4",
			"burn(address,uint256,uint256)": "f5298aca",
			"burnBatch(address,uint256[],uint256[])": "6b20c454",
			"ccipReceive((bytes32,uint64,bytes,bytes,(address,uint256)[]))": "85572ffb",
			"crossChainTransferFrom(address,address,uint256,uint256,bytes,uint64,uint8)": "240b3b49",
			"disableChain(uint64)": "41eade46",
			"enableChain(uint64,address,bytes)": "0ce639c4",
			"exists(uint256)": "4f558e79",
			"isApprovedForAll(address,address)": "e985e9c5",
			"mint(address,uint256,uint256,bytes,string)": "c1341c4f",
			"mintBatch(address,uint256[],uint256[],bytes,string[])": "b942f8cb",
			"owner()": "8da5cb5b",
			"s_chains(uint64)": "5dc5ebdb",
			"safeBatchTransferFrom(address,address,uint256[],uint256[],bytes)": "2eb2c2d6",
			"safeTransferFrom(address,address,uint256,uint256,bytes)": "f242432a",
			"setApprovalForAll(address,bool)": "a22cb465",
			"setIssuer(address)": "55cc4e57",
			"supportsInterface(bytes4)": "01ffc9a7",
			"totalSupply()": "18160ddd",
			"totalSupply(uint256)": "bd85b039",
			"transferOwnership(address)": "f2fde38b",
			"uri(uint256)": "0e89341c",
			"withdraw(address)": "51cff8d9",
			"withdrawToken(address,address)": "3aeac4e1"
		}
	},
	"abi": [
		{
			"inputs": [
				{
					"internalType": "string",
					"name": "uri_",
					"type": "string"
				},
				{
					"internalType": "address",
					"name": "ccipRouterAddress",
					"type": "address"
				},
				{
					"internalType": "address",
					"name": "linkTokenAddress",
					"type": "address"
				},
				{
					"internalType": "uint64",
					"name": "currentChainSelector",
					"type": "uint64"
				}
			],
			"stateMutability": "nonpayable",
			"type": "constructor"
		},
		{
			"inputs": [
				{
					"internalType": "address",
					"name": "target",
					"type": "address"
				}
			],
			"name": "AddressEmptyCode",
			"type": "error"
		},
		{
			"inputs": [
				{
					"internalType": "address",
					"name": "account",
					"type": "address"
				}
			],
			"name": "AddressInsufficientBalance",
			"type": "error"
		},
		{
			"inputs": [
				{
					"internalType": "uint64",
					"name": "chainSelector",
					"type": "uint64"
				}
			],
			"name": "ChainNotEnabled",
			"type": "error"
		},
		{
			"inputs": [
				{
					"internalType": "address",
					"name": "msgSender",
					"type": "address"
				}
			],
			"name": "ERC1155Core_CallerIsNotIssuerOrItself",
			"type": "error"
		},
		{
			"inputs": [
				{
					"internalType": "address",
					"name": "sender",
					"type": "address"
				},
				{
					"internalType": "uint256",
					"name": "balance",
					"type": "uint256"
				},
				{
					"internalType": "uint256",
					"name": "needed",
					"type": "uint256"
				},
				{
					"internalType": "uint256",
					"name": "tokenId",
					"type": "uint256"
				}
			],
			"name": "ERC1155InsufficientBalance",
			"type": "error"
		},
		{
			"inputs": [
				{
					"internalType": "address",
					"name": "approver",
					"type": "address"
				}
			],
			"name": "ERC1155InvalidApprover",
			"type": "error"
		},
		{
			"inputs": [
				{
					"internalType": "uint256",
					"name": "idsLength",
					"type": "uint256"
				},
				{
					"internalType": "uint256",
					"name": "valuesLength",
					"type": "uint256"
				}
			],
			"name": "ERC1155InvalidArrayLength",
			"type": "error"
		},
		{
			"inputs": [
				{
					"internalType": "address",
					"name": "operator",
					"type": "address"
				}
			],
			"name": "ERC1155InvalidOperator",
			"type": "error"
		},
		{
			"inputs": [
				{
					"internalType": "address",
					"name": "receiver",
					"type": "address"
				}
			],
			"name": "ERC1155InvalidReceiver",
			"type": "error"
		},
		{
			"inputs": [
				{
					"internalType": "address",
					"name": "sender",
					"type": "address"
				}
			],
			"name": "ERC1155InvalidSender",
			"type": "error"
		},
		{
			"inputs": [
				{
					"internalType": "address",
					"name": "operator",
					"type": "address"
				},
				{
					"internalType": "address",
					"name": "owner",
					"type": "address"
				}
			],
			"name": "ERC1155MissingApprovalForAll",
			"type": "error"
		},
		{
			"inputs": [],
			"name": "FailedInnerCall",
			"type": "error"
		},
		{
			"inputs": [
				{
					"internalType": "address",
					"name": "owner",
					"type": "address"
				},
				{
					"internalType": "address",
					"name": "target",
					"type": "address"
				},
				{
					"internalType": "uint256",
					"name": "value",
					"type": "uint256"
				}
			],
			"name": "FailedToWithdrawEth",
			"type": "error"
		},
		{
			"inputs": [
				{
					"internalType": "address",
					"name": "router",
					"type": "address"
				}
			],
			"name": "InvalidRouter",
			"type": "error"
		},
		{
			"inputs": [
				{
					"internalType": "uint256",
					"name": "currentBalance",
					"type": "uint256"
				},
				{
					"internalType": "uint256",
					"name": "calculatedFees",
					"type": "uint256"
				}
			],
			"name": "NotEnoughBalanceForFees",
			"type": "error"
		},
		{
			"inputs": [],
			"name": "NothingToWithdraw",
			"type": "error"
		},
		{
			"inputs": [
				{
					"internalType": "uint64",
					"name": "chainSelector",
					"type": "uint64"
				}
			],
			"name": "OperationNotAllowedOnCurrentChain",
			"type": "error"
		},
		{
			"inputs": [],
			"name": "ReentrancyGuardReentrantCall",
			"type": "error"
		},
		{
			"inputs": [
				{
					"internalType": "address",
					"name": "token",
					"type": "address"
				}
			],
			"name": "SafeERC20FailedOperation",
			"type": "error"
		},
		{
			"inputs": [
				{
					"internalType": "address",
					"name": "sender",
					"type": "address"
				}
			],
			"name": "SenderNotEnabled",
			"type": "error"
		},
		{
			"anonymous": false,
			"inputs": [
				{
					"indexed": true,
					"internalType": "address",
					"name": "account",
					"type": "address"
				},
				{
					"indexed": true,
					"internalType": "address",
					"name": "operator",
					"type": "address"
				},
				{
					"indexed": false,
					"internalType": "bool",
					"name": "approved",
					"type": "bool"
				}
			],
			"name": "ApprovalForAll",
			"type": "event"
		},
		{
			"anonymous": false,
			"inputs": [
				{
					"indexed": false,
					"internalType": "uint64",
					"name": "chainSelector",
					"type": "uint64"
				}
			],
			"name": "ChainDisabled",
			"type": "event"
		},
		{
			"anonymous": false,
			"inputs": [
				{
					"indexed": false,
					"internalType": "uint64",
					"name": "chainSelector",
					"type": "uint64"
				},
				{
					"indexed": false,
					"internalType": "address",
					"name": "xNftAddress",
					"type": "address"
				},
				{
					"indexed": false,
					"internalType": "bytes",
					"name": "ccipExtraArgs",
					"type": "bytes"
				}
			],
			"name": "ChainEnabled",
			"type": "event"
		},
		{
			"anonymous": false,
			"inputs": [
				{
					"indexed": false,
					"internalType": "address",
					"name": "from",
					"type": "address"
				},
				{
					"indexed": false,
					"internalType": "address",
					"name": "to",
					"type": "address"
				},
				{
					"indexed": false,
					"internalType": "uint256",
					"name": "id",
					"type": "uint256"
				},
				{
					"indexed": false,
					"internalType": "uint256",
					"name": "amount",
					"type": "uint256"
				},
				{
					"indexed": false,
					"internalType": "bytes",
					"name": "data",
					"type": "bytes"
				},
				{
					"indexed": false,
					"internalType": "uint64",
					"name": "sourceChainSelector",
					"type": "uint64"
				},
				{
					"indexed": false,
					"internalType": "uint64",
					"name": "destinationChainSelector",
					"type": "uint64"
				}
			],
			"name": "CrossChainReceived",
			"type": "event"
		},
		{
			"anonymous": false,
			"inputs": [
				{
					"indexed": false,
					"internalType": "address",
					"name": "from",
					"type": "address"
				},
				{
					"indexed": false,
					"internalType": "address",
					"name": "to",
					"type": "address"
				},
				{
					"indexed": false,
					"internalType": "uint256",
					"name": "id",
					"type": "uint256"
				},
				{
					"indexed": false,
					"internalType": "uint256",
					"name": "amount",
					"type": "uint256"
				},
				{
					"indexed": false,
					"internalType": "bytes",
					"name": "data",
					"type": "bytes"
				},
				{
					"indexed": false,
					"internalType": "uint64",
					"name": "sourceChainSelector",
					"type": "uint64"
				},
				{
					"indexed": false,
					"internalType": "uint64",
					"name": "destinationChainSelector",
					"type": "uint64"
				}
			],
			"name": "CrossChainSent",
			"type": "event"
		},
		{
			"anonymous": false,
			"inputs": [
				{
					"indexed": true,
					"internalType": "address",
					"name": "from",
					"type": "address"
				},
				{
					"indexed": true,
					"internalType": "address",
					"name": "to",
					"type": "address"
				}
			],
			"name": "OwnershipTransferRequested",
			"type": "event"
		},
		{
			"anonymous": false,
			"inputs": [
				{
					"indexed": true,
					"internalType": "address",
					"name": "from",
					"type": "address"
				},
				{
					"indexed": true,
					"internalType": "address",
					"name": "to",
					"type": "address"
				}
			],
			"name": "OwnershipTransferred",
			"type": "event"
		},
		{
			"anonymous": false,
			"inputs": [
				{
					"indexed": true,
					"internalType": "address",
					"name": "issuer",
					"type": "address"
				}
			],
			"name": "SetIssuer",
			"type": "event"
		},
		{
			"anonymous": false,
			"inputs": [
				{
					"indexed": true,
					"internalType": "address",
					"name": "operator",
					"type": "address"
				},
				{
					"indexed": true,
					"internalType": "address",
					"name": "from",
					"type": "address"
				},
				{
					"indexed": true,
					"internalType": "address",
					"name": "to",
					"type": "address"
				},
				{
					"indexed": false,
					"internalType": "uint256[]",
					"name": "ids",
					"type": "uint256[]"
				},
				{
					"indexed": false,
					"internalType": "uint256[]",
					"name": "values",
					"type": "uint256[]"
				}
			],
			"name": "TransferBatch",
			"type": "event"
		},
		{
			"anonymous": false,
			"inputs": [
				{
					"indexed": true,
					"internalType": "address",
					"name": "operator",
					"type": "address"
				},
				{
					"indexed": true,
					"internalType": "address",
					"name": "from",
					"type": "address"
				},
				{
					"indexed": true,
					"internalType": "address",
					"name": "to",
					"type": "address"
				},
				{
					"indexed": false,
					"internalType": "uint256",
					"name": "id",
					"type": "uint256"
				},
				{
					"indexed": false,
					"internalType": "uint256",
					"name": "value",
					"type": "uint256"
				}
			],
			"name": "TransferSingle",
			"type": "event"
		},
		{
			"anonymous": false,
			"inputs": [
				{
					"indexed": false,
					"internalType": "string",
					"name": "value",
					"type": "string"
				},
				{
					"indexed": true,
					"internalType": "uint256",
					"name": "id",
					"type": "uint256"
				}
			],
			"name": "URI",
			"type": "event"
		},
		{
			"inputs": [],
			"name": "acceptOwnership",
			"outputs": [],
			"stateMutability": "nonpayable",
			"type": "function"
		},
		{
			"inputs": [
				{
					"internalType": "address",
					"name": "account",
					"type": "address"
				},
				{
					"internalType": "uint256",
					"name": "id",
					"type": "uint256"
				}
			],
			"name": "balanceOf",
			"outputs": [
				{
					"internalType": "uint256",
					"name": "",
					"type": "uint256"
				}
			],
			"stateMutability": "view",
			"type": "function"
		},
		{
			"inputs": [
				{
					"internalType": "address[]",
					"name": "accounts",
					"type": "address[]"
				},
				{
					"internalType": "uint256[]",
					"name": "ids",
					"type": "uint256[]"
				}
			],
			"name": "balanceOfBatch",
			"outputs": [
				{
					"internalType": "uint256[]",
					"name": "",
					"type": "uint256[]"
				}
			],
			"stateMutability": "view",
			"type": "function"
		},
		{
			"inputs": [
				{
					"internalType": "address",
					"name": "account",
					"type": "address"
				},
				{
					"internalType": "uint256",
					"name": "id",
					"type": "uint256"
				},
				{
					"internalType": "uint256",
					"name": "amount",
					"type": "uint256"
				}
			],
			"name": "burn",
			"outputs": [],
			"stateMutability": "nonpayable",
			"type": "function"
		},
		{
			"inputs": [
				{
					"internalType": "address",
					"name": "account",
					"type": "address"
				},
				{
					"internalType": "uint256[]",
					"name": "ids",
					"type": "uint256[]"
				},
				{
					"internalType": "uint256[]",
					"name": "amounts",
					"type": "uint256[]"
				}
			],
			"name": "burnBatch",
			"outputs": [],
			"stateMutability": "nonpayable",
			"type": "function"
		},
		{
			"inputs": [
				{
					"components": [
						{
							"internalType": "bytes32",
							"name": "messageId",
							"type": "bytes32"
						},
						{
							"internalType": "uint64",
							"name": "sourceChainSelector",
							"type": "uint64"
						},
						{
							"internalType": "bytes",
							"name": "sender",
							"type": "bytes"
						},
						{
							"internalType": "bytes",
							"name": "data",
							"type": "bytes"
						},
						{
							"components": [
								{
									"internalType": "address",
									"name": "token",
									"type": "address"
								},
								{
									"internalType": "uint256",
									"name": "amount",
									"type": "uint256"
								}
							],
							"internalType": "struct Client.EVMTokenAmount[]",
							"name": "destTokenAmounts",
							"type": "tuple[]"
						}
					],
					"internalType": "struct Client.Any2EVMMessage",
					"name": "message",
					"type": "tuple"
				}
			],
			"name": "ccipReceive",
			"outputs": [],
			"stateMutability": "nonpayable",
			"type": "function"
		},
		{
			"inputs": [
				{
					"internalType": "address",
					"name": "from",
					"type": "address"
				},
				{
					"internalType": "address",
					"name": "to",
					"type": "address"
				},
				{
					"internalType": "uint256",
					"name": "id",
					"type": "uint256"
				},
				{
					"internalType": "uint256",
					"name": "amount",
					"type": "uint256"
				},
				{
					"internalType": "bytes",
					"name": "data",
					"type": "bytes"
				},
				{
					"internalType": "uint64",
					"name": "destinationChainSelector",
					"type": "uint64"
				},
				{
					"internalType": "enum CrossChainBurnAndMintERC1155.PayFeesIn",
					"name": "payFeesIn",
					"type": "uint8"
				}
			],
			"name": "crossChainTransferFrom",
			"outputs": [
				{
					"internalType": "bytes32",
					"name": "messageId",
					"type": "bytes32"
				}
			],
			"stateMutability": "nonpayable",
			"type": "function"
		},
		{
			"inputs": [
				{
					"internalType": "uint64",
					"name": "chainSelector",
					"type": "uint64"
				}
			],
			"name": "disableChain",
			"outputs": [],
			"stateMutability": "nonpayable",
			"type": "function"
		},
		{
			"inputs": [
				{
					"internalType": "uint64",
					"name": "chainSelector",
					"type": "uint64"
				},
				{
					"internalType": "address",
					"name": "xNftAddress",
					"type": "address"
				},
				{
					"internalType": "bytes",
					"name": "ccipExtraArgs",
					"type": "bytes"
				}
			],
			"name": "enableChain",
			"outputs": [],
			"stateMutability": "nonpayable",
			"type": "function"
		},
		{
			"inputs": [
				{
					"internalType": "uint256",
					"name": "id",
					"type": "uint256"
				}
			],
			"name": "exists",
			"outputs": [
				{
					"internalType": "bool",
					"name": "",
					"type": "bool"
				}
			],
			"stateMutability": "view",
			"type": "function"
		},
		{
			"inputs": [
				{
					"internalType": "address",
					"name": "account",
					"type": "address"
				},
				{
					"internalType": "address",
					"name": "operator",
					"type": "address"
				}
			],
			"name": "isApprovedForAll",
			"outputs": [
				{
					"internalType": "bool",
					"name": "",
					"type": "bool"
				}
			],
			"stateMutability": "view",
			"type": "function"
		},
		{
			"inputs": [
				{
					"internalType": "address",
					"name": "_to",
					"type": "address"
				},
				{
					"internalType": "uint256",
					"name": "_id",
					"type": "uint256"
				},
				{
					"internalType": "uint256",
					"name": "_amount",
					"type": "uint256"
				},
				{
					"internalType": "bytes",
					"name": "_data",
					"type": "bytes"
				},
				{
					"internalType": "string",
					"name": "_tokenUri",
					"type": "string"
				}
			],
			"name": "mint",
			"outputs": [],
			"stateMutability": "nonpayable",
			"type": "function"
		},
		{
			"inputs": [
				{
					"internalType": "address",
					"name": "_to",
					"type": "address"
				},
				{
					"internalType": "uint256[]",
					"name": "_ids",
					"type": "uint256[]"
				},
				{
					"internalType": "uint256[]",
					"name": "_amounts",
					"type": "uint256[]"
				},
				{
					"internalType": "bytes",
					"name": "_data",
					"type": "bytes"
				},
				{
					"internalType": "string[]",
					"name": "_tokenUris",
					"type": "string[]"
				}
			],
			"name": "mintBatch",
			"outputs": [],
			"stateMutability": "nonpayable",
			"type": "function"
		},
		{
			"inputs": [],
			"name": "owner",
			"outputs": [
				{
					"internalType": "address",
					"name": "",
					"type": "address"
				}
			],
			"stateMutability": "view",
			"type": "function"
		},
		{
			"inputs": [
				{
					"internalType": "uint64",
					"name": "destChainSelector",
					"type": "uint64"
				}
			],
			"name": "s_chains",
			"outputs": [
				{
					"internalType": "address",
					"name": "xNftAddress",
					"type": "address"
				},
				{
					"internalType": "bytes",
					"name": "ccipExtraArgsBytes",
					"type": "bytes"
				}
			],
			"stateMutability": "view",
			"type": "function"
		},
		{
			"inputs": [
				{
					"internalType": "address",
					"name": "from",
					"type": "address"
				},
				{
					"internalType": "address",
					"name": "to",
					"type": "address"
				},
				{
					"internalType": "uint256[]",
					"name": "ids",
					"type": "uint256[]"
				},
				{
					"internalType": "uint256[]",
					"name": "values",
					"type": "uint256[]"
				},
				{
					"internalType": "bytes",
					"name": "data",
					"type": "bytes"
				}
			],
			"name": "safeBatchTransferFrom",
			"outputs": [],
			"stateMutability": "nonpayable",
			"type": "function"
		},
		{
			"inputs": [
				{
					"internalType": "address",
					"name": "from",
					"type": "address"
				},
				{
					"internalType": "address",
					"name": "to",
					"type": "address"
				},
				{
					"internalType": "uint256",
					"name": "id",
					"type": "uint256"
				},
				{
					"internalType": "uint256",
					"name": "value",
					"type": "uint256"
				},
				{
					"internalType": "bytes",
					"name": "data",
					"type": "bytes"
				}
			],
			"name": "safeTransferFrom",
			"outputs": [],
			"stateMutability": "nonpayable",
			"type": "function"
		},
		{
			"inputs": [
				{
					"internalType": "address",
					"name": "operator",
					"type": "address"
				},
				{
					"internalType": "bool",
					"name": "approved",
					"type": "bool"
				}
			],
			"name": "setApprovalForAll",
			"outputs": [],
			"stateMutability": "nonpayable",
			"type": "function"
		},
		{
			"inputs": [
				{
					"internalType": "address",
					"name": "_issuer",
					"type": "address"
				}
			],
			"name": "setIssuer",
			"outputs": [],
			"stateMutability": "nonpayable",
			"type": "function"
		},
		{
			"inputs": [
				{
					"internalType": "bytes4",
					"name": "interfaceId",
					"type": "bytes4"
				}
			],
			"name": "supportsInterface",
			"outputs": [
				{
					"internalType": "bool",
					"name": "",
					"type": "bool"
				}
			],
			"stateMutability": "view",
			"type": "function"
		},
		{
			"inputs": [],
			"name": "totalSupply",
			"outputs": [
				{
					"internalType": "uint256",
					"name": "",
					"type": "uint256"
				}
			],
			"stateMutability": "view",
			"type": "function"
		},
		{
			"inputs": [
				{
					"internalType": "uint256",
					"name": "id",
					"type": "uint256"
				}
			],
			"name": "totalSupply",
			"outputs": [
				{
					"internalType": "uint256",
					"name": "",
					"type": "uint256"
				}
			],
			"stateMutability": "view",
			"type": "function"
		},
		{
			"inputs": [
				{
					"internalType": "address",
					"name": "to",
					"type": "address"
				}
			],
			"name": "transferOwnership",
			"outputs": [],
			"stateMutability": "nonpayable",
			"type": "function"
		},
		{
			"inputs": [
				{
					"internalType": "uint256",
					"name": "tokenId",
					"type": "uint256"
				}
			],
			"name": "uri",
			"outputs": [
				{
					"internalType": "string",
					"name": "",
					"type": "string"
				}
			],
			"stateMutability": "view",
			"type": "function"
		},
		{
			"inputs": [
				{
					"internalType": "address",
					"name": "_beneficiary",
					"type": "address"
				}
			],
			"name": "withdraw",
			"outputs": [],
			"stateMutability": "nonpayable",
			"type": "function"
		},
		{
			"inputs": [
				{
					"internalType": "address",
					"name": "_beneficiary",
					"type": "address"
				},
				{
					"internalType": "address",
					"name": "_token",
					"type": "address"
				}
			],
			"name": "withdrawToken",
			"outputs": [],
			"stateMutability": "nonpayable",
			"type": "function"
		}
	]
}